{
  "_format": "hh-sol-artifact-1",
  "contractName": "Bazaar",
  "sourceName": "src/backend/contracts/Bazaar.sol",
  "abi": [
    {
      "inputs": [],
      "stateMutability": "nonpayable",
      "type": "constructor"
    },
    {
      "anonymous": false,
      "inputs": [
        {
          "indexed": false,
          "internalType": "uint256",
          "name": "listingID",
          "type": "uint256"
        },
        {
          "indexed": true,
          "internalType": "address",
          "name": "product",
          "type": "address"
        },
        {
          "indexed": false,
          "internalType": "uint256",
          "name": "ProductID",
          "type": "uint256"
        },
        {
          "indexed": false,
          "internalType": "uint256",
          "name": "amount",
          "type": "uint256"
        },
        {
          "indexed": false,
          "internalType": "string",
          "name": "amountType",
          "type": "string"
        },
        {
          "indexed": false,
          "internalType": "uint256",
          "name": "price",
          "type": "uint256"
        },
        {
          "indexed": true,
          "internalType": "address",
          "name": "producer",
          "type": "address"
        },
        {
          "indexed": false,
          "internalType": "enum Bazaar.Active",
          "name": "activty",
          "type": "uint8"
        }
      ],
      "name": "Listing",
      "type": "event"
    },
    {
      "anonymous": false,
      "inputs": [
        {
          "indexed": false,
          "internalType": "uint256",
          "name": "listingID",
          "type": "uint256"
        },
        {
          "indexed": true,
          "internalType": "address",
          "name": "product",
          "type": "address"
        },
        {
          "indexed": false,
          "internalType": "uint256",
          "name": "ProductID",
          "type": "uint256"
        },
        {
          "indexed": false,
          "internalType": "uint256",
          "name": "amount",
          "type": "uint256"
        },
        {
          "indexed": false,
          "internalType": "string",
          "name": "amountType",
          "type": "string"
        },
        {
          "indexed": false,
          "internalType": "uint256",
          "name": "price",
          "type": "uint256"
        },
        {
          "indexed": true,
          "internalType": "address",
          "name": "producer",
          "type": "address"
        },
        {
          "indexed": true,
          "internalType": "address",
          "name": "buyer",
          "type": "address"
        },
        {
          "indexed": false,
          "internalType": "bool",
          "name": "buyerConf",
          "type": "bool"
        }
      ],
      "name": "sold",
      "type": "event"
    },
    {
      "inputs": [
        {
          "internalType": "address",
          "name": "",
          "type": "address"
        }
      ],
      "name": "AuthAddress",
      "outputs": [
        {
          "internalType": "string",
          "name": "",
          "type": "string"
        }
      ],
      "stateMutability": "view",
      "type": "function"
    },
    {
      "inputs": [
        {
          "internalType": "address",
          "name": "",
          "type": "address"
        }
      ],
      "name": "AuthList",
      "outputs": [
        {
          "internalType": "enum Bazaar.Auth",
          "name": "",
          "type": "uint8"
        }
      ],
      "stateMutability": "view",
      "type": "function"
    },
    {
      "inputs": [],
      "name": "BazaarCount",
      "outputs": [
        {
          "internalType": "uint256",
          "name": "",
          "type": "uint256"
        }
      ],
      "stateMutability": "view",
      "type": "function"
    },
    {
      "inputs": [
        {
          "internalType": "uint256",
          "name": "",
          "type": "uint256"
        }
      ],
      "name": "BazaarList",
      "outputs": [
        {
          "internalType": "uint256",
          "name": "listingID",
          "type": "uint256"
        },
        {
          "internalType": "contract IERC721",
          "name": "product",
          "type": "address"
        },
        {
          "internalType": "uint256",
          "name": "ProductID",
          "type": "uint256"
        },
        {
          "internalType": "uint256",
          "name": "amount",
          "type": "uint256"
        },
        {
          "internalType": "string",
          "name": "amountType",
          "type": "string"
        },
        {
          "internalType": "uint256",
          "name": "price",
          "type": "uint256"
        },
        {
          "internalType": "address payable",
          "name": "producer",
          "type": "address"
        },
        {
          "internalType": "address payable",
          "name": "buyer",
          "type": "address"
        },
        {
          "internalType": "enum Bazaar.Active",
          "name": "activty",
          "type": "uint8"
        },
        {
          "internalType": "bool",
          "name": "buyerConf",
          "type": "bool"
        },
        {
          "internalType": "uint256",
          "name": "buyTime",
          "type": "uint256"
        },
        {
          "internalType": "uint256",
          "name": "key",
          "type": "uint256"
        }
      ],
      "stateMutability": "view",
      "type": "function"
    },
    {
      "inputs": [
        {
          "internalType": "uint256",
          "name": "",
          "type": "uint256"
        }
      ],
      "name": "Locked",
      "outputs": [
        {
          "internalType": "bool",
          "name": "",
          "type": "bool"
        }
      ],
      "stateMutability": "view",
      "type": "function"
    },
    {
      "inputs": [
        {
          "internalType": "uint256",
          "name": "",
          "type": "uint256"
        }
      ],
      "name": "PaymentTrack",
      "outputs": [
        {
          "internalType": "bool",
          "name": "",
          "type": "bool"
        }
      ],
      "stateMutability": "view",
      "type": "function"
    },
    {
      "inputs": [],
      "name": "admin",
      "outputs": [
        {
          "internalType": "address",
          "name": "",
          "type": "address"
        }
      ],
      "stateMutability": "view",
      "type": "function"
    },
    {
      "inputs": [
        {
          "internalType": "uint256",
          "name": "_listingID",
          "type": "uint256"
        }
      ],
      "name": "burnItem",
      "outputs": [
        {
          "internalType": "uint256",
          "name": "",
          "type": "uint256"
        }
      ],
      "stateMutability": "nonpayable",
      "type": "function"
    },
    {
      "inputs": [
        {
          "internalType": "uint256",
          "name": "_listingID",
          "type": "uint256"
        },
        {
          "internalType": "uint256",
          "name": "_key",
          "type": "uint256"
        }
      ],
      "name": "confirmBuyer",
      "outputs": [
        {
          "internalType": "bool",
          "name": "",
          "type": "bool"
        }
      ],
      "stateMutability": "nonpayable",
      "type": "function"
    },
    {
      "inputs": [
        {
          "internalType": "contract IERC721",
          "name": "_product",
          "type": "address"
        },
        {
          "internalType": "uint256",
          "name": "_productID",
          "type": "uint256"
        },
        {
          "internalType": "uint256",
          "name": "_price",
          "type": "uint256"
        },
        {
          "internalType": "uint256",
          "name": "_amount",
          "type": "uint256"
        },
        {
          "internalType": "string",
          "name": "_amountType",
          "type": "string"
        }
      ],
      "name": "createListing",
      "outputs": [],
      "stateMutability": "nonpayable",
      "type": "function"
    },
    {
      "inputs": [
        {
          "internalType": "uint256",
          "name": "_listingID",
          "type": "uint256"
        }
      ],
      "name": "delistItem",
      "outputs": [],
      "stateMutability": "nonpayable",
      "type": "function"
    },
    {
      "inputs": [],
      "name": "deliveryTime",
      "outputs": [
        {
          "internalType": "uint256",
          "name": "",
          "type": "uint256"
        }
      ],
      "stateMutability": "view",
      "type": "function"
    },
    {
      "inputs": [
        {
          "internalType": "string",
          "name": "name",
          "type": "string"
        },
        {
          "internalType": "address",
          "name": "ad",
          "type": "address"
        },
        {
          "internalType": "enum Bazaar.Auth",
          "name": "aut",
          "type": "uint8"
        }
      ],
      "name": "giveAuth",
      "outputs": [
        {
          "internalType": "enum Bazaar.Auth",
          "name": "",
          "type": "uint8"
        }
      ],
      "stateMutability": "nonpayable",
      "type": "function"
    },
    {
      "inputs": [
        {
          "internalType": "uint256",
          "name": "_listingID",
          "type": "uint256"
        }
      ],
      "name": "giveBack",
      "outputs": [],
      "stateMutability": "nonpayable",
      "type": "function"
    },
    {
      "inputs": [
        {
          "internalType": "uint256",
          "name": "_listingID",
          "type": "uint256"
        }
      ],
      "name": "listItem",
      "outputs": [],
      "stateMutability": "nonpayable",
      "type": "function"
    },
    {
      "inputs": [
        {
          "internalType": "uint256",
          "name": "_listingID",
          "type": "uint256"
        }
      ],
      "name": "purchaseBazaarItem",
      "outputs": [],
      "stateMutability": "payable",
      "type": "function"
    }
  ],
  "bytecode": "0x60a0604052601e6005553480156200001657600080fd5b503373ffffffffffffffffffffffffffffffffffffffff1660808173ffffffffffffffffffffffffffffffffffffffff1660601b8152505060036000803373ffffffffffffffffffffffffffffffffffffffff1673ffffffffffffffffffffffffffffffffffffffff16815260200190815260200160002060006101000a81548160ff02191690836003811115620000d7577f4e487b7100000000000000000000000000000000000000000000000000000000600052602160045260246000fd5b02179055506040518060400160405280600581526020017f41646d696e000000000000000000000000000000000000000000000000000000815250600460003373ffffffffffffffffffffffffffffffffffffffff1673ffffffffffffffffffffffffffffffffffffffff1681526020019081526020016000209080519060200190620001669291906200016d565b5062000282565b8280546200017b906200021d565b90600052602060002090601f0160209004810192826200019f5760008555620001eb565b82601f10620001ba57805160ff1916838001178555620001eb565b82800160010185558215620001eb579182015b82811115620001ea578251825591602001919060010190620001cd565b5b509050620001fa9190620001fe565b5090565b5b8082111562000219576000816000905550600101620001ff565b5090565b600060028204905060018216806200023657607f821691505b602082108114156200024d576200024c62000253565b5b50919050565b7f4e487b7100000000000000000000000000000000000000000000000000000000600052602260045260246000fd5b60805160601c613a2e620002af6000396000818161058101528181611f1801526120db0152613a2e6000f3fe6080604052600436106100f35760003560e01c806376e66aee1161008a5780639298992f116100595780639298992f1461033f578063a25c44f81461037c578063d6c10621146103c4578063f851a44014610401576100f3565b806376e66aee1461027e5780638a5fbf1e146102bb5780638cae621f146102e657806391d61a0214610323576100f3565b806345fe5a83116100c657806345fe5a83146101b05780634d38bb39146101db578063576cc0f7146102045780636f78d9e314610241576100f3565b8063032bc66b146100f85780630d5847b014610135578063100616311461015e5780632ce3819014610187575b600080fd5b34801561010457600080fd5b5061011f600480360381019061011a919061273c565b61042c565b60405161012c9190612c87565b60405180910390f35b34801561014157600080fd5b5061015c6004803603810190610157919061273c565b61044c565b005b34801561016a57600080fd5b506101856004803603810190610180919061273c565b61079b565b005b34801561019357600080fd5b506101ae60048036038101906101a9919061273c565b610a45565b005b3480156101bc57600080fd5b506101c5610cef565b6040516101d29190612f3f565b60405180910390f35b3480156101e757600080fd5b5061020260048036038101906101fd9190612646565b610cf5565b005b34801561021057600080fd5b5061022b6004803603810190610226919061273c565b611313565b6040516102389190612f3f565b60405180910390f35b34801561024d57600080fd5b506102686004803603810190610263919061273c565b6116b8565b6040516102759190612c87565b60405180910390f35b34801561028a57600080fd5b506102a560048036038101906102a0919061261d565b6116d8565b6040516102b29190612ca2565b60405180910390f35b3480156102c757600080fd5b506102d06116f8565b6040516102dd9190612f3f565b60405180910390f35b3480156102f257600080fd5b5061030d60048036038101906103089190612765565b6116fe565b60405161031a9190612c87565b60405180910390f35b61033d6004803603810190610338919061273c565b611905565b005b34801561034b57600080fd5b506103666004803603810190610361919061261d565b611d12565b6040516103739190612cbd565b60405180910390f35b34801561038857600080fd5b506103a3600480360381019061039e919061273c565b611db2565b6040516103bb9c9b9a99989796959493929190612f5a565b60405180910390f35b3480156103d057600080fd5b506103eb60048036038101906103e691906126d5565b611f14565b6040516103f89190612ca2565b60405180910390f35b34801561040d57600080fd5b506104166120d9565b6040516104239190612bfe565b60405180910390f35b60026020528060005260406000206000915054906101000a900460ff1681565b8060008111801561045f57506006548111155b61049e576040517f08c379a000000000000000000000000000000000000000000000000000000000815260040161049590612d3f565b60405180910390fd5b60006001600084815260200190815260200160002090503373ffffffffffffffffffffffffffffffffffffffff168160070160009054906101000a900473ffffffffffffffffffffffffffffffffffffffff1673ffffffffffffffffffffffffffffffffffffffff16148061056257503373ffffffffffffffffffffffffffffffffffffffff168160060160009054906101000a900473ffffffffffffffffffffffffffffffffffffffff1673ffffffffffffffffffffffffffffffffffffffff16145b806105b857503373ffffffffffffffffffffffffffffffffffffffff167f000000000000000000000000000000000000000000000000000000000000000073ffffffffffffffffffffffffffffffffffffffff16145b6105f7576040517f08c379a00000000000000000000000000000000000000000000000000000000081526004016105ee90612ebf565b60405180910390fd5b4281600801541061063d576040517f08c379a000000000000000000000000000000000000000000000000000000000815260040161063490612eff565b60405180910390fd5b60006003600085815260200190815260200160002060006101000a81548160ff0219169083151502179055508060070160009054906101000a900473ffffffffffffffffffffffffffffffffffffffff1673ffffffffffffffffffffffffffffffffffffffff166108fc82600501549081150290604051600060405180830381858888f193505050501580156106d7573d6000803e3d6000fd5b5060008160070160006101000a81548173ffffffffffffffffffffffffffffffffffffffff021916908373ffffffffffffffffffffffffffffffffffffffff1602179055506000816008018190555060008160070160146101000a81548160ff02191690836004811115610774577f4e487b7100000000000000000000000000000000000000000000000000000000600052602160045260246000fd5b021790555060008160070160156101000a81548160ff021916908315150217905550505050565b806000811180156107ae57506006548111155b6107ed576040517f08c379a00000000000000000000000000000000000000000000000000000000081526004016107e490612d3f565b60405180910390fd5b6000600160008481526020019081526020016000209050600073ffffffffffffffffffffffffffffffffffffffff168160070160009054906101000a900473ffffffffffffffffffffffffffffffffffffffff1673ffffffffffffffffffffffffffffffffffffffff1614610897576040517f08c379a000000000000000000000000000000000000000000000000000000000815260040161088e90612edf565b60405180910390fd5b3373ffffffffffffffffffffffffffffffffffffffff168160060160009054906101000a900473ffffffffffffffffffffffffffffffffffffffff1673ffffffffffffffffffffffffffffffffffffffff1614610929576040517f08c379a000000000000000000000000000000000000000000000000000000000815260040161092090612cff565b60405180910390fd5b60016004811115610963577f4e487b7100000000000000000000000000000000000000000000000000000000600052602160045260246000fd5b8160070160149054906101000a900460ff1660048111156109ad577f4e487b7100000000000000000000000000000000000000000000000000000000600052602160045260246000fd5b146109ed576040517f08c379a00000000000000000000000000000000000000000000000000000000081526004016109e490612e9f565b60405180910390fd5b60008160070160146101000a81548160ff02191690836004811115610a3b577f4e487b7100000000000000000000000000000000000000000000000000000000600052602160045260246000fd5b0217905550505050565b80600081118015610a5857506006548111155b610a97576040517f08c379a0000000000000000000000000000000000000000000000000000000008152600401610a8e90612d3f565b60405180910390fd5b6000600160008481526020019081526020016000209050600073ffffffffffffffffffffffffffffffffffffffff168160070160009054906101000a900473ffffffffffffffffffffffffffffffffffffffff1673ffffffffffffffffffffffffffffffffffffffff1614610b41576040517f08c379a0000000000000000000000000000000000000000000000000000000008152600401610b3890612edf565b60405180910390fd5b3373ffffffffffffffffffffffffffffffffffffffff168160060160009054906101000a900473ffffffffffffffffffffffffffffffffffffffff1673ffffffffffffffffffffffffffffffffffffffff1614610bd3576040517f08c379a0000000000000000000000000000000000000000000000000000000008152600401610bca90612cff565b60405180910390fd5b60006004811115610c0d577f4e487b7100000000000000000000000000000000000000000000000000000000600052602160045260246000fd5b8160070160149054906101000a900460ff166004811115610c57577f4e487b7100000000000000000000000000000000000000000000000000000000600052602160045260246000fd5b14610c97576040517f08c379a0000000000000000000000000000000000000000000000000000000008152600401610c8e90612d5f565b60405180910390fd5b60018160070160146101000a81548160ff02191690836004811115610ce5577f4e487b7100000000000000000000000000000000000000000000000000000000600052602160045260246000fd5b0217905550505050565b60055481565b83600015156002600083815260200190815260200160002060009054906101000a900460ff16151514610d2757600080fd5b60016003811115610d61577f4e487b7100000000000000000000000000000000000000000000000000000000600052602160045260246000fd5b6000803373ffffffffffffffffffffffffffffffffffffffff1673ffffffffffffffffffffffffffffffffffffffff16815260200190815260200160002060009054906101000a900460ff166003811115610de5577f4e487b7100000000000000000000000000000000000000000000000000000000600052602160045260246000fd5b1480610eab5750600380811115610e25577f4e487b7100000000000000000000000000000000000000000000000000000000600052602160045260246000fd5b6000803373ffffffffffffffffffffffffffffffffffffffff1673ffffffffffffffffffffffffffffffffffffffff16815260200190815260200160002060009054906101000a900460ff166003811115610ea9577f4e487b7100000000000000000000000000000000000000000000000000000000600052602160045260246000fd5b145b610eea576040517f08c379a0000000000000000000000000000000000000000000000000000000008152600401610ee190612e7f565b60405180910390fd5b600084118015610efa5750600083115b610f39576040517f08c379a0000000000000000000000000000000000000000000000000000000008152600401610f3090612e3f565b60405180910390fd5b6000825111610f7d576040517f08c379a0000000000000000000000000000000000000000000000000000000008152600401610f7490612d1f565b60405180910390fd5b60066000815480929190610f909061337d565b91905055508573ffffffffffffffffffffffffffffffffffffffff166323b872dd3330886040518463ffffffff1660e01b8152600401610fd293929190612c50565b600060405180830381600087803b158015610fec57600080fd5b505af1158015611000573d6000803e3d6000fd5b5050505060405180610180016040528060065481526020018773ffffffffffffffffffffffffffffffffffffffff1681526020018681526020018481526020018381526020018581526020013373ffffffffffffffffffffffffffffffffffffffff168152602001600073ffffffffffffffffffffffffffffffffffffffff168152602001600160048111156110bf577f4e487b7100000000000000000000000000000000000000000000000000000000600052602160045260246000fd5b81526020016000151581526020016000815260200160008152506001600060065481526020019081526020016000206000820151816000015560208201518160010160006101000a81548173ffffffffffffffffffffffffffffffffffffffff021916908373ffffffffffffffffffffffffffffffffffffffff1602179055506040820151816002015560608201518160030155608082015181600401908051906020019061116f9291906124be565b5060a0820151816005015560c08201518160060160006101000a81548173ffffffffffffffffffffffffffffffffffffffff021916908373ffffffffffffffffffffffffffffffffffffffff16021790555060e08201518160070160006101000a81548173ffffffffffffffffffffffffffffffffffffffff021916908373ffffffffffffffffffffffffffffffffffffffff1602179055506101008201518160070160146101000a81548160ff0219169083600481111561125a577f4e487b7100000000000000000000000000000000000000000000000000000000600052602160045260246000fd5b02179055506101208201518160070160156101000a81548160ff021916908315150217905550610140820151816008015561016082015181600901559050503373ffffffffffffffffffffffffffffffffffffffff168673ffffffffffffffffffffffffffffffffffffffff167f415cc3f75a9990d6fab15f2c9f6a428b9126b31459e156c48c5c2b4fc23717816006548887878a60016040516113039695949392919061301b565b60405180910390a3505050505050565b60008060016000848152602001908152602001600020905060036004811115611365577f4e487b7100000000000000000000000000000000000000000000000000000000600052602160045260246000fd5b8160070160149054906101000a900460ff1660048111156113af577f4e487b7100000000000000000000000000000000000000000000000000000000600052602160045260246000fd5b1415611416573373ffffffffffffffffffffffffffffffffffffffff168160070160009054906101000a900473ffffffffffffffffffffffffffffffffffffffff1673ffffffffffffffffffffffffffffffffffffffff161461141157600080fd5b6115d0565b60006004811115611450577f4e487b7100000000000000000000000000000000000000000000000000000000600052602160045260246000fd5b8160070160149054906101000a900460ff16600481111561149a577f4e487b7100000000000000000000000000000000000000000000000000000000600052602160045260246000fd5b14806115275750600160048111156114db577f4e487b7100000000000000000000000000000000000000000000000000000000600052602160045260246000fd5b8160070160149054906101000a900460ff166004811115611525577f4e487b7100000000000000000000000000000000000000000000000000000000600052602160045260246000fd5b145b1561158d573373ffffffffffffffffffffffffffffffffffffffff168160060160009054906101000a900473ffffffffffffffffffffffffffffffffffffffff1673ffffffffffffffffffffffffffffffffffffffff161461158857600080fd5b6115cf565b60006115ce576040517f08c379a00000000000000000000000000000000000000000000000000000000081526004016115c590612dbf565b60405180910390fd5b5b5b60008160060160006101000a81548173ffffffffffffffffffffffffffffffffffffffff021916908373ffffffffffffffffffffffffffffffffffffffff16021790555060008160070160006101000a81548173ffffffffffffffffffffffffffffffffffffffff021916908373ffffffffffffffffffffffffffffffffffffffff16021790555060048160070160146101000a81548160ff021916908360048111156116a6577f4e487b7100000000000000000000000000000000000000000000000000000000600052602160045260246000fd5b02179055508060020154915050919050565b60036020528060005260406000206000915054906101000a900460ff1681565b60006020528060005260406000206000915054906101000a900460ff1681565b60065481565b60008260008111801561171357506006548111155b611752576040517f08c379a000000000000000000000000000000000000000000000000000000000815260040161174990612d3f565b60405180910390fd5b6000600160008681526020019081526020016000209050600073ffffffffffffffffffffffffffffffffffffffff168160070160009054906101000a900473ffffffffffffffffffffffffffffffffffffffff1673ffffffffffffffffffffffffffffffffffffffff1614156117fd576040517f08c379a00000000000000000000000000000000000000000000000000000000081526004016117f490612d9f565b60405180910390fd5b8060070160009054906101000a900473ffffffffffffffffffffffffffffffffffffffff1673ffffffffffffffffffffffffffffffffffffffff163373ffffffffffffffffffffffffffffffffffffffff161461188f576040517f08c379a000000000000000000000000000000000000000000000000000000000815260040161188690612f1f565b60405180910390fd5b838160090154146118d5576040517f08c379a00000000000000000000000000000000000000000000000000000000081526004016118cc90612cdf565b60405180910390fd5b60018160070160156101000a81548160ff0219169083151502179055506118fb856120fd565b9250505092915050565b8060008111801561191857506006548111155b611957576040517f08c379a000000000000000000000000000000000000000000000000000000000815260040161194e90612d3f565b60405180910390fd5b6000600160008481526020019081526020016000209050600073ffffffffffffffffffffffffffffffffffffffff168160070160009054906101000a900473ffffffffffffffffffffffffffffffffffffffff1673ffffffffffffffffffffffffffffffffffffffff1614611a01576040517f08c379a00000000000000000000000000000000000000000000000000000000081526004016119f890612edf565b60405180910390fd5b8060060160009054906101000a900473ffffffffffffffffffffffffffffffffffffffff1673ffffffffffffffffffffffffffffffffffffffff168160070160009054906101000a900473ffffffffffffffffffffffffffffffffffffffff1673ffffffffffffffffffffffffffffffffffffffff161415611ab8576040517f08c379a0000000000000000000000000000000000000000000000000000000008152600401611aaf90612d7f565b60405180910390fd5b8060050154341015611aff576040517f08c379a0000000000000000000000000000000000000000000000000000000008152600401611af690612e1f565b60405180910390fd5b60016004811115611b39577f4e487b7100000000000000000000000000000000000000000000000000000000600052602160045260246000fd5b8160070160149054906101000a900460ff166004811115611b83577f4e487b7100000000000000000000000000000000000000000000000000000000600052602160045260246000fd5b14611bc3576040517f08c379a0000000000000000000000000000000000000000000000000000000008152600401611bba90612dff565b60405180910390fd5b6001600260008360020154815260200190815260200160002060006101000a81548160ff021916908315150217905550338160070160006101000a81548173ffffffffffffffffffffffffffffffffffffffff021916908373ffffffffffffffffffffffffffffffffffffffff16021790555060028160070160146101000a81548160ff02191690836004811115611c84577f4e487b7100000000000000000000000000000000000000000000000000000000600052602160045260246000fd5b021790555060055442611c979190613172565b8160080181905550620f424042338360070160009054906101000a900473ffffffffffffffffffffffffffffffffffffffff168460030154604051602001611ce29493929190612bb0565b6040516020818303038152906040528051906020012060001c611d059190613406565b8160090181905550505050565b60046020528060005260406000206000915090508054611d319061331a565b80601f0160208091040260200160405190810160405280929190818152602001828054611d5d9061331a565b8015611daa5780601f10611d7f57610100808354040283529160200191611daa565b820191906000526020600020905b815481529060010190602001808311611d8d57829003601f168201915b505050505081565b60016020528060005260406000206000915090508060000154908060010160009054906101000a900473ffffffffffffffffffffffffffffffffffffffff1690806002015490806003015490806004018054611e0d9061331a565b80601f0160208091040260200160405190810160405280929190818152602001828054611e399061331a565b8015611e865780601f10611e5b57610100808354040283529160200191611e86565b820191906000526020600020905b815481529060010190602001808311611e6957829003601f168201915b5050505050908060050154908060060160009054906101000a900473ffffffffffffffffffffffffffffffffffffffff16908060070160009054906101000a900473ffffffffffffffffffffffffffffffffffffffff16908060070160149054906101000a900460ff16908060070160159054906101000a900460ff1690806008015490806009015490508c565b60007f000000000000000000000000000000000000000000000000000000000000000073ffffffffffffffffffffffffffffffffffffffff163373ffffffffffffffffffffffffffffffffffffffff1614611fa4576040517f08c379a0000000000000000000000000000000000000000000000000000000008152600401611f9b90612e5f565b60405180910390fd5b816000808573ffffffffffffffffffffffffffffffffffffffff1673ffffffffffffffffffffffffffffffffffffffff16815260200190815260200160002060006101000a81548160ff0219169083600381111561202b577f4e487b7100000000000000000000000000000000000000000000000000000000600052602160045260246000fd5b021790555083600460008573ffffffffffffffffffffffffffffffffffffffff1673ffffffffffffffffffffffffffffffffffffffff16815260200190815260200160002090805190602001906120839291906124be565b506000808473ffffffffffffffffffffffffffffffffffffffff1673ffffffffffffffffffffffffffffffffffffffff16815260200190815260200160002060009054906101000a900460ff1690509392505050565b7f000000000000000000000000000000000000000000000000000000000000000081565b60008160008111801561211257506006548111155b612151576040517f08c379a000000000000000000000000000000000000000000000000000000000815260040161214890612d3f565b60405180910390fd5b600015156003600085815260200190815260200160002060009054906101000a900460ff161515146121b8576040517f08c379a00000000000000000000000000000000000000000000000000000000081526004016121af90612ddf565b60405180910390fd5b6000600160008581526020019081526020016000209050600115158160070160159054906101000a900460ff16151514156124b25760016003600086815260200190815260200160002060006101000a81548160ff0219169083151502179055508060060160009054906101000a900473ffffffffffffffffffffffffffffffffffffffff1673ffffffffffffffffffffffffffffffffffffffff166108fc82600501549081150290604051600060405180830381858888f19350505050158015612287573d6000803e3d6000fd5b508060010160009054906101000a900473ffffffffffffffffffffffffffffffffffffffff1673ffffffffffffffffffffffffffffffffffffffff166323b872dd308360070160009054906101000a900473ffffffffffffffffffffffffffffffffffffffff1684600201546040518463ffffffff1660e01b815260040161231193929190612c19565b600060405180830381600087803b15801561232b57600080fd5b505af115801561233f573d6000803e3d6000fd5b5050505060038160070160146101000a81548160ff02191690836004811115612391577f4e487b7100000000000000000000000000000000000000000000000000000000600052602160045260246000fd5b02179055508060070160009054906101000a900473ffffffffffffffffffffffffffffffffffffffff1673ffffffffffffffffffffffffffffffffffffffff168160060160009054906101000a900473ffffffffffffffffffffffffffffffffffffffff1673ffffffffffffffffffffffffffffffffffffffff168260010160009054906101000a900473ffffffffffffffffffffffffffffffffffffffff1673ffffffffffffffffffffffffffffffffffffffff167fa3ea7b46b7fe41a760d8785f819f2564be5d5c63412a339b9803df8a6ef065ed87856002015486600301548760040188600501548960070160159054906101000a900460ff166040516124a096959493929190613083565b60405180910390a460019250506124b8565b60009250505b50919050565b8280546124ca9061331a565b90600052602060002090601f0160209004810192826124ec5760008555612533565b82601f1061250557805160ff1916838001178555612533565b82800160010185558215612533579182015b82811115612532578251825591602001919060010190612517565b5b5090506125409190612544565b5090565b5b8082111561255d576000816000905550600101612545565b5090565b600061257461256f84613110565b6130eb565b90508281526020810184848401111561258c57600080fd5b6125978482856132d8565b509392505050565b6000813590506125ae816139a3565b92915050565b6000813590506125c3816139ba565b92915050565b6000813590506125d8816139d1565b92915050565b600082601f8301126125ef57600080fd5b81356125ff848260208601612561565b91505092915050565b600081359050612617816139e1565b92915050565b60006020828403121561262f57600080fd5b600061263d8482850161259f565b91505092915050565b600080600080600060a0868803121561265e57600080fd5b600061266c888289016125b4565b955050602061267d88828901612608565b945050604061268e88828901612608565b935050606061269f88828901612608565b925050608086013567ffffffffffffffff8111156126bc57600080fd5b6126c8888289016125de565b9150509295509295909350565b6000806000606084860312156126ea57600080fd5b600084013567ffffffffffffffff81111561270457600080fd5b612710868287016125de565b93505060206127218682870161259f565b9250506040612732868287016125c9565b9150509250925092565b60006020828403121561274e57600080fd5b600061275c84828501612608565b91505092915050565b6000806040838503121561277857600080fd5b600061278685828601612608565b925050602061279785828601612608565b9150509250929050565b6127aa8161325a565b82525050565b6127b9816131da565b82525050565b6127d06127cb826131da565b6133d8565b82525050565b6127df816131c8565b82525050565b6127f66127f1826131c8565b6133c6565b82525050565b612805816131ec565b82525050565b6128148161326c565b82525050565b61282381613290565b82525050565b612832816132a2565b82525050565b600061284382613156565b61284d8185613161565b935061285d8185602086016132e7565b61286681613522565b840191505092915050565b6000815461287e8161331a565b6128888186613161565b945060018216600081146128a357600181146128b5576128e8565b60ff19831686526020860193506128e8565b6128be85613141565b60005b838110156128e0578154818901526001820191506020810190506128c1565b808801955050505b50505092915050565b60006128fe601583613161565b915061290982613540565b602082019050919050565b6000612921601683613161565b915061292c82613569565b602082019050919050565b6000612944601c83613161565b915061294f82613592565b602082019050919050565b6000612967602883613161565b9150612972826135bb565b604082019050919050565b600061298a601783613161565b91506129958261360a565b602082019050919050565b60006129ad601783613161565b91506129b882613633565b602082019050919050565b60006129d0601383613161565b91506129db8261365c565b602082019050919050565b60006129f3602683613161565b91506129fe82613685565b604082019050919050565b6000612a16602683613161565b9150612a21826136d4565b604082019050919050565b6000612a39602583613161565b9150612a4482613723565b604082019050919050565b6000612a5c602c83613161565b9150612a6782613772565b604082019050919050565b6000612a7f602683613161565b9150612a8a826137c1565b604082019050919050565b6000612aa2601783613161565b9150612aad82613810565b602082019050919050565b6000612ac5603483613161565b9150612ad082613839565b604082019050919050565b6000612ae8601683613161565b9150612af382613888565b602082019050919050565b6000612b0b601683613161565b9150612b16826138b1565b602082019050919050565b6000612b2e601683613161565b9150612b39826138da565b602082019050919050565b6000612b51602383613161565b9150612b5c82613903565b604082019050919050565b6000612b74601f83613161565b9150612b7f82613952565b602082019050919050565b612b9381613250565b82525050565b612baa612ba582613250565b6133fc565b82525050565b6000612bbc8287612b99565b602082019150612bcc82866127e5565b601482019150612bdc82856127bf565b601482019150612bec8284612b99565b60208201915081905095945050505050565b6000602082019050612c1360008301846127d6565b92915050565b6000606082019050612c2e60008301866127d6565b612c3b60208301856127a1565b612c486040830184612b8a565b949350505050565b6000606082019050612c6560008301866127d6565b612c7260208301856127d6565b612c7f6040830184612b8a565b949350505050565b6000602082019050612c9c60008301846127fc565b92915050565b6000602082019050612cb76000830184612829565b92915050565b60006020820190508181036000830152612cd78184612838565b905092915050565b60006020820190508181036000830152612cf8816128f1565b9050919050565b60006020820190508181036000830152612d1881612914565b9050919050565b60006020820190508181036000830152612d3881612937565b9050919050565b60006020820190508181036000830152612d588161295a565b9050919050565b60006020820190508181036000830152612d788161297d565b9050919050565b60006020820190508181036000830152612d98816129a0565b9050919050565b60006020820190508181036000830152612db8816129c3565b9050919050565b60006020820190508181036000830152612dd8816129e6565b9050919050565b60006020820190508181036000830152612df881612a09565b9050919050565b60006020820190508181036000830152612e1881612a2c565b9050919050565b60006020820190508181036000830152612e3881612a4f565b9050919050565b60006020820190508181036000830152612e5881612a72565b9050919050565b60006020820190508181036000830152612e7881612a95565b9050919050565b60006020820190508181036000830152612e9881612ab8565b9050919050565b60006020820190508181036000830152612eb881612adb565b9050919050565b60006020820190508181036000830152612ed881612afe565b9050919050565b60006020820190508181036000830152612ef881612b21565b9050919050565b60006020820190508181036000830152612f1881612b44565b9050919050565b60006020820190508181036000830152612f3881612b67565b9050919050565b6000602082019050612f546000830184612b8a565b92915050565b600061018082019050612f70600083018f612b8a565b612f7d602083018e61280b565b612f8a604083018d612b8a565b612f97606083018c612b8a565b8181036080830152612fa9818b612838565b9050612fb860a083018a612b8a565b612fc560c08301896127b0565b612fd260e08301886127b0565b612fe061010083018761281a565b612fee6101208301866127fc565b612ffc610140830185612b8a565b61300a610160830184612b8a565b9d9c50505050505050505050505050565b600060c0820190506130306000830189612b8a565b61303d6020830188612b8a565b61304a6040830187612b8a565b818103606083015261305c8186612838565b905061306b6080830185612b8a565b61307860a083018461281a565b979650505050505050565b600060c0820190506130986000830189612b8a565b6130a56020830188612b8a565b6130b26040830187612b8a565b81810360608301526130c48186612871565b90506130d36080830185612b8a565b6130e060a08301846127fc565b979650505050505050565b60006130f5613106565b9050613101828261334c565b919050565b6000604051905090565b600067ffffffffffffffff82111561312b5761312a6134f3565b5b61313482613522565b9050602081019050919050565b60008190508160005260206000209050919050565b600081519050919050565b600082825260208201905092915050565b600061317d82613250565b915061318883613250565b9250827fffffffffffffffffffffffffffffffffffffffffffffffffffffffffffffffff038211156131bd576131bc613437565b5b828201905092915050565b60006131d382613230565b9050919050565b60006131e582613230565b9050919050565b60008115159050919050565b6000613203826131c8565b9050919050565b60008190506132188261397b565b919050565b600081905061322b8261398f565b919050565b600073ffffffffffffffffffffffffffffffffffffffff82169050919050565b6000819050919050565b6000613265826132b4565b9050919050565b60006132778261327e565b9050919050565b600061328982613230565b9050919050565b600061329b8261320a565b9050919050565b60006132ad8261321d565b9050919050565b60006132bf826132c6565b9050919050565b60006132d182613230565b9050919050565b82818337600083830152505050565b60005b838110156133055780820151818401526020810190506132ea565b83811115613314576000848401525b50505050565b6000600282049050600182168061333257607f821691505b60208210811415613346576133456134c4565b5b50919050565b61335582613522565b810181811067ffffffffffffffff82111715613374576133736134f3565b5b80604052505050565b600061338882613250565b91507fffffffffffffffffffffffffffffffffffffffffffffffffffffffffffffffff8214156133bb576133ba613437565b5b600182019050919050565b60006133d1826133ea565b9050919050565b60006133e3826133ea565b9050919050565b60006133f582613533565b9050919050565b6000819050919050565b600061341182613250565b915061341c83613250565b92508261342c5761342b613466565b5b828206905092915050565b7f4e487b7100000000000000000000000000000000000000000000000000000000600052601160045260246000fd5b7f4e487b7100000000000000000000000000000000000000000000000000000000600052601260045260246000fd5b7f4e487b7100000000000000000000000000000000000000000000000000000000600052602160045260246000fd5b7f4e487b7100000000000000000000000000000000000000000000000000000000600052602260045260246000fd5b7f4e487b7100000000000000000000000000000000000000000000000000000000600052604160045260246000fd5b6000601f19601f8301169050919050565b60008160601b9050919050565b7f5468617473206e6f7420636f7272656374206b65790000000000000000000000600082015250565b7f54686973206974656d206973206e6f7420796f75727300000000000000000000600082015250565b7f506c656173652046696c6c2074686520416d6f756e7420547970652e00000000600082015250565b7f5468657265206973206e6f2073756368206974656d2e20284c697374696e674960008201527f442077726f6e6729000000000000000000000000000000000000000000000000602082015250565b7f50726f64756374206973206e6f7420706173736976652e000000000000000000600082015250565b7f596f752063616e277420627579206f776e206974656d73000000000000000000600082015250565b7f42757965722061646472657373206572726f7200000000000000000000000000600082015250565b7f596f7520617265206e6f7420617574686f72697a6564206f6e2074686973207060008201527f726f647563740000000000000000000000000000000000000000000000000000602082015250565b7f54686973206f726465722068617320616c7265616479206265656e20636f6d7060008201527f6c657465642e0000000000000000000000000000000000000000000000000000602082015250565b7f50726f64756374206973206e6f742061637469766520666f722073656c6c696e60008201527f67206e6f77000000000000000000000000000000000000000000000000000000602082015250565b7f596f7520646f6e2774206861766520656e6f756768206d6f6e657920666f722060008201527f746865736520627579696e670000000000000000000000000000000000000000602082015250565b7f507269636520616e6420616d6f756e74206d757374206265206269676765722060008201527f7468616e20300000000000000000000000000000000000000000000000000000602082015250565b7f596f7520617265206e6f7420617574686f72697a656420000000000000000000600082015250565b7f596f7520617265206e6f7420617574686f72697a656420746f2075736520637260008201527f656174654c697374696e672066756e6374696f6e000000000000000000000000602082015250565b7f50726f64756374206973206e6f74206163746976652e00000000000000000000600082015250565b7f596f7520617265206e6f7420417574686f72697a656400000000000000000000600082015250565b7f54686973206974656d20616c726561647920736f6c6400000000000000000000600082015250565b7f54686973206974656d206861732074696d6520746f2062652064656c6976657260008201527f65642e0000000000000000000000000000000000000000000000000000000000602082015250565b7f796f7520617265206e6f74206275796572206f662074686973206974656d2e00600082015250565b6005811061398c5761398b613495565b5b50565b600481106139a05761399f613495565b5b50565b6139ac816131c8565b81146139b757600080fd5b50565b6139c3816131f8565b81146139ce57600080fd5b50565b600481106139de57600080fd5b50565b6139ea81613250565b81146139f557600080fd5b5056fea26469706673582212201b0ba815c2661179101fbf007b63559440aab3449e1a8d4d676738b246b035a864736f6c63430008040033",
  "linkReferences": {},
  "deployedLinkReferences": {}
}