{
  "_format": "hh-sol-artifact-1",
  "contractName": "Bazaar",
  "sourceName": "src/backend/contracts/Bazaar.sol",
  "abi": [
    {
      "inputs": [],
      "stateMutability": "nonpayable",
      "type": "constructor"
    },
    {
      "anonymous": false,
      "inputs": [
        {
          "indexed": false,
          "internalType": "uint256",
          "name": "listingID",
          "type": "uint256"
        },
        {
          "indexed": true,
          "internalType": "address",
          "name": "product",
          "type": "address"
        },
        {
          "indexed": false,
          "internalType": "uint256",
          "name": "ProductID",
          "type": "uint256"
        },
        {
          "indexed": false,
          "internalType": "uint256",
          "name": "amount",
          "type": "uint256"
        },
        {
          "indexed": false,
          "internalType": "string",
          "name": "amountType",
          "type": "string"
        },
        {
          "indexed": false,
          "internalType": "uint256",
          "name": "price",
          "type": "uint256"
        },
        {
          "indexed": true,
          "internalType": "address",
          "name": "producer",
          "type": "address"
        },
        {
          "indexed": false,
          "internalType": "bool",
          "name": "active",
          "type": "bool"
        }
      ],
      "name": "Listing",
      "type": "event"
    },
    {
      "anonymous": false,
      "inputs": [
        {
          "indexed": false,
          "internalType": "uint256",
          "name": "listingID",
          "type": "uint256"
        },
        {
          "indexed": true,
          "internalType": "address",
          "name": "product",
          "type": "address"
        },
        {
          "indexed": false,
          "internalType": "uint256",
          "name": "ProductID",
          "type": "uint256"
        },
        {
          "indexed": false,
          "internalType": "uint256",
          "name": "amount",
          "type": "uint256"
        },
        {
          "indexed": false,
          "internalType": "string",
          "name": "amountType",
          "type": "string"
        },
        {
          "indexed": false,
          "internalType": "uint256",
          "name": "price",
          "type": "uint256"
        },
        {
          "indexed": true,
          "internalType": "address",
          "name": "producer",
          "type": "address"
        },
        {
          "indexed": true,
          "internalType": "address",
          "name": "buyer",
          "type": "address"
        },
        {
          "indexed": false,
          "internalType": "bool",
          "name": "producerConf",
          "type": "bool"
        },
        {
          "indexed": false,
          "internalType": "bool",
          "name": "buyerConf",
          "type": "bool"
        }
      ],
      "name": "sold",
      "type": "event"
    },
    {
      "inputs": [
        {
          "internalType": "address",
          "name": "",
          "type": "address"
        }
      ],
      "name": "AuthList",
      "outputs": [
        {
          "internalType": "enum Bazaar.Auth",
          "name": "",
          "type": "uint8"
        }
      ],
      "stateMutability": "view",
      "type": "function"
    },
    {
      "inputs": [
        {
          "internalType": "address",
          "name": "",
          "type": "address"
        }
      ],
      "name": "AuthName",
      "outputs": [
        {
          "internalType": "string",
          "name": "",
          "type": "string"
        }
      ],
      "stateMutability": "view",
      "type": "function"
    },
    {
      "inputs": [],
      "name": "BazaarCount",
      "outputs": [
        {
          "internalType": "uint256",
          "name": "",
          "type": "uint256"
        }
      ],
      "stateMutability": "view",
      "type": "function"
    },
    {
      "inputs": [
        {
          "internalType": "uint256",
          "name": "",
          "type": "uint256"
        }
      ],
      "name": "BazaarList",
      "outputs": [
        {
          "internalType": "uint256",
          "name": "listingID",
          "type": "uint256"
        },
        {
          "internalType": "contract IERC721",
          "name": "product",
          "type": "address"
        },
        {
          "internalType": "uint256",
          "name": "ProductID",
          "type": "uint256"
        },
        {
          "internalType": "uint256",
          "name": "amount",
          "type": "uint256"
        },
        {
          "internalType": "string",
          "name": "amountType",
          "type": "string"
        },
        {
          "internalType": "uint256",
          "name": "price",
          "type": "uint256"
        },
        {
          "internalType": "address payable",
          "name": "producer",
          "type": "address"
        },
        {
          "internalType": "address payable",
          "name": "buyer",
          "type": "address"
        },
        {
          "internalType": "bool",
          "name": "active",
          "type": "bool"
        },
        {
          "internalType": "bool",
          "name": "producerConf",
          "type": "bool"
        },
        {
          "internalType": "bool",
          "name": "buyerConf",
          "type": "bool"
        }
      ],
      "stateMutability": "view",
      "type": "function"
    },
    {
      "inputs": [
        {
          "internalType": "uint256",
          "name": "",
          "type": "uint256"
        }
      ],
      "name": "Locked",
      "outputs": [
        {
          "internalType": "bool",
          "name": "",
          "type": "bool"
        }
      ],
      "stateMutability": "view",
      "type": "function"
    },
    {
      "inputs": [
        {
          "internalType": "uint256",
          "name": "",
          "type": "uint256"
        }
      ],
      "name": "PaymentTrack",
      "outputs": [
        {
          "internalType": "bool",
          "name": "",
          "type": "bool"
        }
      ],
      "stateMutability": "view",
      "type": "function"
    },
    {
      "inputs": [],
      "name": "admin",
      "outputs": [
        {
          "internalType": "address",
          "name": "",
          "type": "address"
        }
      ],
      "stateMutability": "view",
      "type": "function"
    },
    {
      "inputs": [
        {
          "internalType": "uint256",
          "name": "_listingID",
          "type": "uint256"
        }
      ],
      "name": "confirmBuyer",
      "outputs": [
        {
          "internalType": "bool",
          "name": "",
          "type": "bool"
        }
      ],
      "stateMutability": "nonpayable",
      "type": "function"
    },
    {
      "inputs": [
        {
          "internalType": "uint256",
          "name": "_listingID",
          "type": "uint256"
        }
      ],
      "name": "confirmProducer",
      "outputs": [
        {
          "internalType": "bool",
          "name": "",
          "type": "bool"
        }
      ],
      "stateMutability": "nonpayable",
      "type": "function"
    },
    {
      "inputs": [
        {
          "internalType": "contract IERC721",
          "name": "_product",
          "type": "address"
        },
        {
          "internalType": "uint256",
          "name": "_productID",
          "type": "uint256"
        },
        {
          "internalType": "uint256",
          "name": "_price",
          "type": "uint256"
        },
        {
          "internalType": "uint256",
          "name": "_amount",
          "type": "uint256"
        },
        {
          "internalType": "string",
          "name": "_amountType",
          "type": "string"
        }
      ],
      "name": "createListing",
      "outputs": [],
      "stateMutability": "nonpayable",
      "type": "function"
    },
    {
      "inputs": [
        {
          "internalType": "string",
          "name": "name",
          "type": "string"
        },
        {
          "internalType": "address",
          "name": "ad",
          "type": "address"
        },
        {
          "internalType": "enum Bazaar.Auth",
          "name": "aut",
          "type": "uint8"
        }
      ],
      "name": "giveAuth",
      "outputs": [
        {
          "internalType": "enum Bazaar.Auth",
          "name": "",
          "type": "uint8"
        }
      ],
      "stateMutability": "nonpayable",
      "type": "function"
    },
    {
      "inputs": [
        {
          "internalType": "uint256",
          "name": "_listingID",
          "type": "uint256"
        }
      ],
      "name": "purchaseBazaarItem",
      "outputs": [],
      "stateMutability": "payable",
      "type": "function"
    }
  ],
  "bytecode": "0x60a06040523480156200001157600080fd5b503373ffffffffffffffffffffffffffffffffffffffff1660808173ffffffffffffffffffffffffffffffffffffffff1660601b8152505060036000803373ffffffffffffffffffffffffffffffffffffffff1673ffffffffffffffffffffffffffffffffffffffff16815260200190815260200160002060006101000a81548160ff02191690836003811115620000d2577f4e487b7100000000000000000000000000000000000000000000000000000000600052602160045260246000fd5b02179055506040518060400160405280600581526020017f41646d696e000000000000000000000000000000000000000000000000000000815250600460003373ffffffffffffffffffffffffffffffffffffffff1673ffffffffffffffffffffffffffffffffffffffff16815260200190815260200160002090805190602001906200016192919062000168565b506200027d565b828054620001769062000218565b90600052602060002090601f0160209004810192826200019a5760008555620001e6565b82601f10620001b557805160ff1916838001178555620001e6565b82800160010185558215620001e6579182015b82811115620001e5578251825591602001919060010190620001c8565b5b509050620001f59190620001f9565b5090565b5b8082111562000214576000816000905550600101620001fa565b5090565b600060028204905060018216806200023157607f821691505b602082108114156200024857620002476200024e565b5b50919050565b7f4e487b7100000000000000000000000000000000000000000000000000000000600052602260045260246000fd5b60805160601c61275e620002a3600039600081816112550152611418015261275e6000f3fe6080604052600436106100a75760003560e01c80638da4e818116100645780638da4e818146101f457806391d61a0214610231578063a25c44f81461024d578063a5c4ba1114610294578063d6c10621146102d1578063f851a4401461030e576100a7565b8063032bc66b146100ac5780634d38bb39146100e95780636f78d9e3146101125780637589099c1461014f57806376e66aee1461018c5780638a5fbf1e146101c9575b600080fd5b3480156100b857600080fd5b506100d360048036038101906100ce9190611935565b610339565b6040516100e09190611cd0565b60405180910390f35b3480156100f557600080fd5b50610110600480360381019061010b919061183f565b610359565b005b34801561011e57600080fd5b5061013960048036038101906101349190611935565b610911565b6040516101469190611cd0565b60405180910390f35b34801561015b57600080fd5b5061017660048036038101906101719190611816565b610931565b6040516101839190611d06565b60405180910390f35b34801561019857600080fd5b506101b360048036038101906101ae9190611816565b6109d1565b6040516101c09190611ceb565b60405180910390f35b3480156101d557600080fd5b506101de6109f1565b6040516101eb9190611ec8565b60405180910390f35b34801561020057600080fd5b5061021b60048036038101906102169190611935565b6109f7565b6040516102289190611cd0565b60405180910390f35b61024b60048036038101906102469190611935565b610b23565b005b34801561025957600080fd5b50610274600480360381019061026f9190611935565b610f28565b60405161028b9b9a99989796959493929190611ee3565b60405180910390f35b3480156102a057600080fd5b506102bb60048036038101906102b69190611935565b611091565b6040516102c89190611cd0565b60405180910390f35b3480156102dd57600080fd5b506102f860048036038101906102f391906118ce565b611251565b6040516103059190611ceb565b60405180910390f35b34801561031a57600080fd5b50610323611416565b6040516103309190611c47565b60405180910390f35b60026020528060005260406000206000915054906101000a900460ff1681565b83600015156002600083815260200190815260200160002060009054906101000a900460ff1615151461038b57600080fd5b600160038111156103c5577f4e487b7100000000000000000000000000000000000000000000000000000000600052602160045260246000fd5b6000803373ffffffffffffffffffffffffffffffffffffffff1673ffffffffffffffffffffffffffffffffffffffff16815260200190815260200160002060009054906101000a900460ff166003811115610449577f4e487b7100000000000000000000000000000000000000000000000000000000600052602160045260246000fd5b148061050f5750600380811115610489577f4e487b7100000000000000000000000000000000000000000000000000000000600052602160045260246000fd5b6000803373ffffffffffffffffffffffffffffffffffffffff1673ffffffffffffffffffffffffffffffffffffffff16815260200190815260200160002060009054906101000a900460ff16600381111561050d577f4e487b7100000000000000000000000000000000000000000000000000000000600052602160045260246000fd5b145b61054e576040517f08c379a000000000000000000000000000000000000000000000000000000000815260040161054590611e68565b60405180910390fd5b60008411801561055e5750600083115b61059d576040517f08c379a000000000000000000000000000000000000000000000000000000000815260040161059490611e28565b60405180910390fd5b60008251116105e1576040517f08c379a00000000000000000000000000000000000000000000000000000000081526004016105d890611d48565b60405180910390fd5b600560008154809291906105f49061228a565b91905055508573ffffffffffffffffffffffffffffffffffffffff166323b872dd3330886040518463ffffffff1660e01b815260040161063693929190611c99565b600060405180830381600087803b15801561065057600080fd5b505af1158015610664573d6000803e3d6000fd5b5050505060405180610160016040528060055481526020018773ffffffffffffffffffffffffffffffffffffffff1681526020018681526020018481526020018381526020018581526020013373ffffffffffffffffffffffffffffffffffffffff168152602001600073ffffffffffffffffffffffffffffffffffffffff168152602001600115158152602001600015158152602001600015158152506001600060055481526020019081526020016000206000820151816000015560208201518160010160006101000a81548173ffffffffffffffffffffffffffffffffffffffff021916908373ffffffffffffffffffffffffffffffffffffffff160217905550604082015181600201556060820151816003015560808201518160040190805190602001906107989291906116b7565b5060a0820151816005015560c08201518160060160006101000a81548173ffffffffffffffffffffffffffffffffffffffff021916908373ffffffffffffffffffffffffffffffffffffffff16021790555060e08201518160070160006101000a81548173ffffffffffffffffffffffffffffffffffffffff021916908373ffffffffffffffffffffffffffffffffffffffff1602179055506101008201518160070160146101000a81548160ff0219169083151502179055506101208201518160070160156101000a81548160ff0219169083151502179055506101408201518160070160166101000a81548160ff0219169083151502179055509050503373ffffffffffffffffffffffffffffffffffffffff168673ffffffffffffffffffffffffffffffffffffffff167f578d13a7a72bbe39bbb7c413e92f2cbb3cc4f088cda7c524ae5b50eebd690ce96005548887878a600160405161090196959493929190611f95565b60405180910390a3505050505050565b60036020528060005260406000206000915054906101000a900460ff1681565b6004602052806000526040600020600091509050805461095090612227565b80601f016020809104026020016040519081016040528092919081815260200182805461097c90612227565b80156109c95780601f1061099e576101008083540402835291602001916109c9565b820191906000526020600020905b8154815290600101906020018083116109ac57829003601f168201915b505050505081565b60006020528060005260406000206000915054906101000a900460ff1681565b60055481565b600081600081118015610a0c57506005548111155b610a4b576040517f08c379a0000000000000000000000000000000000000000000000000000000008152600401610a4290611d68565b60405180910390fd5b60006001600085815260200190815260200160002090508060060160009054906101000a900473ffffffffffffffffffffffffffffffffffffffff1673ffffffffffffffffffffffffffffffffffffffff163373ffffffffffffffffffffffffffffffffffffffff1614610af4576040517f08c379a0000000000000000000000000000000000000000000000000000000008152600401610aeb90611d28565b60405180910390fd5b60018160070160156101000a81548160ff021916908315150217905550610b1a8461143a565b92505050919050565b80600081118015610b3657506005548111155b610b75576040517f08c379a0000000000000000000000000000000000000000000000000000000008152600401610b6c90611d68565b60405180910390fd5b6000600160008481526020019081526020016000209050600073ffffffffffffffffffffffffffffffffffffffff168160070160009054906101000a900473ffffffffffffffffffffffffffffffffffffffff1673ffffffffffffffffffffffffffffffffffffffff1614610c1f576040517f08c379a0000000000000000000000000000000000000000000000000000000008152600401610c1690611e88565b60405180910390fd5b8060060160009054906101000a900473ffffffffffffffffffffffffffffffffffffffff1673ffffffffffffffffffffffffffffffffffffffff168160070160009054906101000a900473ffffffffffffffffffffffffffffffffffffffff1673ffffffffffffffffffffffffffffffffffffffff161415610cd6576040517f08c379a0000000000000000000000000000000000000000000000000000000008152600401610ccd90611d88565b60405180910390fd5b8060050154341015610d1d576040517f08c379a0000000000000000000000000000000000000000000000000000000008152600401610d1490611e08565b60405180910390fd5b8060070160149054906101000a900460ff16610d6e576040517f08c379a0000000000000000000000000000000000000000000000000000000008152600401610d6590611de8565b60405180910390fd5b6001600260008360020154815260200190815260200160002060006101000a81548160ff021916908315150217905550338160070160006101000a81548173ffffffffffffffffffffffffffffffffffffffff021916908373ffffffffffffffffffffffffffffffffffffffff16021790555060008160070160146101000a81548160ff0219169083151502179055508060070160009054906101000a900473ffffffffffffffffffffffffffffffffffffffff1673ffffffffffffffffffffffffffffffffffffffff168160060160009054906101000a900473ffffffffffffffffffffffffffffffffffffffff1673ffffffffffffffffffffffffffffffffffffffff168260010160009054906101000a900473ffffffffffffffffffffffffffffffffffffffff1673ffffffffffffffffffffffffffffffffffffffff167f0fee20f77df1f2d09fcc08980c11440ccbf8d15068ee60e3b26d84ada0aaa03986856002015486600301548760040188600501548960070160159054906101000a900460ff168a60070160169054906101000a900460ff16604051610f1b9796959493929190611ffd565b60405180910390a4505050565b60016020528060005260406000206000915090508060000154908060010160009054906101000a900473ffffffffffffffffffffffffffffffffffffffff1690806002015490806003015490806004018054610f8390612227565b80601f0160208091040260200160405190810160405280929190818152602001828054610faf90612227565b8015610ffc5780601f10610fd157610100808354040283529160200191610ffc565b820191906000526020600020905b815481529060010190602001808311610fdf57829003601f168201915b5050505050908060050154908060060160009054906101000a900473ffffffffffffffffffffffffffffffffffffffff16908060070160009054906101000a900473ffffffffffffffffffffffffffffffffffffffff16908060070160149054906101000a900460ff16908060070160159054906101000a900460ff16908060070160169054906101000a900460ff1690508b565b6000816000811180156110a657506005548111155b6110e5576040517f08c379a00000000000000000000000000000000000000000000000000000000081526004016110dc90611d68565b60405180910390fd5b6000600160008581526020019081526020016000209050600073ffffffffffffffffffffffffffffffffffffffff168160070160009054906101000a900473ffffffffffffffffffffffffffffffffffffffff1673ffffffffffffffffffffffffffffffffffffffff161415611190576040517f08c379a000000000000000000000000000000000000000000000000000000000815260040161118790611da8565b60405180910390fd5b8060070160009054906101000a900473ffffffffffffffffffffffffffffffffffffffff1673ffffffffffffffffffffffffffffffffffffffff163373ffffffffffffffffffffffffffffffffffffffff1614611222576040517f08c379a000000000000000000000000000000000000000000000000000000000815260040161121990611ea8565b60405180910390fd5b60018160070160166101000a81548160ff0219169083151502179055506112488461143a565b92505050919050565b60007f000000000000000000000000000000000000000000000000000000000000000073ffffffffffffffffffffffffffffffffffffffff163373ffffffffffffffffffffffffffffffffffffffff16146112e1576040517f08c379a00000000000000000000000000000000000000000000000000000000081526004016112d890611e48565b60405180910390fd5b816000808573ffffffffffffffffffffffffffffffffffffffff1673ffffffffffffffffffffffffffffffffffffffff16815260200190815260200160002060006101000a81548160ff02191690836003811115611368577f4e487b7100000000000000000000000000000000000000000000000000000000600052602160045260246000fd5b021790555083600460008573ffffffffffffffffffffffffffffffffffffffff1673ffffffffffffffffffffffffffffffffffffffff16815260200190815260200160002090805190602001906113c09291906116b7565b506000808473ffffffffffffffffffffffffffffffffffffffff1673ffffffffffffffffffffffffffffffffffffffff16815260200190815260200160002060009054906101000a900460ff1690509392505050565b7f000000000000000000000000000000000000000000000000000000000000000081565b60008160008111801561144f57506005548111155b61148e576040517f08c379a000000000000000000000000000000000000000000000000000000000815260040161148590611d68565b60405180910390fd5b600015156003600085815260200190815260200160002060009054906101000a900460ff161515146114f5576040517f08c379a00000000000000000000000000000000000000000000000000000000081526004016114ec90611dc8565b60405180910390fd5b6000600160008581526020019081526020016000209050600115158160070160159054906101000a900460ff1615151480156115465750600115158160070160169054906101000a900460ff161515145b156116ab5760016003600086815260200190815260200160002060006101000a81548160ff0219169083151502179055508060060160009054906101000a900473ffffffffffffffffffffffffffffffffffffffff1673ffffffffffffffffffffffffffffffffffffffff166108fc82600501549081150290604051600060405180830381858888f193505050501580156115e5573d6000803e3d6000fd5b508060010160009054906101000a900473ffffffffffffffffffffffffffffffffffffffff1673ffffffffffffffffffffffffffffffffffffffff166323b872dd308360070160009054906101000a900473ffffffffffffffffffffffffffffffffffffffff1684600201546040518463ffffffff1660e01b815260040161166f93929190611c62565b600060405180830381600087803b15801561168957600080fd5b505af115801561169d573d6000803e3d6000fd5b5050505060019250506116b1565b60009250505b50919050565b8280546116c390612227565b90600052602060002090601f0160209004810192826116e5576000855561172c565b82601f106116fe57805160ff191683800117855561172c565b8280016001018555821561172c579182015b8281111561172b578251825591602001919060010190611710565b5b509050611739919061173d565b5090565b5b8082111561175657600081600090555060010161173e565b5090565b600061176d61176884612098565b612073565b90508281526020810184848401111561178557600080fd5b6117908482856121e5565b509392505050565b6000813590506117a7816126d3565b92915050565b6000813590506117bc816126ea565b92915050565b6000813590506117d181612701565b92915050565b600082601f8301126117e857600080fd5b81356117f884826020860161175a565b91505092915050565b60008135905061181081612711565b92915050565b60006020828403121561182857600080fd5b600061183684828501611798565b91505092915050565b600080600080600060a0868803121561185757600080fd5b6000611865888289016117ad565b955050602061187688828901611801565b945050604061188788828901611801565b935050606061189888828901611801565b925050608086013567ffffffffffffffff8111156118b557600080fd5b6118c1888289016117d7565b9150509295509295909350565b6000806000606084860312156118e357600080fd5b600084013567ffffffffffffffff8111156118fd57600080fd5b611909868287016117d7565b935050602061191a86828701611798565b925050604061192b868287016117c2565b9150509250925092565b60006020828403121561194757600080fd5b600061195584828501611801565b91505092915050565b61196781612179565b82525050565b6119768161210c565b82525050565b611985816120fa565b82525050565b6119948161211e565b82525050565b6119a38161218b565b82525050565b6119b2816121af565b82525050565b60006119c3826120de565b6119cd81856120e9565b93506119dd8185602086016121f4565b6119e68161238f565b840191505092915050565b600081546119fe81612227565b611a0881866120e9565b94506001821660008114611a235760018114611a3557611a68565b60ff1983168652602086019350611a68565b611a3e856120c9565b60005b83811015611a6057815481890152600182019150602081019050611a41565b808801955050505b50505092915050565b6000611a7e6022836120e9565b9150611a89826123a0565b604082019050919050565b6000611aa1601c836120e9565b9150611aac826123ef565b602082019050919050565b6000611ac46028836120e9565b9150611acf82612418565b604082019050919050565b6000611ae76017836120e9565b9150611af282612467565b602082019050919050565b6000611b0a6013836120e9565b9150611b1582612490565b602082019050919050565b6000611b2d6026836120e9565b9150611b38826124b9565b604082019050919050565b6000611b506025836120e9565b9150611b5b82612508565b604082019050919050565b6000611b73602c836120e9565b9150611b7e82612557565b604082019050919050565b6000611b966026836120e9565b9150611ba1826125a6565b604082019050919050565b6000611bb96017836120e9565b9150611bc4826125f5565b602082019050919050565b6000611bdc6034836120e9565b9150611be78261261e565b604082019050919050565b6000611bff6016836120e9565b9150611c0a8261266d565b602082019050919050565b6000611c22601f836120e9565b9150611c2d82612696565b602082019050919050565b611c418161216f565b82525050565b6000602082019050611c5c600083018461197c565b92915050565b6000606082019050611c77600083018661197c565b611c84602083018561195e565b611c916040830184611c38565b949350505050565b6000606082019050611cae600083018661197c565b611cbb602083018561197c565b611cc86040830184611c38565b949350505050565b6000602082019050611ce5600083018461198b565b92915050565b6000602082019050611d0060008301846119a9565b92915050565b60006020820190508181036000830152611d2081846119b8565b905092915050565b60006020820190508181036000830152611d4181611a71565b9050919050565b60006020820190508181036000830152611d6181611a94565b9050919050565b60006020820190508181036000830152611d8181611ab7565b9050919050565b60006020820190508181036000830152611da181611ada565b9050919050565b60006020820190508181036000830152611dc181611afd565b9050919050565b60006020820190508181036000830152611de181611b20565b9050919050565b60006020820190508181036000830152611e0181611b43565b9050919050565b60006020820190508181036000830152611e2181611b66565b9050919050565b60006020820190508181036000830152611e4181611b89565b9050919050565b60006020820190508181036000830152611e6181611bac565b9050919050565b60006020820190508181036000830152611e8181611bcf565b9050919050565b60006020820190508181036000830152611ea181611bf2565b9050919050565b60006020820190508181036000830152611ec181611c15565b9050919050565b6000602082019050611edd6000830184611c38565b92915050565b600061016082019050611ef9600083018e611c38565b611f06602083018d61199a565b611f13604083018c611c38565b611f20606083018b611c38565b8181036080830152611f32818a6119b8565b9050611f4160a0830189611c38565b611f4e60c083018861196d565b611f5b60e083018761196d565b611f6961010083018661198b565b611f7761012083018561198b565b611f8561014083018461198b565b9c9b505050505050505050505050565b600060c082019050611faa6000830189611c38565b611fb76020830188611c38565b611fc46040830187611c38565b8181036060830152611fd681866119b8565b9050611fe56080830185611c38565b611ff260a083018461198b565b979650505050505050565b600060e082019050612012600083018a611c38565b61201f6020830189611c38565b61202c6040830188611c38565b818103606083015261203e81876119f1565b905061204d6080830186611c38565b61205a60a083018561198b565b61206760c083018461198b565b98975050505050505050565b600061207d61208e565b90506120898282612259565b919050565b6000604051905090565b600067ffffffffffffffff8211156120b3576120b2612360565b5b6120bc8261238f565b9050602081019050919050565b60008190508160005260206000209050919050565b600081519050919050565b600082825260208201905092915050565b60006121058261214f565b9050919050565b60006121178261214f565b9050919050565b60008115159050919050565b6000612135826120fa565b9050919050565b600081905061214a826126bf565b919050565b600073ffffffffffffffffffffffffffffffffffffffff82169050919050565b6000819050919050565b6000612184826121c1565b9050919050565b60006121968261219d565b9050919050565b60006121a88261214f565b9050919050565b60006121ba8261213c565b9050919050565b60006121cc826121d3565b9050919050565b60006121de8261214f565b9050919050565b82818337600083830152505050565b60005b838110156122125780820151818401526020810190506121f7565b83811115612221576000848401525b50505050565b6000600282049050600182168061223f57607f821691505b6020821081141561225357612252612331565b5b50919050565b6122628261238f565b810181811067ffffffffffffffff8211171561228157612280612360565b5b80604052505050565b60006122958261216f565b91507fffffffffffffffffffffffffffffffffffffffffffffffffffffffffffffffff8214156122c8576122c76122d3565b5b600182019050919050565b7f4e487b7100000000000000000000000000000000000000000000000000000000600052601160045260246000fd5b7f4e487b7100000000000000000000000000000000000000000000000000000000600052602160045260246000fd5b7f4e487b7100000000000000000000000000000000000000000000000000000000600052602260045260246000fd5b7f4e487b7100000000000000000000000000000000000000000000000000000000600052604160045260246000fd5b6000601f19601f8301169050919050565b7f796f7520617265206e6f742070726f6475636572206f6620746869732069746560008201527f6d2e000000000000000000000000000000000000000000000000000000000000602082015250565b7f506c656173652046696c6c2074686520416d6f756e7420547970652e00000000600082015250565b7f5468657265206973206e6f2073756368206974656d2e20284c697374696e674960008201527f442077726f6e6729000000000000000000000000000000000000000000000000602082015250565b7f596f752063616e277420627579206f776e206974656d73000000000000000000600082015250565b7f42757965722061646472657373206572726f7200000000000000000000000000600082015250565b7f54686973206f726465722068617320616c7265616479206265656e20636f6d7060008201527f6c657465642e0000000000000000000000000000000000000000000000000000602082015250565b7f50726f64756374206973206e6f742061637469766520666f722073656c6c696e60008201527f67206e6f77000000000000000000000000000000000000000000000000000000602082015250565b7f596f7520646f6e2774206861766520656e6f756768206d6f6e657920666f722060008201527f746865736520627579696e670000000000000000000000000000000000000000602082015250565b7f507269636520616e6420616d6f756e74206d757374206265206269676765722060008201527f7468616e20300000000000000000000000000000000000000000000000000000602082015250565b7f596f7520617265206e6f7420617574686f72697a656420000000000000000000600082015250565b7f596f7520617265206e6f7420617574686f72697a656420746f2075736520637260008201527f656174654c697374696e672066756e6374696f6e000000000000000000000000602082015250565b7f54686973206974656d20616c726561647920736f6c6400000000000000000000600082015250565b7f796f7520617265206e6f74206275796572206f662074686973206974656d2e00600082015250565b600481106126d0576126cf612302565b5b50565b6126dc816120fa565b81146126e757600080fd5b50565b6126f38161212a565b81146126fe57600080fd5b50565b6004811061270e57600080fd5b50565b61271a8161216f565b811461272557600080fd5b5056fea2646970667358221220320d998e0c16bfdf049ba52e4dabdc05269edffe8fbe96f91c4fee1d5711108a64736f6c63430008040033",
  "linkReferences": {},
  "deployedLinkReferences": {}
}