{
  "_format": "hh-sol-artifact-1",
  "contractName": "Bazaar",
  "sourceName": "src/backend/contracts/Bazaar.sol",
  "abi": [
    {
      "inputs": [],
      "stateMutability": "nonpayable",
      "type": "constructor"
    },
    {
      "anonymous": false,
      "inputs": [
        {
          "indexed": false,
          "internalType": "uint256",
          "name": "listingID",
          "type": "uint256"
        },
        {
          "indexed": true,
          "internalType": "address",
          "name": "product",
          "type": "address"
        },
        {
          "indexed": false,
          "internalType": "uint256",
          "name": "ProductID",
          "type": "uint256"
        },
        {
          "indexed": false,
          "internalType": "uint256",
          "name": "amount",
          "type": "uint256"
        },
        {
          "indexed": false,
          "internalType": "string",
          "name": "amountType",
          "type": "string"
        },
        {
          "indexed": false,
          "internalType": "uint256",
          "name": "price",
          "type": "uint256"
        },
        {
          "indexed": true,
          "internalType": "address",
          "name": "producer",
          "type": "address"
        },
        {
          "indexed": false,
          "internalType": "bool",
          "name": "active",
          "type": "bool"
        }
      ],
      "name": "Listing",
      "type": "event"
    },
    {
      "anonymous": false,
      "inputs": [
        {
          "indexed": false,
          "internalType": "uint256",
          "name": "listingID",
          "type": "uint256"
        },
        {
          "indexed": true,
          "internalType": "address",
          "name": "product",
          "type": "address"
        },
        {
          "indexed": false,
          "internalType": "uint256",
          "name": "ProductID",
          "type": "uint256"
        },
        {
          "indexed": false,
          "internalType": "uint256",
          "name": "amount",
          "type": "uint256"
        },
        {
          "indexed": false,
          "internalType": "string",
          "name": "amountType",
          "type": "string"
        },
        {
          "indexed": false,
          "internalType": "uint256",
          "name": "price",
          "type": "uint256"
        },
        {
          "indexed": true,
          "internalType": "address",
          "name": "producer",
          "type": "address"
        },
        {
          "indexed": true,
          "internalType": "address",
          "name": "buyer",
          "type": "address"
        },
        {
          "indexed": false,
          "internalType": "bool",
          "name": "producerConf",
          "type": "bool"
        },
        {
          "indexed": false,
          "internalType": "bool",
          "name": "buyerConf",
          "type": "bool"
        }
      ],
      "name": "sold",
      "type": "event"
    },
    {
      "inputs": [
        {
          "internalType": "address",
          "name": "",
          "type": "address"
        }
      ],
      "name": "AuthList",
      "outputs": [
        {
          "internalType": "enum Bazaar.Auth",
          "name": "",
          "type": "uint8"
        }
      ],
      "stateMutability": "view",
      "type": "function"
    },
    {
      "inputs": [],
      "name": "BazaarCount",
      "outputs": [
        {
          "internalType": "uint256",
          "name": "",
          "type": "uint256"
        }
      ],
      "stateMutability": "view",
      "type": "function"
    },
    {
      "inputs": [
        {
          "internalType": "uint256",
          "name": "",
          "type": "uint256"
        }
      ],
      "name": "BazaarList",
      "outputs": [
        {
          "internalType": "uint256",
          "name": "listingID",
          "type": "uint256"
        },
        {
          "internalType": "contract IERC721",
          "name": "product",
          "type": "address"
        },
        {
          "internalType": "uint256",
          "name": "ProductID",
          "type": "uint256"
        },
        {
          "internalType": "uint256",
          "name": "amount",
          "type": "uint256"
        },
        {
          "internalType": "string",
          "name": "amountType",
          "type": "string"
        },
        {
          "internalType": "uint256",
          "name": "price",
          "type": "uint256"
        },
        {
          "internalType": "address payable",
          "name": "producer",
          "type": "address"
        },
        {
          "internalType": "address payable",
          "name": "buyer",
          "type": "address"
        },
        {
          "internalType": "bool",
          "name": "active",
          "type": "bool"
        },
        {
          "internalType": "bool",
          "name": "producerConf",
          "type": "bool"
        },
        {
          "internalType": "bool",
          "name": "buyerConf",
          "type": "bool"
        }
      ],
      "stateMutability": "view",
      "type": "function"
    },
    {
      "inputs": [
        {
          "internalType": "uint256",
          "name": "",
          "type": "uint256"
        }
      ],
      "name": "Locked",
      "outputs": [
        {
          "internalType": "bool",
          "name": "",
          "type": "bool"
        }
      ],
      "stateMutability": "view",
      "type": "function"
    },
    {
      "inputs": [
        {
          "internalType": "uint256",
          "name": "",
          "type": "uint256"
        }
      ],
      "name": "PaymentTrack",
      "outputs": [
        {
          "internalType": "bool",
          "name": "",
          "type": "bool"
        }
      ],
      "stateMutability": "view",
      "type": "function"
    },
    {
      "inputs": [],
      "name": "admin",
      "outputs": [
        {
          "internalType": "address",
          "name": "",
          "type": "address"
        }
      ],
      "stateMutability": "view",
      "type": "function"
    },
    {
      "inputs": [
        {
          "internalType": "uint256",
          "name": "_listingID",
          "type": "uint256"
        }
      ],
      "name": "confirmBuyer",
      "outputs": [
        {
          "internalType": "bool",
          "name": "",
          "type": "bool"
        }
      ],
      "stateMutability": "nonpayable",
      "type": "function"
    },
    {
      "inputs": [
        {
          "internalType": "uint256",
          "name": "_listingID",
          "type": "uint256"
        }
      ],
      "name": "confirmProducer",
      "outputs": [
        {
          "internalType": "bool",
          "name": "",
          "type": "bool"
        }
      ],
      "stateMutability": "nonpayable",
      "type": "function"
    },
    {
      "inputs": [
        {
          "internalType": "contract IERC721",
          "name": "_product",
          "type": "address"
        },
        {
          "internalType": "uint256",
          "name": "_productID",
          "type": "uint256"
        },
        {
          "internalType": "uint256",
          "name": "_price",
          "type": "uint256"
        },
        {
          "internalType": "uint256",
          "name": "_amount",
          "type": "uint256"
        },
        {
          "internalType": "string",
          "name": "_amountType",
          "type": "string"
        }
      ],
      "name": "createListing",
      "outputs": [],
      "stateMutability": "nonpayable",
      "type": "function"
    },
    {
      "inputs": [
        {
          "internalType": "address",
          "name": "ad",
          "type": "address"
        },
        {
          "internalType": "enum Bazaar.Auth",
          "name": "aut",
          "type": "uint8"
        }
      ],
      "name": "giveAuth",
      "outputs": [
        {
          "internalType": "enum Bazaar.Auth",
          "name": "",
          "type": "uint8"
        }
      ],
      "stateMutability": "nonpayable",
      "type": "function"
    },
    {
      "inputs": [
        {
          "internalType": "uint256",
          "name": "_listingID",
          "type": "uint256"
        }
      ],
      "name": "purchaseBazaarItem",
      "outputs": [],
      "stateMutability": "payable",
      "type": "function"
    }
  ],
  "bytecode": "0x60a060405234801561001057600080fd5b503373ffffffffffffffffffffffffffffffffffffffff1660808173ffffffffffffffffffffffffffffffffffffffff1660601b8152505060036000803373ffffffffffffffffffffffffffffffffffffffff1673ffffffffffffffffffffffffffffffffffffffff16815260200190815260200160002060006101000a81548160ff021916908360038111156100d0577f4e487b7100000000000000000000000000000000000000000000000000000000600052602160045260246000fd5b021790555060805160601c6124946100fa60003960008181610315015261120701526124946000f3fe60806040526004361061009c5760003560e01c80638a5fbf1e116100645780638a5fbf1e146101be5780638da4e818146101e957806391d61a0214610226578063a25c44f814610242578063a5c4ba1114610289578063f851a440146102c65761009c565b8063032bc66b146100a15780634be51e32146100de5780634d38bb391461011b5780636f78d9e31461014457806376e66aee14610181575b600080fd5b3480156100ad57600080fd5b506100c860048036038101906100c391906116f9565b6102f1565b6040516100d59190611a71565b60405180910390f35b3480156100ea57600080fd5b506101056004803603810190610100919061162e565b610311565b6040516101129190611a8c565b60405180910390f35b34801561012757600080fd5b50610142600480360381019061013d919061166a565b610481565b005b34801561015057600080fd5b5061016b600480360381019061016691906116f9565b610a39565b6040516101789190611a71565b60405180910390f35b34801561018d57600080fd5b506101a860048036038101906101a39190611605565b610a59565b6040516101b59190611a8c565b60405180910390f35b3480156101ca57600080fd5b506101d3610a79565b6040516101e09190611c27565b60405180910390f35b3480156101f557600080fd5b50610210600480360381019061020b91906116f9565b610a7f565b60405161021d9190611a71565b60405180910390f35b610240600480360381019061023b91906116f9565b610bab565b005b34801561024e57600080fd5b50610269600480360381019061026491906116f9565b610edc565b6040516102809b9a99989796959493929190611c42565b60405180910390f35b34801561029557600080fd5b506102b060048036038101906102ab91906116f9565b611045565b6040516102bd9190611a71565b60405180910390f35b3480156102d257600080fd5b506102db611205565b6040516102e891906119e8565b60405180910390f35b60026020528060005260406000206000915054906101000a900460ff1681565b60007f000000000000000000000000000000000000000000000000000000000000000073ffffffffffffffffffffffffffffffffffffffff163373ffffffffffffffffffffffffffffffffffffffff16146103a1576040517f08c379a000000000000000000000000000000000000000000000000000000000815260040161039890611ba7565b60405180910390fd5b816000808573ffffffffffffffffffffffffffffffffffffffff1673ffffffffffffffffffffffffffffffffffffffff16815260200190815260200160002060006101000a81548160ff02191690836003811115610428577f4e487b7100000000000000000000000000000000000000000000000000000000600052602160045260246000fd5b02179055506000808473ffffffffffffffffffffffffffffffffffffffff1673ffffffffffffffffffffffffffffffffffffffff16815260200190815260200160002060009054906101000a900460ff16905092915050565b83600015156002600083815260200190815260200160002060009054906101000a900460ff161515146104b357600080fd5b600160038111156104ed577f4e487b7100000000000000000000000000000000000000000000000000000000600052602160045260246000fd5b6000803373ffffffffffffffffffffffffffffffffffffffff1673ffffffffffffffffffffffffffffffffffffffff16815260200190815260200160002060009054906101000a900460ff166003811115610571577f4e487b7100000000000000000000000000000000000000000000000000000000600052602160045260246000fd5b148061063757506003808111156105b1577f4e487b7100000000000000000000000000000000000000000000000000000000600052602160045260246000fd5b6000803373ffffffffffffffffffffffffffffffffffffffff1673ffffffffffffffffffffffffffffffffffffffff16815260200190815260200160002060009054906101000a900460ff166003811115610635577f4e487b7100000000000000000000000000000000000000000000000000000000600052602160045260246000fd5b145b610676576040517f08c379a000000000000000000000000000000000000000000000000000000000815260040161066d90611bc7565b60405180910390fd5b6000841180156106865750600083115b6106c5576040517f08c379a00000000000000000000000000000000000000000000000000000000081526004016106bc90611b87565b60405180910390fd5b6000825111610709576040517f08c379a000000000000000000000000000000000000000000000000000000000815260040161070090611ac7565b60405180910390fd5b6004600081548092919061071c90611fe9565b91905055508573ffffffffffffffffffffffffffffffffffffffff166323b872dd3330886040518463ffffffff1660e01b815260040161075e93929190611a3a565b600060405180830381600087803b15801561077857600080fd5b505af115801561078c573d6000803e3d6000fd5b5050505060405180610160016040528060045481526020018773ffffffffffffffffffffffffffffffffffffffff1681526020018681526020018481526020018381526020018581526020013373ffffffffffffffffffffffffffffffffffffffff168152602001600073ffffffffffffffffffffffffffffffffffffffff168152602001600115158152602001600015158152602001600015158152506001600060045481526020019081526020016000206000820151816000015560208201518160010160006101000a81548173ffffffffffffffffffffffffffffffffffffffff021916908373ffffffffffffffffffffffffffffffffffffffff160217905550604082015181600201556060820151816003015560808201518160040190805190602001906108c09291906114a6565b5060a0820151816005015560c08201518160060160006101000a81548173ffffffffffffffffffffffffffffffffffffffff021916908373ffffffffffffffffffffffffffffffffffffffff16021790555060e08201518160070160006101000a81548173ffffffffffffffffffffffffffffffffffffffff021916908373ffffffffffffffffffffffffffffffffffffffff1602179055506101008201518160070160146101000a81548160ff0219169083151502179055506101208201518160070160156101000a81548160ff0219169083151502179055506101408201518160070160166101000a81548160ff0219169083151502179055509050503373ffffffffffffffffffffffffffffffffffffffff168673ffffffffffffffffffffffffffffffffffffffff167f578d13a7a72bbe39bbb7c413e92f2cbb3cc4f088cda7c524ae5b50eebd690ce96004548887878a6001604051610a2996959493929190611cf4565b60405180910390a3505050505050565b60036020528060005260406000206000915054906101000a900460ff1681565b60006020528060005260406000206000915054906101000a900460ff1681565b60045481565b600081600081118015610a9457506004548111155b610ad3576040517f08c379a0000000000000000000000000000000000000000000000000000000008152600401610aca90611ae7565b60405180910390fd5b60006001600085815260200190815260200160002090508060060160009054906101000a900473ffffffffffffffffffffffffffffffffffffffff1673ffffffffffffffffffffffffffffffffffffffff163373ffffffffffffffffffffffffffffffffffffffff1614610b7c576040517f08c379a0000000000000000000000000000000000000000000000000000000008152600401610b7390611aa7565b60405180910390fd5b60018160070160156101000a81548160ff021916908315150217905550610ba284611229565b92505050919050565b80600081118015610bbe57506004548111155b610bfd576040517f08c379a0000000000000000000000000000000000000000000000000000000008152600401610bf490611ae7565b60405180910390fd5b6000600160008481526020019081526020016000209050600073ffffffffffffffffffffffffffffffffffffffff168160070160009054906101000a900473ffffffffffffffffffffffffffffffffffffffff1673ffffffffffffffffffffffffffffffffffffffff1614610ca7576040517f08c379a0000000000000000000000000000000000000000000000000000000008152600401610c9e90611be7565b60405180910390fd5b8060050154341015610cee576040517f08c379a0000000000000000000000000000000000000000000000000000000008152600401610ce590611b67565b60405180910390fd5b8060070160149054906101000a900460ff16610d3f576040517f08c379a0000000000000000000000000000000000000000000000000000000008152600401610d3690611b47565b60405180910390fd5b6001600260008360020154815260200190815260200160002060006101000a81548160ff021916908315150217905550338160070160006101000a81548173ffffffffffffffffffffffffffffffffffffffff021916908373ffffffffffffffffffffffffffffffffffffffff1602179055508060070160009054906101000a900473ffffffffffffffffffffffffffffffffffffffff1673ffffffffffffffffffffffffffffffffffffffff168160060160009054906101000a900473ffffffffffffffffffffffffffffffffffffffff1673ffffffffffffffffffffffffffffffffffffffff168260010160009054906101000a900473ffffffffffffffffffffffffffffffffffffffff1673ffffffffffffffffffffffffffffffffffffffff167f0fee20f77df1f2d09fcc08980c11440ccbf8d15068ee60e3b26d84ada0aaa03986856002015486600301548760040188600501548960070160159054906101000a900460ff168a60070160169054906101000a900460ff16604051610ecf9796959493929190611d5c565b60405180910390a4505050565b60016020528060005260406000206000915090508060000154908060010160009054906101000a900473ffffffffffffffffffffffffffffffffffffffff1690806002015490806003015490806004018054610f3790611f86565b80601f0160208091040260200160405190810160405280929190818152602001828054610f6390611f86565b8015610fb05780601f10610f8557610100808354040283529160200191610fb0565b820191906000526020600020905b815481529060010190602001808311610f9357829003601f168201915b5050505050908060050154908060060160009054906101000a900473ffffffffffffffffffffffffffffffffffffffff16908060070160009054906101000a900473ffffffffffffffffffffffffffffffffffffffff16908060070160149054906101000a900460ff16908060070160159054906101000a900460ff16908060070160169054906101000a900460ff1690508b565b60008160008111801561105a57506004548111155b611099576040517f08c379a000000000000000000000000000000000000000000000000000000000815260040161109090611ae7565b60405180910390fd5b6000600160008581526020019081526020016000209050600073ffffffffffffffffffffffffffffffffffffffff168160070160009054906101000a900473ffffffffffffffffffffffffffffffffffffffff1673ffffffffffffffffffffffffffffffffffffffff161415611144576040517f08c379a000000000000000000000000000000000000000000000000000000000815260040161113b90611b07565b60405180910390fd5b8060070160009054906101000a900473ffffffffffffffffffffffffffffffffffffffff1673ffffffffffffffffffffffffffffffffffffffff163373ffffffffffffffffffffffffffffffffffffffff16146111d6576040517f08c379a00000000000000000000000000000000000000000000000000000000081526004016111cd90611c07565b60405180910390fd5b60018160070160166101000a81548160ff0219169083151502179055506111fc84611229565b92505050919050565b7f000000000000000000000000000000000000000000000000000000000000000081565b60008160008111801561123e57506004548111155b61127d576040517f08c379a000000000000000000000000000000000000000000000000000000000815260040161127490611ae7565b60405180910390fd5b600015156003600085815260200190815260200160002060009054906101000a900460ff161515146112e4576040517f08c379a00000000000000000000000000000000000000000000000000000000081526004016112db90611b27565b60405180910390fd5b6000600160008581526020019081526020016000209050600115158160070160159054906101000a900460ff1615151480156113355750600115158160070160169054906101000a900460ff161515145b1561149a5760016003600086815260200190815260200160002060006101000a81548160ff0219169083151502179055508060060160009054906101000a900473ffffffffffffffffffffffffffffffffffffffff1673ffffffffffffffffffffffffffffffffffffffff166108fc82600501549081150290604051600060405180830381858888f193505050501580156113d4573d6000803e3d6000fd5b508060010160009054906101000a900473ffffffffffffffffffffffffffffffffffffffff1673ffffffffffffffffffffffffffffffffffffffff166323b872dd308360070160009054906101000a900473ffffffffffffffffffffffffffffffffffffffff1684600201546040518463ffffffff1660e01b815260040161145e93929190611a03565b600060405180830381600087803b15801561147857600080fd5b505af115801561148c573d6000803e3d6000fd5b5050505060019250506114a0565b60009250505b50919050565b8280546114b290611f86565b90600052602060002090601f0160209004810192826114d4576000855561151b565b82601f106114ed57805160ff191683800117855561151b565b8280016001018555821561151b579182015b8281111561151a5782518255916020019190600101906114ff565b5b509050611528919061152c565b5090565b5b8082111561154557600081600090555060010161152d565b5090565b600061155c61155784611df7565b611dd2565b90508281526020810184848401111561157457600080fd5b61157f848285611f44565b509392505050565b60008135905061159681612409565b92915050565b6000813590506115ab81612420565b92915050565b6000813590506115c081612437565b92915050565b600082601f8301126115d757600080fd5b81356115e7848260208601611549565b91505092915050565b6000813590506115ff81612447565b92915050565b60006020828403121561161757600080fd5b600061162584828501611587565b91505092915050565b6000806040838503121561164157600080fd5b600061164f85828601611587565b9250506020611660858286016115b1565b9150509250929050565b600080600080600060a0868803121561168257600080fd5b60006116908882890161159c565b95505060206116a1888289016115f0565b94505060406116b2888289016115f0565b93505060606116c3888289016115f0565b925050608086013567ffffffffffffffff8111156116e057600080fd5b6116ec888289016115c6565b9150509295509295909350565b60006020828403121561170b57600080fd5b6000611719848285016115f0565b91505092915050565b61172b81611ed8565b82525050565b61173a81611e6b565b82525050565b61174981611e59565b82525050565b61175881611e7d565b82525050565b61176781611eea565b82525050565b61177681611f0e565b82525050565b600061178782611e3d565b6117918185611e48565b93506117a1818560208601611f53565b6117aa816120ee565b840191505092915050565b600081546117c281611f86565b6117cc8186611e48565b945060018216600081146117e757600181146117f95761182c565b60ff198316865260208601935061182c565b61180285611e28565b60005b8381101561182457815481890152600182019150602081019050611805565b808801955050505b50505092915050565b6000611842602283611e48565b915061184d826120ff565b604082019050919050565b6000611865601c83611e48565b91506118708261214e565b602082019050919050565b6000611888602883611e48565b915061189382612177565b604082019050919050565b60006118ab601383611e48565b91506118b6826121c6565b602082019050919050565b60006118ce602683611e48565b91506118d9826121ef565b604082019050919050565b60006118f1602583611e48565b91506118fc8261223e565b604082019050919050565b6000611914602c83611e48565b915061191f8261228d565b604082019050919050565b6000611937602683611e48565b9150611942826122dc565b604082019050919050565b600061195a601783611e48565b91506119658261232b565b602082019050919050565b600061197d603483611e48565b915061198882612354565b604082019050919050565b60006119a0601683611e48565b91506119ab826123a3565b602082019050919050565b60006119c3601f83611e48565b91506119ce826123cc565b602082019050919050565b6119e281611ece565b82525050565b60006020820190506119fd6000830184611740565b92915050565b6000606082019050611a186000830186611740565b611a256020830185611722565b611a3260408301846119d9565b949350505050565b6000606082019050611a4f6000830186611740565b611a5c6020830185611740565b611a6960408301846119d9565b949350505050565b6000602082019050611a86600083018461174f565b92915050565b6000602082019050611aa1600083018461176d565b92915050565b60006020820190508181036000830152611ac081611835565b9050919050565b60006020820190508181036000830152611ae081611858565b9050919050565b60006020820190508181036000830152611b008161187b565b9050919050565b60006020820190508181036000830152611b208161189e565b9050919050565b60006020820190508181036000830152611b40816118c1565b9050919050565b60006020820190508181036000830152611b60816118e4565b9050919050565b60006020820190508181036000830152611b8081611907565b9050919050565b60006020820190508181036000830152611ba08161192a565b9050919050565b60006020820190508181036000830152611bc08161194d565b9050919050565b60006020820190508181036000830152611be081611970565b9050919050565b60006020820190508181036000830152611c0081611993565b9050919050565b60006020820190508181036000830152611c20816119b6565b9050919050565b6000602082019050611c3c60008301846119d9565b92915050565b600061016082019050611c58600083018e6119d9565b611c65602083018d61175e565b611c72604083018c6119d9565b611c7f606083018b6119d9565b8181036080830152611c91818a61177c565b9050611ca060a08301896119d9565b611cad60c0830188611731565b611cba60e0830187611731565b611cc861010083018661174f565b611cd661012083018561174f565b611ce461014083018461174f565b9c9b505050505050505050505050565b600060c082019050611d0960008301896119d9565b611d1660208301886119d9565b611d2360408301876119d9565b8181036060830152611d35818661177c565b9050611d4460808301856119d9565b611d5160a083018461174f565b979650505050505050565b600060e082019050611d71600083018a6119d9565b611d7e60208301896119d9565b611d8b60408301886119d9565b8181036060830152611d9d81876117b5565b9050611dac60808301866119d9565b611db960a083018561174f565b611dc660c083018461174f565b98975050505050505050565b6000611ddc611ded565b9050611de88282611fb8565b919050565b6000604051905090565b600067ffffffffffffffff821115611e1257611e116120bf565b5b611e1b826120ee565b9050602081019050919050565b60008190508160005260206000209050919050565b600081519050919050565b600082825260208201905092915050565b6000611e6482611eae565b9050919050565b6000611e7682611eae565b9050919050565b60008115159050919050565b6000611e9482611e59565b9050919050565b6000819050611ea9826123f5565b919050565b600073ffffffffffffffffffffffffffffffffffffffff82169050919050565b6000819050919050565b6000611ee382611f20565b9050919050565b6000611ef582611efc565b9050919050565b6000611f0782611eae565b9050919050565b6000611f1982611e9b565b9050919050565b6000611f2b82611f32565b9050919050565b6000611f3d82611eae565b9050919050565b82818337600083830152505050565b60005b83811015611f71578082015181840152602081019050611f56565b83811115611f80576000848401525b50505050565b60006002820490506001821680611f9e57607f821691505b60208210811415611fb257611fb1612090565b5b50919050565b611fc1826120ee565b810181811067ffffffffffffffff82111715611fe057611fdf6120bf565b5b80604052505050565b6000611ff482611ece565b91507fffffffffffffffffffffffffffffffffffffffffffffffffffffffffffffffff82141561202757612026612032565b5b600182019050919050565b7f4e487b7100000000000000000000000000000000000000000000000000000000600052601160045260246000fd5b7f4e487b7100000000000000000000000000000000000000000000000000000000600052602160045260246000fd5b7f4e487b7100000000000000000000000000000000000000000000000000000000600052602260045260246000fd5b7f4e487b7100000000000000000000000000000000000000000000000000000000600052604160045260246000fd5b6000601f19601f8301169050919050565b7f796f7520617265206e6f742070726f6475636572206f6620746869732069746560008201527f6d2e000000000000000000000000000000000000000000000000000000000000602082015250565b7f506c656173652046696c6c2074686520416d6f756e7420547970652e00000000600082015250565b7f5468657265206973206e6f2073756368206974656d2e20284c697374696e674960008201527f442077726f6e6729000000000000000000000000000000000000000000000000602082015250565b7f42757965722061646472657373206572726f7200000000000000000000000000600082015250565b7f54686973206f726465722068617320616c7265616479206265656e20636f6d7060008201527f6c657465642e0000000000000000000000000000000000000000000000000000602082015250565b7f50726f64756374206973206e6f742061637469766520666f722073656c6c696e60008201527f67206e6f77000000000000000000000000000000000000000000000000000000602082015250565b7f596f7520646f6e2774206861766520656e6f756768206d6f6e657920666f722060008201527f746865736520627579696e670000000000000000000000000000000000000000602082015250565b7f507269636520616e6420616d6f756e74206d757374206265206269676765722060008201527f7468616e20300000000000000000000000000000000000000000000000000000602082015250565b7f596f7520617265206e6f7420617574686f72697a656420000000000000000000600082015250565b7f596f7520617265206e6f7420617574686f72697a656420746f2075736520637260008201527f656174654c697374696e672066756e6374696f6e000000000000000000000000602082015250565b7f54686973206974656d20616c726561647920736f6c6400000000000000000000600082015250565b7f796f7520617265206e6f74206275796572206f662074686973206974656d2e00600082015250565b6004811061240657612405612061565b5b50565b61241281611e59565b811461241d57600080fd5b50565b61242981611e89565b811461243457600080fd5b50565b6004811061244457600080fd5b50565b61245081611ece565b811461245b57600080fd5b5056fea264697066735822122067a439090e5a647964e8f73bcdd86bb70381978f594bc3c10bc9ea92951bba6764736f6c63430008040033",
  "linkReferences": {},
  "deployedLinkReferences": {}
}