{
  "_format": "hh-sol-artifact-1",
  "contractName": "Bazaar",
  "sourceName": "src/backend/contracts/Bazaar.sol",
  "abi": [
    {
      "inputs": [],
      "stateMutability": "nonpayable",
      "type": "constructor"
    },
    {
      "anonymous": false,
      "inputs": [
        {
          "indexed": false,
          "internalType": "uint256",
          "name": "listingID",
          "type": "uint256"
        },
        {
          "indexed": true,
          "internalType": "address",
          "name": "product",
          "type": "address"
        },
        {
          "indexed": false,
          "internalType": "uint256",
          "name": "ProductID",
          "type": "uint256"
        },
        {
          "indexed": false,
          "internalType": "uint256",
          "name": "amount",
          "type": "uint256"
        },
        {
          "indexed": false,
          "internalType": "string",
          "name": "amountType",
          "type": "string"
        },
        {
          "indexed": false,
          "internalType": "uint256",
          "name": "price",
          "type": "uint256"
        },
        {
          "indexed": true,
          "internalType": "address",
          "name": "producer",
          "type": "address"
        },
        {
          "indexed": false,
          "internalType": "enum Bazaar.Active",
          "name": "activty",
          "type": "uint8"
        }
      ],
      "name": "Listing",
      "type": "event"
    },
    {
      "anonymous": false,
      "inputs": [
        {
          "indexed": false,
          "internalType": "uint256",
          "name": "listingID",
          "type": "uint256"
        },
        {
          "indexed": true,
          "internalType": "address",
          "name": "product",
          "type": "address"
        },
        {
          "indexed": false,
          "internalType": "uint256",
          "name": "ProductID",
          "type": "uint256"
        },
        {
          "indexed": false,
          "internalType": "uint256",
          "name": "amount",
          "type": "uint256"
        },
        {
          "indexed": false,
          "internalType": "string",
          "name": "amountType",
          "type": "string"
        },
        {
          "indexed": false,
          "internalType": "uint256",
          "name": "price",
          "type": "uint256"
        },
        {
          "indexed": true,
          "internalType": "address",
          "name": "producer",
          "type": "address"
        },
        {
          "indexed": true,
          "internalType": "address",
          "name": "buyer",
          "type": "address"
        },
        {
          "indexed": false,
          "internalType": "bool",
          "name": "producerConf",
          "type": "bool"
        },
        {
          "indexed": false,
          "internalType": "bool",
          "name": "buyerConf",
          "type": "bool"
        }
      ],
      "name": "sold",
      "type": "event"
    },
    {
      "inputs": [
        {
          "internalType": "address",
          "name": "",
          "type": "address"
        }
      ],
      "name": "AuthList",
      "outputs": [
        {
          "internalType": "enum Bazaar.Auth",
          "name": "",
          "type": "uint8"
        }
      ],
      "stateMutability": "view",
      "type": "function"
    },
    {
      "inputs": [
        {
          "internalType": "address",
          "name": "",
          "type": "address"
        }
      ],
      "name": "AuthName",
      "outputs": [
        {
          "internalType": "string",
          "name": "",
          "type": "string"
        }
      ],
      "stateMutability": "view",
      "type": "function"
    },
    {
      "inputs": [],
      "name": "BazaarCount",
      "outputs": [
        {
          "internalType": "uint256",
          "name": "",
          "type": "uint256"
        }
      ],
      "stateMutability": "view",
      "type": "function"
    },
    {
      "inputs": [
        {
          "internalType": "uint256",
          "name": "",
          "type": "uint256"
        }
      ],
      "name": "BazaarList",
      "outputs": [
        {
          "internalType": "uint256",
          "name": "listingID",
          "type": "uint256"
        },
        {
          "internalType": "contract IERC721",
          "name": "product",
          "type": "address"
        },
        {
          "internalType": "uint256",
          "name": "ProductID",
          "type": "uint256"
        },
        {
          "internalType": "uint256",
          "name": "amount",
          "type": "uint256"
        },
        {
          "internalType": "string",
          "name": "amountType",
          "type": "string"
        },
        {
          "internalType": "uint256",
          "name": "price",
          "type": "uint256"
        },
        {
          "internalType": "address payable",
          "name": "producer",
          "type": "address"
        },
        {
          "internalType": "address payable",
          "name": "buyer",
          "type": "address"
        },
        {
          "internalType": "enum Bazaar.Active",
          "name": "activty",
          "type": "uint8"
        },
        {
          "internalType": "bool",
          "name": "producerConf",
          "type": "bool"
        },
        {
          "internalType": "bool",
          "name": "buyerConf",
          "type": "bool"
        }
      ],
      "stateMutability": "view",
      "type": "function"
    },
    {
      "inputs": [
        {
          "internalType": "uint256",
          "name": "",
          "type": "uint256"
        }
      ],
      "name": "Locked",
      "outputs": [
        {
          "internalType": "bool",
          "name": "",
          "type": "bool"
        }
      ],
      "stateMutability": "view",
      "type": "function"
    },
    {
      "inputs": [
        {
          "internalType": "uint256",
          "name": "",
          "type": "uint256"
        }
      ],
      "name": "PaymentTrack",
      "outputs": [
        {
          "internalType": "bool",
          "name": "",
          "type": "bool"
        }
      ],
      "stateMutability": "view",
      "type": "function"
    },
    {
      "inputs": [],
      "name": "admin",
      "outputs": [
        {
          "internalType": "address",
          "name": "",
          "type": "address"
        }
      ],
      "stateMutability": "view",
      "type": "function"
    },
    {
      "inputs": [
        {
          "internalType": "uint256",
          "name": "_listingID",
          "type": "uint256"
        }
      ],
      "name": "burnItem",
      "outputs": [
        {
          "internalType": "uint256",
          "name": "",
          "type": "uint256"
        }
      ],
      "stateMutability": "nonpayable",
      "type": "function"
    },
    {
      "inputs": [
        {
          "internalType": "uint256",
          "name": "_listingID",
          "type": "uint256"
        }
      ],
      "name": "confirmBuyer",
      "outputs": [
        {
          "internalType": "bool",
          "name": "",
          "type": "bool"
        }
      ],
      "stateMutability": "nonpayable",
      "type": "function"
    },
    {
      "inputs": [
        {
          "internalType": "uint256",
          "name": "_listingID",
          "type": "uint256"
        }
      ],
      "name": "confirmProducer",
      "outputs": [
        {
          "internalType": "bool",
          "name": "",
          "type": "bool"
        }
      ],
      "stateMutability": "nonpayable",
      "type": "function"
    },
    {
      "inputs": [
        {
          "internalType": "contract IERC721",
          "name": "_product",
          "type": "address"
        },
        {
          "internalType": "uint256",
          "name": "_productID",
          "type": "uint256"
        },
        {
          "internalType": "uint256",
          "name": "_price",
          "type": "uint256"
        },
        {
          "internalType": "uint256",
          "name": "_amount",
          "type": "uint256"
        },
        {
          "internalType": "string",
          "name": "_amountType",
          "type": "string"
        }
      ],
      "name": "createListing",
      "outputs": [],
      "stateMutability": "nonpayable",
      "type": "function"
    },
    {
      "inputs": [
        {
          "internalType": "uint256",
          "name": "_listingID",
          "type": "uint256"
        }
      ],
      "name": "delistItem",
      "outputs": [],
      "stateMutability": "nonpayable",
      "type": "function"
    },
    {
      "inputs": [
        {
          "internalType": "string",
          "name": "name",
          "type": "string"
        },
        {
          "internalType": "address",
          "name": "ad",
          "type": "address"
        },
        {
          "internalType": "enum Bazaar.Auth",
          "name": "aut",
          "type": "uint8"
        }
      ],
      "name": "giveAuth",
      "outputs": [
        {
          "internalType": "enum Bazaar.Auth",
          "name": "",
          "type": "uint8"
        }
      ],
      "stateMutability": "nonpayable",
      "type": "function"
    },
    {
      "inputs": [
        {
          "internalType": "uint256",
          "name": "_listingID",
          "type": "uint256"
        }
      ],
      "name": "listItem",
      "outputs": [],
      "stateMutability": "nonpayable",
      "type": "function"
    },
    {
      "inputs": [
        {
          "internalType": "uint256",
          "name": "_listingID",
          "type": "uint256"
        }
      ],
      "name": "purchaseBazaarItem",
      "outputs": [],
      "stateMutability": "payable",
      "type": "function"
    }
  ],
  "bytecode": "0x60a06040523480156200001157600080fd5b503373ffffffffffffffffffffffffffffffffffffffff1660808173ffffffffffffffffffffffffffffffffffffffff1660601b8152505060036000803373ffffffffffffffffffffffffffffffffffffffff1673ffffffffffffffffffffffffffffffffffffffff16815260200190815260200160002060006101000a81548160ff02191690836003811115620000d2577f4e487b7100000000000000000000000000000000000000000000000000000000600052602160045260246000fd5b02179055506040518060400160405280600581526020017f41646d696e000000000000000000000000000000000000000000000000000000815250600460003373ffffffffffffffffffffffffffffffffffffffff1673ffffffffffffffffffffffffffffffffffffffff16815260200190815260200160002090805190602001906200016192919062000168565b506200027d565b828054620001769062000218565b90600052602060002090601f0160209004810192826200019a5760008555620001e6565b82601f10620001b557805160ff1916838001178555620001e6565b82800160010185558215620001e6579182015b82811115620001e5578251825591602001919060010190620001c8565b5b509050620001f59190620001f9565b5090565b5b8082111562000214576000816000905550600101620001fa565b5090565b600060028204905060018216806200023157607f821691505b602082108114156200024857620002476200024e565b5b50919050565b7f4e487b7100000000000000000000000000000000000000000000000000000000600052602260045260246000fd5b60805160601c6134ad620002a360003960008181611c0e0152611dd101526134ad6000f3fe6080604052600436106100e85760003560e01c806376e66aee1161008a578063a25c44f811610059578063a25c44f81461031d578063a5c4ba1114610364578063d6c10621146103a1578063f851a440146103de576100e8565b806376e66aee1461025c5780638a5fbf1e146102995780638da4e818146102c457806391d61a0214610301576100e8565b80634d38bb39116100c65780634d38bb391461017c578063576cc0f7146101a55780636f78d9e3146101e25780637589099c1461021f576100e8565b8063032bc66b146100ed578063100616311461012a5780632ce3819014610153575b600080fd5b3480156100f957600080fd5b50610114600480360381019061010f9190612466565b610409565b604051610121919061289c565b60405180910390f35b34801561013657600080fd5b50610151600480360381019061014c9190612466565b610429565b005b34801561015f57600080fd5b5061017a60048036038101906101759190612466565b6106d3565b005b34801561018857600080fd5b506101a3600480360381019061019e9190612370565b61097d565b005b3480156101b157600080fd5b506101cc60048036038101906101c79190612466565b610fa1565b6040516101d99190612b14565b60405180910390f35b3480156101ee57600080fd5b5061020960048036038101906102049190612466565b611346565b604051610216919061289c565b60405180910390f35b34801561022b57600080fd5b5061024660048036038101906102419190612347565b611366565b60405161025391906128d2565b60405180910390f35b34801561026857600080fd5b50610283600480360381019061027e9190612347565b611406565b60405161029091906128b7565b60405180910390f35b3480156102a557600080fd5b506102ae611426565b6040516102bb9190612b14565b60405180910390f35b3480156102d057600080fd5b506102eb60048036038101906102e69190612466565b61142c565b6040516102f8919061289c565b60405180910390f35b61031b60048036038101906103169190612466565b611558565b005b34801561032957600080fd5b50610344600480360381019061033f9190612466565b6118e1565b60405161035b9b9a99989796959493929190612b2f565b60405180910390f35b34801561037057600080fd5b5061038b60048036038101906103869190612466565b611a4a565b604051610398919061289c565b60405180910390f35b3480156103ad57600080fd5b506103c860048036038101906103c391906123ff565b611c0a565b6040516103d591906128b7565b60405180910390f35b3480156103ea57600080fd5b506103f3611dcf565b6040516104009190612813565b60405180910390f35b60026020528060005260406000206000915054906101000a900460ff1681565b8060008111801561043c57506005548111155b61047b576040517f08c379a000000000000000000000000000000000000000000000000000000000815260040161047290612954565b60405180910390fd5b6000600160008481526020019081526020016000209050600073ffffffffffffffffffffffffffffffffffffffff168160070160009054906101000a900473ffffffffffffffffffffffffffffffffffffffff1673ffffffffffffffffffffffffffffffffffffffff1614610525576040517f08c379a000000000000000000000000000000000000000000000000000000000815260040161051c90612ad4565b60405180910390fd5b3373ffffffffffffffffffffffffffffffffffffffff168160060160009054906101000a900473ffffffffffffffffffffffffffffffffffffffff1673ffffffffffffffffffffffffffffffffffffffff16146105b7576040517f08c379a00000000000000000000000000000000000000000000000000000000081526004016105ae90612914565b60405180910390fd5b600160048111156105f1577f4e487b7100000000000000000000000000000000000000000000000000000000600052602160045260246000fd5b8160070160149054906101000a900460ff16600481111561063b577f4e487b7100000000000000000000000000000000000000000000000000000000600052602160045260246000fd5b1461067b576040517f08c379a000000000000000000000000000000000000000000000000000000000815260040161067290612ab4565b60405180910390fd5b60008160070160146101000a81548160ff021916908360048111156106c9577f4e487b7100000000000000000000000000000000000000000000000000000000600052602160045260246000fd5b0217905550505050565b806000811180156106e657506005548111155b610725576040517f08c379a000000000000000000000000000000000000000000000000000000000815260040161071c90612954565b60405180910390fd5b6000600160008481526020019081526020016000209050600073ffffffffffffffffffffffffffffffffffffffff168160070160009054906101000a900473ffffffffffffffffffffffffffffffffffffffff1673ffffffffffffffffffffffffffffffffffffffff16146107cf576040517f08c379a00000000000000000000000000000000000000000000000000000000081526004016107c690612ad4565b60405180910390fd5b3373ffffffffffffffffffffffffffffffffffffffff168160060160009054906101000a900473ffffffffffffffffffffffffffffffffffffffff1673ffffffffffffffffffffffffffffffffffffffff1614610861576040517f08c379a000000000000000000000000000000000000000000000000000000000815260040161085890612914565b60405180910390fd5b6000600481111561089b577f4e487b7100000000000000000000000000000000000000000000000000000000600052602160045260246000fd5b8160070160149054906101000a900460ff1660048111156108e5577f4e487b7100000000000000000000000000000000000000000000000000000000600052602160045260246000fd5b14610925576040517f08c379a000000000000000000000000000000000000000000000000000000000815260040161091c90612974565b60405180910390fd5b60018160070160146101000a81548160ff02191690836004811115610973577f4e487b7100000000000000000000000000000000000000000000000000000000600052602160045260246000fd5b0217905550505050565b83600015156002600083815260200190815260200160002060009054906101000a900460ff161515146109af57600080fd5b600160038111156109e9577f4e487b7100000000000000000000000000000000000000000000000000000000600052602160045260246000fd5b6000803373ffffffffffffffffffffffffffffffffffffffff1673ffffffffffffffffffffffffffffffffffffffff16815260200190815260200160002060009054906101000a900460ff166003811115610a6d577f4e487b7100000000000000000000000000000000000000000000000000000000600052602160045260246000fd5b1480610b335750600380811115610aad577f4e487b7100000000000000000000000000000000000000000000000000000000600052602160045260246000fd5b6000803373ffffffffffffffffffffffffffffffffffffffff1673ffffffffffffffffffffffffffffffffffffffff16815260200190815260200160002060009054906101000a900460ff166003811115610b31577f4e487b7100000000000000000000000000000000000000000000000000000000600052602160045260246000fd5b145b610b72576040517f08c379a0000000000000000000000000000000000000000000000000000000008152600401610b6990612a94565b60405180910390fd5b600084118015610b825750600083115b610bc1576040517f08c379a0000000000000000000000000000000000000000000000000000000008152600401610bb890612a54565b60405180910390fd5b6000825111610c05576040517f08c379a0000000000000000000000000000000000000000000000000000000008152600401610bfc90612934565b60405180910390fd5b60056000815480929190610c1890612efb565b91905055508573ffffffffffffffffffffffffffffffffffffffff166323b872dd3330886040518463ffffffff1660e01b8152600401610c5a93929190612865565b600060405180830381600087803b158015610c7457600080fd5b505af1158015610c88573d6000803e3d6000fd5b5050505060405180610160016040528060055481526020018773ffffffffffffffffffffffffffffffffffffffff1681526020018681526020018481526020018381526020018581526020013373ffffffffffffffffffffffffffffffffffffffff168152602001600073ffffffffffffffffffffffffffffffffffffffff16815260200160016004811115610d47577f4e487b7100000000000000000000000000000000000000000000000000000000600052602160045260246000fd5b8152602001600015158152602001600015158152506001600060055481526020019081526020016000206000820151816000015560208201518160010160006101000a81548173ffffffffffffffffffffffffffffffffffffffff021916908373ffffffffffffffffffffffffffffffffffffffff16021790555060408201518160020155606082015181600301556080820151816004019080519060200190610df29291906121e8565b5060a0820151816005015560c08201518160060160006101000a81548173ffffffffffffffffffffffffffffffffffffffff021916908373ffffffffffffffffffffffffffffffffffffffff16021790555060e08201518160070160006101000a81548173ffffffffffffffffffffffffffffffffffffffff021916908373ffffffffffffffffffffffffffffffffffffffff1602179055506101008201518160070160146101000a81548160ff02191690836004811115610edd577f4e487b7100000000000000000000000000000000000000000000000000000000600052602160045260246000fd5b02179055506101208201518160070160156101000a81548160ff0219169083151502179055506101408201518160070160166101000a81548160ff0219169083151502179055509050503373ffffffffffffffffffffffffffffffffffffffff168673ffffffffffffffffffffffffffffffffffffffff167f415cc3f75a9990d6fab15f2c9f6a428b9126b31459e156c48c5c2b4fc23717816005548887878a6001604051610f9196959493929190612be1565b60405180910390a3505050505050565b60008060016000848152602001908152602001600020905060036004811115610ff3577f4e487b7100000000000000000000000000000000000000000000000000000000600052602160045260246000fd5b8160070160149054906101000a900460ff16600481111561103d577f4e487b7100000000000000000000000000000000000000000000000000000000600052602160045260246000fd5b14156110a4573373ffffffffffffffffffffffffffffffffffffffff168160070160009054906101000a900473ffffffffffffffffffffffffffffffffffffffff1673ffffffffffffffffffffffffffffffffffffffff161461109f57600080fd5b61125e565b600060048111156110de577f4e487b7100000000000000000000000000000000000000000000000000000000600052602160045260246000fd5b8160070160149054906101000a900460ff166004811115611128577f4e487b7100000000000000000000000000000000000000000000000000000000600052602160045260246000fd5b14806111b5575060016004811115611169577f4e487b7100000000000000000000000000000000000000000000000000000000600052602160045260246000fd5b8160070160149054906101000a900460ff1660048111156111b3577f4e487b7100000000000000000000000000000000000000000000000000000000600052602160045260246000fd5b145b1561121b573373ffffffffffffffffffffffffffffffffffffffff168160060160009054906101000a900473ffffffffffffffffffffffffffffffffffffffff1673ffffffffffffffffffffffffffffffffffffffff161461121657600080fd5b61125d565b600061125c576040517f08c379a0000000000000000000000000000000000000000000000000000000008152600401611253906129d4565b60405180910390fd5b5b5b60008160060160006101000a81548173ffffffffffffffffffffffffffffffffffffffff021916908373ffffffffffffffffffffffffffffffffffffffff16021790555060008160070160006101000a81548173ffffffffffffffffffffffffffffffffffffffff021916908373ffffffffffffffffffffffffffffffffffffffff16021790555060048160070160146101000a81548160ff02191690836004811115611334577f4e487b7100000000000000000000000000000000000000000000000000000000600052602160045260246000fd5b02179055508060020154915050919050565b60036020528060005260406000206000915054906101000a900460ff1681565b6004602052806000526040600020600091509050805461138590612e98565b80601f01602080910402602001604051908101604052809291908181526020018280546113b190612e98565b80156113fe5780601f106113d3576101008083540402835291602001916113fe565b820191906000526020600020905b8154815290600101906020018083116113e157829003601f168201915b505050505081565b60006020528060005260406000206000915054906101000a900460ff1681565b60055481565b60008160008111801561144157506005548111155b611480576040517f08c379a000000000000000000000000000000000000000000000000000000000815260040161147790612954565b60405180910390fd5b60006001600085815260200190815260200160002090508060060160009054906101000a900473ffffffffffffffffffffffffffffffffffffffff1673ffffffffffffffffffffffffffffffffffffffff163373ffffffffffffffffffffffffffffffffffffffff1614611529576040517f08c379a0000000000000000000000000000000000000000000000000000000008152600401611520906128f4565b60405180910390fd5b60018160070160156101000a81548160ff02191690831515021790555061154f84611df3565b92505050919050565b8060008111801561156b57506005548111155b6115aa576040517f08c379a00000000000000000000000000000000000000000000000000000000081526004016115a190612954565b60405180910390fd5b6000600160008481526020019081526020016000209050600073ffffffffffffffffffffffffffffffffffffffff168160070160009054906101000a900473ffffffffffffffffffffffffffffffffffffffff1673ffffffffffffffffffffffffffffffffffffffff1614611654576040517f08c379a000000000000000000000000000000000000000000000000000000000815260040161164b90612ad4565b60405180910390fd5b8060060160009054906101000a900473ffffffffffffffffffffffffffffffffffffffff1673ffffffffffffffffffffffffffffffffffffffff168160070160009054906101000a900473ffffffffffffffffffffffffffffffffffffffff1673ffffffffffffffffffffffffffffffffffffffff16141561170b576040517f08c379a000000000000000000000000000000000000000000000000000000000815260040161170290612994565b60405180910390fd5b8060050154341015611752576040517f08c379a000000000000000000000000000000000000000000000000000000000815260040161174990612a34565b60405180910390fd5b6001600481111561178c577f4e487b7100000000000000000000000000000000000000000000000000000000600052602160045260246000fd5b8160070160149054906101000a900460ff1660048111156117d6577f4e487b7100000000000000000000000000000000000000000000000000000000600052602160045260246000fd5b14611816576040517f08c379a000000000000000000000000000000000000000000000000000000000815260040161180d90612a14565b60405180910390fd5b6001600260008360020154815260200190815260200160002060006101000a81548160ff021916908315150217905550338160070160006101000a81548173ffffffffffffffffffffffffffffffffffffffff021916908373ffffffffffffffffffffffffffffffffffffffff16021790555060028160070160146101000a81548160ff021916908360048111156118d7577f4e487b7100000000000000000000000000000000000000000000000000000000600052602160045260246000fd5b0217905550505050565b60016020528060005260406000206000915090508060000154908060010160009054906101000a900473ffffffffffffffffffffffffffffffffffffffff169080600201549080600301549080600401805461193c90612e98565b80601f016020809104026020016040519081016040528092919081815260200182805461196890612e98565b80156119b55780601f1061198a576101008083540402835291602001916119b5565b820191906000526020600020905b81548152906001019060200180831161199857829003601f168201915b5050505050908060050154908060060160009054906101000a900473ffffffffffffffffffffffffffffffffffffffff16908060070160009054906101000a900473ffffffffffffffffffffffffffffffffffffffff16908060070160149054906101000a900460ff16908060070160159054906101000a900460ff16908060070160169054906101000a900460ff1690508b565b600081600081118015611a5f57506005548111155b611a9e576040517f08c379a0000000000000000000000000000000000000000000000000000000008152600401611a9590612954565b60405180910390fd5b6000600160008581526020019081526020016000209050600073ffffffffffffffffffffffffffffffffffffffff168160070160009054906101000a900473ffffffffffffffffffffffffffffffffffffffff1673ffffffffffffffffffffffffffffffffffffffff161415611b49576040517f08c379a0000000000000000000000000000000000000000000000000000000008152600401611b40906129b4565b60405180910390fd5b8060070160009054906101000a900473ffffffffffffffffffffffffffffffffffffffff1673ffffffffffffffffffffffffffffffffffffffff163373ffffffffffffffffffffffffffffffffffffffff1614611bdb576040517f08c379a0000000000000000000000000000000000000000000000000000000008152600401611bd290612af4565b60405180910390fd5b60018160070160166101000a81548160ff021916908315150217905550611c0184611df3565b92505050919050565b60007f000000000000000000000000000000000000000000000000000000000000000073ffffffffffffffffffffffffffffffffffffffff163373ffffffffffffffffffffffffffffffffffffffff1614611c9a576040517f08c379a0000000000000000000000000000000000000000000000000000000008152600401611c9190612a74565b60405180910390fd5b816000808573ffffffffffffffffffffffffffffffffffffffff1673ffffffffffffffffffffffffffffffffffffffff16815260200190815260200160002060006101000a81548160ff02191690836003811115611d21577f4e487b7100000000000000000000000000000000000000000000000000000000600052602160045260246000fd5b021790555083600460008573ffffffffffffffffffffffffffffffffffffffff1673ffffffffffffffffffffffffffffffffffffffff1681526020019081526020016000209080519060200190611d799291906121e8565b506000808473ffffffffffffffffffffffffffffffffffffffff1673ffffffffffffffffffffffffffffffffffffffff16815260200190815260200160002060009054906101000a900460ff1690509392505050565b7f000000000000000000000000000000000000000000000000000000000000000081565b600081600081118015611e0857506005548111155b611e47576040517f08c379a0000000000000000000000000000000000000000000000000000000008152600401611e3e90612954565b60405180910390fd5b600015156003600085815260200190815260200160002060009054906101000a900460ff16151514611eae576040517f08c379a0000000000000000000000000000000000000000000000000000000008152600401611ea5906129f4565b60405180910390fd5b6000600160008581526020019081526020016000209050600115158160070160159054906101000a900460ff161515148015611eff5750600115158160070160169054906101000a900460ff161515145b156121dc5760016003600086815260200190815260200160002060006101000a81548160ff0219169083151502179055508060060160009054906101000a900473ffffffffffffffffffffffffffffffffffffffff1673ffffffffffffffffffffffffffffffffffffffff166108fc82600501549081150290604051600060405180830381858888f19350505050158015611f9e573d6000803e3d6000fd5b508060010160009054906101000a900473ffffffffffffffffffffffffffffffffffffffff1673ffffffffffffffffffffffffffffffffffffffff166323b872dd308360070160009054906101000a900473ffffffffffffffffffffffffffffffffffffffff1684600201546040518463ffffffff1660e01b81526004016120289392919061282e565b600060405180830381600087803b15801561204257600080fd5b505af1158015612056573d6000803e3d6000fd5b5050505060038160070160146101000a81548160ff021916908360048111156120a8577f4e487b7100000000000000000000000000000000000000000000000000000000600052602160045260246000fd5b02179055508060070160009054906101000a900473ffffffffffffffffffffffffffffffffffffffff1673ffffffffffffffffffffffffffffffffffffffff168160060160009054906101000a900473ffffffffffffffffffffffffffffffffffffffff1673ffffffffffffffffffffffffffffffffffffffff168260010160009054906101000a900473ffffffffffffffffffffffffffffffffffffffff1673ffffffffffffffffffffffffffffffffffffffff167f0fee20f77df1f2d09fcc08980c11440ccbf8d15068ee60e3b26d84ada0aaa03987856002015486600301548760040188600501548960070160159054906101000a900460ff168a60070160169054906101000a900460ff166040516121ca9796959493929190612c49565b60405180910390a460019250506121e2565b60009250505b50919050565b8280546121f490612e98565b90600052602060002090601f016020900481019282612216576000855561225d565b82601f1061222f57805160ff191683800117855561225d565b8280016001018555821561225d579182015b8281111561225c578251825591602001919060010190612241565b5b50905061226a919061226e565b5090565b5b8082111561228757600081600090555060010161226f565b5090565b600061229e61229984612ce4565b612cbf565b9050828152602081018484840111156122b657600080fd5b6122c1848285612e56565b509392505050565b6000813590506122d881613422565b92915050565b6000813590506122ed81613439565b92915050565b60008135905061230281613450565b92915050565b600082601f83011261231957600080fd5b813561232984826020860161228b565b91505092915050565b60008135905061234181613460565b92915050565b60006020828403121561235957600080fd5b6000612367848285016122c9565b91505092915050565b600080600080600060a0868803121561238857600080fd5b6000612396888289016122de565b95505060206123a788828901612332565b94505060406123b888828901612332565b93505060606123c988828901612332565b925050608086013567ffffffffffffffff8111156123e657600080fd5b6123f288828901612308565b9150509295509295909350565b60008060006060848603121561241457600080fd5b600084013567ffffffffffffffff81111561242e57600080fd5b61243a86828701612308565b935050602061244b868287016122c9565b925050604061245c868287016122f3565b9150509250925092565b60006020828403121561247857600080fd5b600061248684828501612332565b91505092915050565b61249881612dd8565b82525050565b6124a781612d58565b82525050565b6124b681612d46565b82525050565b6124c581612d6a565b82525050565b6124d481612dea565b82525050565b6124e381612e0e565b82525050565b6124f281612e20565b82525050565b600061250382612d2a565b61250d8185612d35565b935061251d818560208601612e65565b61252681613000565b840191505092915050565b6000815461253e81612e98565b6125488186612d35565b945060018216600081146125635760018114612575576125a8565b60ff19831686526020860193506125a8565b61257e85612d15565b60005b838110156125a057815481890152600182019150602081019050612581565b808801955050505b50505092915050565b60006125be602283612d35565b91506125c982613011565b604082019050919050565b60006125e1601683612d35565b91506125ec82613060565b602082019050919050565b6000612604601c83612d35565b915061260f82613089565b602082019050919050565b6000612627602883612d35565b9150612632826130b2565b604082019050919050565b600061264a601783612d35565b915061265582613101565b602082019050919050565b600061266d601783612d35565b91506126788261312a565b602082019050919050565b6000612690601383612d35565b915061269b82613153565b602082019050919050565b60006126b3602683612d35565b91506126be8261317c565b604082019050919050565b60006126d6602683612d35565b91506126e1826131cb565b604082019050919050565b60006126f9602583612d35565b91506127048261321a565b604082019050919050565b600061271c602c83612d35565b915061272782613269565b604082019050919050565b600061273f602683612d35565b915061274a826132b8565b604082019050919050565b6000612762601783612d35565b915061276d82613307565b602082019050919050565b6000612785603483612d35565b915061279082613330565b604082019050919050565b60006127a8601683612d35565b91506127b38261337f565b602082019050919050565b60006127cb601683612d35565b91506127d6826133a8565b602082019050919050565b60006127ee601f83612d35565b91506127f9826133d1565b602082019050919050565b61280d81612dce565b82525050565b600060208201905061282860008301846124ad565b92915050565b600060608201905061284360008301866124ad565b612850602083018561248f565b61285d6040830184612804565b949350505050565b600060608201905061287a60008301866124ad565b61288760208301856124ad565b6128946040830184612804565b949350505050565b60006020820190506128b160008301846124bc565b92915050565b60006020820190506128cc60008301846124e9565b92915050565b600060208201905081810360008301526128ec81846124f8565b905092915050565b6000602082019050818103600083015261290d816125b1565b9050919050565b6000602082019050818103600083015261292d816125d4565b9050919050565b6000602082019050818103600083015261294d816125f7565b9050919050565b6000602082019050818103600083015261296d8161261a565b9050919050565b6000602082019050818103600083015261298d8161263d565b9050919050565b600060208201905081810360008301526129ad81612660565b9050919050565b600060208201905081810360008301526129cd81612683565b9050919050565b600060208201905081810360008301526129ed816126a6565b9050919050565b60006020820190508181036000830152612a0d816126c9565b9050919050565b60006020820190508181036000830152612a2d816126ec565b9050919050565b60006020820190508181036000830152612a4d8161270f565b9050919050565b60006020820190508181036000830152612a6d81612732565b9050919050565b60006020820190508181036000830152612a8d81612755565b9050919050565b60006020820190508181036000830152612aad81612778565b9050919050565b60006020820190508181036000830152612acd8161279b565b9050919050565b60006020820190508181036000830152612aed816127be565b9050919050565b60006020820190508181036000830152612b0d816127e1565b9050919050565b6000602082019050612b296000830184612804565b92915050565b600061016082019050612b45600083018e612804565b612b52602083018d6124cb565b612b5f604083018c612804565b612b6c606083018b612804565b8181036080830152612b7e818a6124f8565b9050612b8d60a0830189612804565b612b9a60c083018861249e565b612ba760e083018761249e565b612bb56101008301866124da565b612bc36101208301856124bc565b612bd16101408301846124bc565b9c9b505050505050505050505050565b600060c082019050612bf66000830189612804565b612c036020830188612804565b612c106040830187612804565b8181036060830152612c2281866124f8565b9050612c316080830185612804565b612c3e60a08301846124da565b979650505050505050565b600060e082019050612c5e600083018a612804565b612c6b6020830189612804565b612c786040830188612804565b8181036060830152612c8a8187612531565b9050612c996080830186612804565b612ca660a08301856124bc565b612cb360c08301846124bc565b98975050505050505050565b6000612cc9612cda565b9050612cd58282612eca565b919050565b6000604051905090565b600067ffffffffffffffff821115612cff57612cfe612fd1565b5b612d0882613000565b9050602081019050919050565b60008190508160005260206000209050919050565b600081519050919050565b600082825260208201905092915050565b6000612d5182612dae565b9050919050565b6000612d6382612dae565b9050919050565b60008115159050919050565b6000612d8182612d46565b9050919050565b6000819050612d96826133fa565b919050565b6000819050612da98261340e565b919050565b600073ffffffffffffffffffffffffffffffffffffffff82169050919050565b6000819050919050565b6000612de382612e32565b9050919050565b6000612df582612dfc565b9050919050565b6000612e0782612dae565b9050919050565b6000612e1982612d88565b9050919050565b6000612e2b82612d9b565b9050919050565b6000612e3d82612e44565b9050919050565b6000612e4f82612dae565b9050919050565b82818337600083830152505050565b60005b83811015612e83578082015181840152602081019050612e68565b83811115612e92576000848401525b50505050565b60006002820490506001821680612eb057607f821691505b60208210811415612ec457612ec3612fa2565b5b50919050565b612ed382613000565b810181811067ffffffffffffffff82111715612ef257612ef1612fd1565b5b80604052505050565b6000612f0682612dce565b91507fffffffffffffffffffffffffffffffffffffffffffffffffffffffffffffffff821415612f3957612f38612f44565b5b600182019050919050565b7f4e487b7100000000000000000000000000000000000000000000000000000000600052601160045260246000fd5b7f4e487b7100000000000000000000000000000000000000000000000000000000600052602160045260246000fd5b7f4e487b7100000000000000000000000000000000000000000000000000000000600052602260045260246000fd5b7f4e487b7100000000000000000000000000000000000000000000000000000000600052604160045260246000fd5b6000601f19601f8301169050919050565b7f796f7520617265206e6f742070726f6475636572206f6620746869732069746560008201527f6d2e000000000000000000000000000000000000000000000000000000000000602082015250565b7f54686973206974656d206973206e6f7420796f75727300000000000000000000600082015250565b7f506c656173652046696c6c2074686520416d6f756e7420547970652e00000000600082015250565b7f5468657265206973206e6f2073756368206974656d2e20284c697374696e674960008201527f442077726f6e6729000000000000000000000000000000000000000000000000602082015250565b7f50726f64756374206973206e6f7420706173736976652e000000000000000000600082015250565b7f596f752063616e277420627579206f776e206974656d73000000000000000000600082015250565b7f42757965722061646472657373206572726f7200000000000000000000000000600082015250565b7f596f7520617265206e6f7420617574686f72697a6564206f6e2074686973207060008201527f726f647563740000000000000000000000000000000000000000000000000000602082015250565b7f54686973206f726465722068617320616c7265616479206265656e20636f6d7060008201527f6c657465642e0000000000000000000000000000000000000000000000000000602082015250565b7f50726f64756374206973206e6f742061637469766520666f722073656c6c696e60008201527f67206e6f77000000000000000000000000000000000000000000000000000000602082015250565b7f596f7520646f6e2774206861766520656e6f756768206d6f6e657920666f722060008201527f746865736520627579696e670000000000000000000000000000000000000000602082015250565b7f507269636520616e6420616d6f756e74206d757374206265206269676765722060008201527f7468616e20300000000000000000000000000000000000000000000000000000602082015250565b7f596f7520617265206e6f7420617574686f72697a656420000000000000000000600082015250565b7f596f7520617265206e6f7420617574686f72697a656420746f2075736520637260008201527f656174654c697374696e672066756e6374696f6e000000000000000000000000602082015250565b7f50726f64756374206973206e6f74206163746976652e00000000000000000000600082015250565b7f54686973206974656d20616c726561647920736f6c6400000000000000000000600082015250565b7f796f7520617265206e6f74206275796572206f662074686973206974656d2e00600082015250565b6005811061340b5761340a612f73565b5b50565b6004811061341f5761341e612f73565b5b50565b61342b81612d46565b811461343657600080fd5b50565b61344281612d76565b811461344d57600080fd5b50565b6004811061345d57600080fd5b50565b61346981612dce565b811461347457600080fd5b5056fea264697066735822122061b9449a0e50fbefc1a03e095d002bed63328606fded200af7b2d925acdf995964736f6c63430008040033",
  "linkReferences": {},
  "deployedLinkReferences": {}
}