{
  "_format": "hh-sol-artifact-1",
  "contractName": "Bazaar",
  "sourceName": "src/backend/contracts/Bazaar.sol",
  "abi": [
    {
      "inputs": [],
      "stateMutability": "nonpayable",
      "type": "constructor"
    },
    {
      "anonymous": false,
      "inputs": [
        {
          "indexed": false,
          "internalType": "uint256",
          "name": "listingID",
          "type": "uint256"
        },
        {
          "indexed": true,
          "internalType": "address",
          "name": "product",
          "type": "address"
        },
        {
          "indexed": false,
          "internalType": "uint256",
          "name": "ProductID",
          "type": "uint256"
        },
        {
          "indexed": false,
          "internalType": "uint256",
          "name": "amount",
          "type": "uint256"
        },
        {
          "indexed": false,
          "internalType": "string",
          "name": "amountType",
          "type": "string"
        },
        {
          "indexed": false,
          "internalType": "uint256",
          "name": "price",
          "type": "uint256"
        },
        {
          "indexed": true,
          "internalType": "address",
          "name": "producer",
          "type": "address"
        },
        {
          "indexed": false,
          "internalType": "enum Bazaar.Active",
          "name": "activty",
          "type": "uint8"
        }
      ],
      "name": "Listing",
      "type": "event"
    },
    {
      "anonymous": false,
      "inputs": [
        {
          "indexed": false,
          "internalType": "uint256",
          "name": "listingID",
          "type": "uint256"
        },
        {
          "indexed": true,
          "internalType": "address",
          "name": "product",
          "type": "address"
        },
        {
          "indexed": false,
          "internalType": "uint256",
          "name": "ProductID",
          "type": "uint256"
        },
        {
          "indexed": false,
          "internalType": "uint256",
          "name": "amount",
          "type": "uint256"
        },
        {
          "indexed": false,
          "internalType": "string",
          "name": "amountType",
          "type": "string"
        },
        {
          "indexed": false,
          "internalType": "uint256",
          "name": "price",
          "type": "uint256"
        },
        {
          "indexed": true,
          "internalType": "address",
          "name": "producer",
          "type": "address"
        },
        {
          "indexed": true,
          "internalType": "address",
          "name": "buyer",
          "type": "address"
        },
        {
          "indexed": false,
          "internalType": "bool",
          "name": "producerConf",
          "type": "bool"
        },
        {
          "indexed": false,
          "internalType": "bool",
          "name": "buyerConf",
          "type": "bool"
        }
      ],
      "name": "sold",
      "type": "event"
    },
    {
      "inputs": [
        {
          "internalType": "address",
          "name": "",
          "type": "address"
        }
      ],
      "name": "AuthList",
      "outputs": [
        {
          "internalType": "enum Bazaar.Auth",
          "name": "",
          "type": "uint8"
        }
      ],
      "stateMutability": "view",
      "type": "function"
    },
    {
      "inputs": [
        {
          "internalType": "address",
          "name": "",
          "type": "address"
        }
      ],
      "name": "AuthName",
      "outputs": [
        {
          "internalType": "string",
          "name": "",
          "type": "string"
        }
      ],
      "stateMutability": "view",
      "type": "function"
    },
    {
      "inputs": [],
      "name": "BazaarCount",
      "outputs": [
        {
          "internalType": "uint256",
          "name": "",
          "type": "uint256"
        }
      ],
      "stateMutability": "view",
      "type": "function"
    },
    {
      "inputs": [
        {
          "internalType": "uint256",
          "name": "",
          "type": "uint256"
        }
      ],
      "name": "BazaarList",
      "outputs": [
        {
          "internalType": "uint256",
          "name": "listingID",
          "type": "uint256"
        },
        {
          "internalType": "contract IERC721",
          "name": "product",
          "type": "address"
        },
        {
          "internalType": "uint256",
          "name": "ProductID",
          "type": "uint256"
        },
        {
          "internalType": "uint256",
          "name": "amount",
          "type": "uint256"
        },
        {
          "internalType": "string",
          "name": "amountType",
          "type": "string"
        },
        {
          "internalType": "uint256",
          "name": "price",
          "type": "uint256"
        },
        {
          "internalType": "address payable",
          "name": "producer",
          "type": "address"
        },
        {
          "internalType": "address payable",
          "name": "buyer",
          "type": "address"
        },
        {
          "internalType": "enum Bazaar.Active",
          "name": "activty",
          "type": "uint8"
        },
        {
          "internalType": "bool",
          "name": "producerConf",
          "type": "bool"
        },
        {
          "internalType": "bool",
          "name": "buyerConf",
          "type": "bool"
        },
        {
          "internalType": "uint256",
          "name": "buyTime",
          "type": "uint256"
        }
      ],
      "stateMutability": "view",
      "type": "function"
    },
    {
      "inputs": [
        {
          "internalType": "uint256",
          "name": "",
          "type": "uint256"
        }
      ],
      "name": "Locked",
      "outputs": [
        {
          "internalType": "bool",
          "name": "",
          "type": "bool"
        }
      ],
      "stateMutability": "view",
      "type": "function"
    },
    {
      "inputs": [
        {
          "internalType": "uint256",
          "name": "",
          "type": "uint256"
        }
      ],
      "name": "PaymentTrack",
      "outputs": [
        {
          "internalType": "bool",
          "name": "",
          "type": "bool"
        }
      ],
      "stateMutability": "view",
      "type": "function"
    },
    {
      "inputs": [],
      "name": "admin",
      "outputs": [
        {
          "internalType": "address",
          "name": "",
          "type": "address"
        }
      ],
      "stateMutability": "view",
      "type": "function"
    },
    {
      "inputs": [
        {
          "internalType": "uint256",
          "name": "_listingID",
          "type": "uint256"
        }
      ],
      "name": "burnItem",
      "outputs": [
        {
          "internalType": "uint256",
          "name": "",
          "type": "uint256"
        }
      ],
      "stateMutability": "nonpayable",
      "type": "function"
    },
    {
      "inputs": [
        {
          "internalType": "uint256",
          "name": "_listingID",
          "type": "uint256"
        }
      ],
      "name": "confirmBuyer",
      "outputs": [
        {
          "internalType": "bool",
          "name": "",
          "type": "bool"
        }
      ],
      "stateMutability": "nonpayable",
      "type": "function"
    },
    {
      "inputs": [
        {
          "internalType": "uint256",
          "name": "_listingID",
          "type": "uint256"
        }
      ],
      "name": "confirmProducer",
      "outputs": [
        {
          "internalType": "bool",
          "name": "",
          "type": "bool"
        }
      ],
      "stateMutability": "nonpayable",
      "type": "function"
    },
    {
      "inputs": [
        {
          "internalType": "contract IERC721",
          "name": "_product",
          "type": "address"
        },
        {
          "internalType": "uint256",
          "name": "_productID",
          "type": "uint256"
        },
        {
          "internalType": "uint256",
          "name": "_price",
          "type": "uint256"
        },
        {
          "internalType": "uint256",
          "name": "_amount",
          "type": "uint256"
        },
        {
          "internalType": "string",
          "name": "_amountType",
          "type": "string"
        }
      ],
      "name": "createListing",
      "outputs": [],
      "stateMutability": "nonpayable",
      "type": "function"
    },
    {
      "inputs": [
        {
          "internalType": "uint256",
          "name": "_listingID",
          "type": "uint256"
        }
      ],
      "name": "delistItem",
      "outputs": [],
      "stateMutability": "nonpayable",
      "type": "function"
    },
    {
      "inputs": [],
      "name": "deliveryTime",
      "outputs": [
        {
          "internalType": "uint256",
          "name": "",
          "type": "uint256"
        }
      ],
      "stateMutability": "view",
      "type": "function"
    },
    {
      "inputs": [
        {
          "internalType": "string",
          "name": "name",
          "type": "string"
        },
        {
          "internalType": "address",
          "name": "ad",
          "type": "address"
        },
        {
          "internalType": "enum Bazaar.Auth",
          "name": "aut",
          "type": "uint8"
        }
      ],
      "name": "giveAuth",
      "outputs": [
        {
          "internalType": "enum Bazaar.Auth",
          "name": "",
          "type": "uint8"
        }
      ],
      "stateMutability": "nonpayable",
      "type": "function"
    },
    {
      "inputs": [
        {
          "internalType": "uint256",
          "name": "_listingID",
          "type": "uint256"
        }
      ],
      "name": "giveBack",
      "outputs": [],
      "stateMutability": "nonpayable",
      "type": "function"
    },
    {
      "inputs": [
        {
          "internalType": "uint256",
          "name": "_listingID",
          "type": "uint256"
        }
      ],
      "name": "listItem",
      "outputs": [],
      "stateMutability": "nonpayable",
      "type": "function"
    },
    {
      "inputs": [
        {
          "internalType": "uint256",
          "name": "_listingID",
          "type": "uint256"
        }
      ],
      "name": "purchaseBazaarItem",
      "outputs": [],
      "stateMutability": "payable",
      "type": "function"
    }
  ],
  "bytecode": "0x60a0604052601e6005553480156200001657600080fd5b503373ffffffffffffffffffffffffffffffffffffffff1660808173ffffffffffffffffffffffffffffffffffffffff1660601b8152505060036000803373ffffffffffffffffffffffffffffffffffffffff1673ffffffffffffffffffffffffffffffffffffffff16815260200190815260200160002060006101000a81548160ff02191690836003811115620000d7577f4e487b7100000000000000000000000000000000000000000000000000000000600052602160045260246000fd5b02179055506040518060400160405280600581526020017f41646d696e000000000000000000000000000000000000000000000000000000815250600460003373ffffffffffffffffffffffffffffffffffffffff1673ffffffffffffffffffffffffffffffffffffffff1681526020019081526020016000209080519060200190620001669291906200016d565b5062000282565b8280546200017b906200021d565b90600052602060002090601f0160209004810192826200019f5760008555620001eb565b82601f10620001ba57805160ff1916838001178555620001eb565b82800160010185558215620001eb579182015b82811115620001ea578251825591602001919060010190620001cd565b5b509050620001fa9190620001fe565b5090565b5b8082111562000219576000816000905550600101620001ff565b5090565b600060028204905060018216806200023657607f821691505b602082108114156200024d576200024c62000253565b5b50919050565b7f4e487b7100000000000000000000000000000000000000000000000000000000600052602260045260246000fd5b60805160601c613a1b620002af600039600081816105c90152818161201901526121dc0152613a1b6000f3fe6080604052600436106100fe5760003560e01c80637589099c1161009557806391d61a021161006457806391d61a021461036b578063a25c44f814610387578063a5c4ba11146103cf578063d6c106211461040c578063f851a44014610449576100fe565b80637589099c1461028957806376e66aee146102c65780638a5fbf1e146103035780638da4e8181461032e576100fe565b806345fe5a83116100d157806345fe5a83146101bb5780634d38bb39146101e6578063576cc0f71461020f5780636f78d9e31461024c576100fe565b8063032bc66b146101035780630d5847b01461014057806310061631146101695780632ce3819014610192575b600080fd5b34801561010f57600080fd5b5061012a60048036038101906101259190612871565b610474565b6040516101379190612ced565b60405180910390f35b34801561014c57600080fd5b5061016760048036038101906101629190612871565b610494565b005b34801561017557600080fd5b50610190600480360381019061018b9190612871565b610800565b005b34801561019e57600080fd5b506101b960048036038101906101b49190612871565b610aaa565b005b3480156101c757600080fd5b506101d0610d54565b6040516101dd9190612fa5565b60405180910390f35b3480156101f257600080fd5b5061020d6004803603810190610208919061277b565b610d5a565b005b34801561021b57600080fd5b5061023660048036038101906102319190612871565b611390565b6040516102439190612fa5565b60405180910390f35b34801561025857600080fd5b50610273600480360381019061026e9190612871565b611735565b6040516102809190612ced565b60405180910390f35b34801561029557600080fd5b506102b060048036038101906102ab9190612752565b611755565b6040516102bd9190612d23565b60405180910390f35b3480156102d257600080fd5b506102ed60048036038101906102e89190612752565b6117f5565b6040516102fa9190612d08565b60405180910390f35b34801561030f57600080fd5b50610318611815565b6040516103259190612fa5565b60405180910390f35b34801561033a57600080fd5b5061035560048036038101906103509190612871565b61181b565b6040516103629190612ced565b60405180910390f35b61038560048036038101906103809190612871565b611947565b005b34801561039357600080fd5b506103ae60048036038101906103a99190612871565b611ce6565b6040516103c69c9b9a99989796959493929190612fc0565b60405180910390f35b3480156103db57600080fd5b506103f660048036038101906103f19190612871565b611e55565b6040516104039190612ced565b60405180910390f35b34801561041857600080fd5b50610433600480360381019061042e919061280a565b612015565b6040516104409190612d08565b60405180910390f35b34801561045557600080fd5b5061045e6121da565b60405161046b9190612c64565b60405180910390f35b60026020528060005260406000206000915054906101000a900460ff1681565b806000811180156104a757506006548111155b6104e6576040517f08c379a00000000000000000000000000000000000000000000000000000000081526004016104dd90612da5565b60405180910390fd5b60006001600084815260200190815260200160002090503373ffffffffffffffffffffffffffffffffffffffff168160070160009054906101000a900473ffffffffffffffffffffffffffffffffffffffff1673ffffffffffffffffffffffffffffffffffffffff1614806105aa57503373ffffffffffffffffffffffffffffffffffffffff168160060160009054906101000a900473ffffffffffffffffffffffffffffffffffffffff1673ffffffffffffffffffffffffffffffffffffffff16145b8061060057503373ffffffffffffffffffffffffffffffffffffffff167f000000000000000000000000000000000000000000000000000000000000000073ffffffffffffffffffffffffffffffffffffffff16145b61063f576040517f08c379a000000000000000000000000000000000000000000000000000000000815260040161063690612f25565b60405180910390fd5b42816008015410610685576040517f08c379a000000000000000000000000000000000000000000000000000000000815260040161067c90612f65565b60405180910390fd5b60006003600085815260200190815260200160002060006101000a81548160ff0219169083151502179055508060070160009054906101000a900473ffffffffffffffffffffffffffffffffffffffff1673ffffffffffffffffffffffffffffffffffffffff166108fc82600501549081150290604051600060405180830381858888f1935050505015801561071f573d6000803e3d6000fd5b5060008160070160006101000a81548173ffffffffffffffffffffffffffffffffffffffff021916908373ffffffffffffffffffffffffffffffffffffffff1602179055506000816008018190555060008160070160146101000a81548160ff021916908360048111156107bc577f4e487b7100000000000000000000000000000000000000000000000000000000600052602160045260246000fd5b021790555060008160070160156101000a81548160ff02191690831515021790555060008160070160166101000a81548160ff021916908315150217905550505050565b8060008111801561081357506006548111155b610852576040517f08c379a000000000000000000000000000000000000000000000000000000000815260040161084990612da5565b60405180910390fd5b6000600160008481526020019081526020016000209050600073ffffffffffffffffffffffffffffffffffffffff168160070160009054906101000a900473ffffffffffffffffffffffffffffffffffffffff1673ffffffffffffffffffffffffffffffffffffffff16146108fc576040517f08c379a00000000000000000000000000000000000000000000000000000000081526004016108f390612f45565b60405180910390fd5b3373ffffffffffffffffffffffffffffffffffffffff168160060160009054906101000a900473ffffffffffffffffffffffffffffffffffffffff1673ffffffffffffffffffffffffffffffffffffffff161461098e576040517f08c379a000000000000000000000000000000000000000000000000000000000815260040161098590612d65565b60405180910390fd5b600160048111156109c8577f4e487b7100000000000000000000000000000000000000000000000000000000600052602160045260246000fd5b8160070160149054906101000a900460ff166004811115610a12577f4e487b7100000000000000000000000000000000000000000000000000000000600052602160045260246000fd5b14610a52576040517f08c379a0000000000000000000000000000000000000000000000000000000008152600401610a4990612f05565b60405180910390fd5b60008160070160146101000a81548160ff02191690836004811115610aa0577f4e487b7100000000000000000000000000000000000000000000000000000000600052602160045260246000fd5b0217905550505050565b80600081118015610abd57506006548111155b610afc576040517f08c379a0000000000000000000000000000000000000000000000000000000008152600401610af390612da5565b60405180910390fd5b6000600160008481526020019081526020016000209050600073ffffffffffffffffffffffffffffffffffffffff168160070160009054906101000a900473ffffffffffffffffffffffffffffffffffffffff1673ffffffffffffffffffffffffffffffffffffffff1614610ba6576040517f08c379a0000000000000000000000000000000000000000000000000000000008152600401610b9d90612f45565b60405180910390fd5b3373ffffffffffffffffffffffffffffffffffffffff168160060160009054906101000a900473ffffffffffffffffffffffffffffffffffffffff1673ffffffffffffffffffffffffffffffffffffffff1614610c38576040517f08c379a0000000000000000000000000000000000000000000000000000000008152600401610c2f90612d65565b60405180910390fd5b60006004811115610c72577f4e487b7100000000000000000000000000000000000000000000000000000000600052602160045260246000fd5b8160070160149054906101000a900460ff166004811115610cbc577f4e487b7100000000000000000000000000000000000000000000000000000000600052602160045260246000fd5b14610cfc576040517f08c379a0000000000000000000000000000000000000000000000000000000008152600401610cf390612dc5565b60405180910390fd5b60018160070160146101000a81548160ff02191690836004811115610d4a577f4e487b7100000000000000000000000000000000000000000000000000000000600052602160045260246000fd5b0217905550505050565b60055481565b83600015156002600083815260200190815260200160002060009054906101000a900460ff16151514610d8c57600080fd5b60016003811115610dc6577f4e487b7100000000000000000000000000000000000000000000000000000000600052602160045260246000fd5b6000803373ffffffffffffffffffffffffffffffffffffffff1673ffffffffffffffffffffffffffffffffffffffff16815260200190815260200160002060009054906101000a900460ff166003811115610e4a577f4e487b7100000000000000000000000000000000000000000000000000000000600052602160045260246000fd5b1480610f105750600380811115610e8a577f4e487b7100000000000000000000000000000000000000000000000000000000600052602160045260246000fd5b6000803373ffffffffffffffffffffffffffffffffffffffff1673ffffffffffffffffffffffffffffffffffffffff16815260200190815260200160002060009054906101000a900460ff166003811115610f0e577f4e487b7100000000000000000000000000000000000000000000000000000000600052602160045260246000fd5b145b610f4f576040517f08c379a0000000000000000000000000000000000000000000000000000000008152600401610f4690612ee5565b60405180910390fd5b600084118015610f5f5750600083115b610f9e576040517f08c379a0000000000000000000000000000000000000000000000000000000008152600401610f9590612ea5565b60405180910390fd5b6000825111610fe2576040517f08c379a0000000000000000000000000000000000000000000000000000000008152600401610fd990612d85565b60405180910390fd5b60066000815480929190610ff5906133f1565b91905055508573ffffffffffffffffffffffffffffffffffffffff166323b872dd3330886040518463ffffffff1660e01b815260040161103793929190612cb6565b600060405180830381600087803b15801561105157600080fd5b505af1158015611065573d6000803e3d6000fd5b5050505060405180610180016040528060065481526020018773ffffffffffffffffffffffffffffffffffffffff1681526020018681526020018481526020018381526020018581526020013373ffffffffffffffffffffffffffffffffffffffff168152602001600073ffffffffffffffffffffffffffffffffffffffff16815260200160016004811115611124577f4e487b7100000000000000000000000000000000000000000000000000000000600052602160045260246000fd5b815260200160001515815260200160001515815260200160008152506001600060065481526020019081526020016000206000820151816000015560208201518160010160006101000a81548173ffffffffffffffffffffffffffffffffffffffff021916908373ffffffffffffffffffffffffffffffffffffffff160217905550604082015181600201556060820151816003015560808201518160040190805190602001906111d69291906125f3565b5060a0820151816005015560c08201518160060160006101000a81548173ffffffffffffffffffffffffffffffffffffffff021916908373ffffffffffffffffffffffffffffffffffffffff16021790555060e08201518160070160006101000a81548173ffffffffffffffffffffffffffffffffffffffff021916908373ffffffffffffffffffffffffffffffffffffffff1602179055506101008201518160070160146101000a81548160ff021916908360048111156112c1577f4e487b7100000000000000000000000000000000000000000000000000000000600052602160045260246000fd5b02179055506101208201518160070160156101000a81548160ff0219169083151502179055506101408201518160070160166101000a81548160ff02191690831515021790555061016082015181600801559050503373ffffffffffffffffffffffffffffffffffffffff168673ffffffffffffffffffffffffffffffffffffffff167f415cc3f75a9990d6fab15f2c9f6a428b9126b31459e156c48c5c2b4fc23717816006548887878a600160405161138096959493929190613081565b60405180910390a3505050505050565b600080600160008481526020019081526020016000209050600360048111156113e2577f4e487b7100000000000000000000000000000000000000000000000000000000600052602160045260246000fd5b8160070160149054906101000a900460ff16600481111561142c577f4e487b7100000000000000000000000000000000000000000000000000000000600052602160045260246000fd5b1415611493573373ffffffffffffffffffffffffffffffffffffffff168160070160009054906101000a900473ffffffffffffffffffffffffffffffffffffffff1673ffffffffffffffffffffffffffffffffffffffff161461148e57600080fd5b61164d565b600060048111156114cd577f4e487b7100000000000000000000000000000000000000000000000000000000600052602160045260246000fd5b8160070160149054906101000a900460ff166004811115611517577f4e487b7100000000000000000000000000000000000000000000000000000000600052602160045260246000fd5b14806115a4575060016004811115611558577f4e487b7100000000000000000000000000000000000000000000000000000000600052602160045260246000fd5b8160070160149054906101000a900460ff1660048111156115a2577f4e487b7100000000000000000000000000000000000000000000000000000000600052602160045260246000fd5b145b1561160a573373ffffffffffffffffffffffffffffffffffffffff168160060160009054906101000a900473ffffffffffffffffffffffffffffffffffffffff1673ffffffffffffffffffffffffffffffffffffffff161461160557600080fd5b61164c565b600061164b576040517f08c379a000000000000000000000000000000000000000000000000000000000815260040161164290612e25565b60405180910390fd5b5b5b60008160060160006101000a81548173ffffffffffffffffffffffffffffffffffffffff021916908373ffffffffffffffffffffffffffffffffffffffff16021790555060008160070160006101000a81548173ffffffffffffffffffffffffffffffffffffffff021916908373ffffffffffffffffffffffffffffffffffffffff16021790555060048160070160146101000a81548160ff02191690836004811115611723577f4e487b7100000000000000000000000000000000000000000000000000000000600052602160045260246000fd5b02179055508060020154915050919050565b60036020528060005260406000206000915054906101000a900460ff1681565b600460205280600052604060002060009150905080546117749061338e565b80601f01602080910402602001604051908101604052809291908181526020018280546117a09061338e565b80156117ed5780601f106117c2576101008083540402835291602001916117ed565b820191906000526020600020905b8154815290600101906020018083116117d057829003601f168201915b505050505081565b60006020528060005260406000206000915054906101000a900460ff1681565b60065481565b60008160008111801561183057506006548111155b61186f576040517f08c379a000000000000000000000000000000000000000000000000000000000815260040161186690612da5565b60405180910390fd5b60006001600085815260200190815260200160002090508060060160009054906101000a900473ffffffffffffffffffffffffffffffffffffffff1673ffffffffffffffffffffffffffffffffffffffff163373ffffffffffffffffffffffffffffffffffffffff1614611918576040517f08c379a000000000000000000000000000000000000000000000000000000000815260040161190f90612d45565b60405180910390fd5b60018160070160156101000a81548160ff02191690831515021790555061193e846121fe565b92505050919050565b8060008111801561195a57506006548111155b611999576040517f08c379a000000000000000000000000000000000000000000000000000000000815260040161199090612da5565b60405180910390fd5b6000600160008481526020019081526020016000209050600073ffffffffffffffffffffffffffffffffffffffff168160070160009054906101000a900473ffffffffffffffffffffffffffffffffffffffff1673ffffffffffffffffffffffffffffffffffffffff1614611a43576040517f08c379a0000000000000000000000000000000000000000000000000000000008152600401611a3a90612f45565b60405180910390fd5b8060060160009054906101000a900473ffffffffffffffffffffffffffffffffffffffff1673ffffffffffffffffffffffffffffffffffffffff168160070160009054906101000a900473ffffffffffffffffffffffffffffffffffffffff1673ffffffffffffffffffffffffffffffffffffffff161415611afa576040517f08c379a0000000000000000000000000000000000000000000000000000000008152600401611af190612de5565b60405180910390fd5b8060050154341015611b41576040517f08c379a0000000000000000000000000000000000000000000000000000000008152600401611b3890612e85565b60405180910390fd5b60016004811115611b7b577f4e487b7100000000000000000000000000000000000000000000000000000000600052602160045260246000fd5b8160070160149054906101000a900460ff166004811115611bc5577f4e487b7100000000000000000000000000000000000000000000000000000000600052602160045260246000fd5b14611c05576040517f08c379a0000000000000000000000000000000000000000000000000000000008152600401611bfc90612e65565b60405180910390fd5b6001600260008360020154815260200190815260200160002060006101000a81548160ff021916908315150217905550338160070160006101000a81548173ffffffffffffffffffffffffffffffffffffffff021916908373ffffffffffffffffffffffffffffffffffffffff16021790555060028160070160146101000a81548160ff02191690836004811115611cc6577f4e487b7100000000000000000000000000000000000000000000000000000000600052602160045260246000fd5b021790555060055442611cd991906131e6565b8160080181905550505050565b60016020528060005260406000206000915090508060000154908060010160009054906101000a900473ffffffffffffffffffffffffffffffffffffffff1690806002015490806003015490806004018054611d419061338e565b80601f0160208091040260200160405190810160405280929190818152602001828054611d6d9061338e565b8015611dba5780601f10611d8f57610100808354040283529160200191611dba565b820191906000526020600020905b815481529060010190602001808311611d9d57829003601f168201915b5050505050908060050154908060060160009054906101000a900473ffffffffffffffffffffffffffffffffffffffff16908060070160009054906101000a900473ffffffffffffffffffffffffffffffffffffffff16908060070160149054906101000a900460ff16908060070160159054906101000a900460ff16908060070160169054906101000a900460ff1690806008015490508c565b600081600081118015611e6a57506006548111155b611ea9576040517f08c379a0000000000000000000000000000000000000000000000000000000008152600401611ea090612da5565b60405180910390fd5b6000600160008581526020019081526020016000209050600073ffffffffffffffffffffffffffffffffffffffff168160070160009054906101000a900473ffffffffffffffffffffffffffffffffffffffff1673ffffffffffffffffffffffffffffffffffffffff161415611f54576040517f08c379a0000000000000000000000000000000000000000000000000000000008152600401611f4b90612e05565b60405180910390fd5b8060070160009054906101000a900473ffffffffffffffffffffffffffffffffffffffff1673ffffffffffffffffffffffffffffffffffffffff163373ffffffffffffffffffffffffffffffffffffffff1614611fe6576040517f08c379a0000000000000000000000000000000000000000000000000000000008152600401611fdd90612f85565b60405180910390fd5b60018160070160166101000a81548160ff02191690831515021790555061200c846121fe565b92505050919050565b60007f000000000000000000000000000000000000000000000000000000000000000073ffffffffffffffffffffffffffffffffffffffff163373ffffffffffffffffffffffffffffffffffffffff16146120a5576040517f08c379a000000000000000000000000000000000000000000000000000000000815260040161209c90612ec5565b60405180910390fd5b816000808573ffffffffffffffffffffffffffffffffffffffff1673ffffffffffffffffffffffffffffffffffffffff16815260200190815260200160002060006101000a81548160ff0219169083600381111561212c577f4e487b7100000000000000000000000000000000000000000000000000000000600052602160045260246000fd5b021790555083600460008573ffffffffffffffffffffffffffffffffffffffff1673ffffffffffffffffffffffffffffffffffffffff16815260200190815260200160002090805190602001906121849291906125f3565b506000808473ffffffffffffffffffffffffffffffffffffffff1673ffffffffffffffffffffffffffffffffffffffff16815260200190815260200160002060009054906101000a900460ff1690509392505050565b7f000000000000000000000000000000000000000000000000000000000000000081565b60008160008111801561221357506006548111155b612252576040517f08c379a000000000000000000000000000000000000000000000000000000000815260040161224990612da5565b60405180910390fd5b600015156003600085815260200190815260200160002060009054906101000a900460ff161515146122b9576040517f08c379a00000000000000000000000000000000000000000000000000000000081526004016122b090612e45565b60405180910390fd5b6000600160008581526020019081526020016000209050600115158160070160159054906101000a900460ff16151514801561230a5750600115158160070160169054906101000a900460ff161515145b156125e75760016003600086815260200190815260200160002060006101000a81548160ff0219169083151502179055508060060160009054906101000a900473ffffffffffffffffffffffffffffffffffffffff1673ffffffffffffffffffffffffffffffffffffffff166108fc82600501549081150290604051600060405180830381858888f193505050501580156123a9573d6000803e3d6000fd5b508060010160009054906101000a900473ffffffffffffffffffffffffffffffffffffffff1673ffffffffffffffffffffffffffffffffffffffff166323b872dd308360070160009054906101000a900473ffffffffffffffffffffffffffffffffffffffff1684600201546040518463ffffffff1660e01b815260040161243393929190612c7f565b600060405180830381600087803b15801561244d57600080fd5b505af1158015612461573d6000803e3d6000fd5b5050505060038160070160146101000a81548160ff021916908360048111156124b3577f4e487b7100000000000000000000000000000000000000000000000000000000600052602160045260246000fd5b02179055508060070160009054906101000a900473ffffffffffffffffffffffffffffffffffffffff1673ffffffffffffffffffffffffffffffffffffffff168160060160009054906101000a900473ffffffffffffffffffffffffffffffffffffffff1673ffffffffffffffffffffffffffffffffffffffff168260010160009054906101000a900473ffffffffffffffffffffffffffffffffffffffff1673ffffffffffffffffffffffffffffffffffffffff167f0fee20f77df1f2d09fcc08980c11440ccbf8d15068ee60e3b26d84ada0aaa03987856002015486600301548760040188600501548960070160159054906101000a900460ff168a60070160169054906101000a900460ff166040516125d597969594939291906130e9565b60405180910390a460019250506125ed565b60009250505b50919050565b8280546125ff9061338e565b90600052602060002090601f0160209004810192826126215760008555612668565b82601f1061263a57805160ff1916838001178555612668565b82800160010185558215612668579182015b8281111561266757825182559160200191906001019061264c565b5b5090506126759190612679565b5090565b5b8082111561269257600081600090555060010161267a565b5090565b60006126a96126a484613184565b61315f565b9050828152602081018484840111156126c157600080fd5b6126cc84828561334c565b509392505050565b6000813590506126e381613990565b92915050565b6000813590506126f8816139a7565b92915050565b60008135905061270d816139be565b92915050565b600082601f83011261272457600080fd5b8135612734848260208601612696565b91505092915050565b60008135905061274c816139ce565b92915050565b60006020828403121561276457600080fd5b6000612772848285016126d4565b91505092915050565b600080600080600060a0868803121561279357600080fd5b60006127a1888289016126e9565b95505060206127b28882890161273d565b94505060406127c38882890161273d565b93505060606127d48882890161273d565b925050608086013567ffffffffffffffff8111156127f157600080fd5b6127fd88828901612713565b9150509295509295909350565b60008060006060848603121561281f57600080fd5b600084013567ffffffffffffffff81111561283957600080fd5b61284586828701612713565b9350506020612856868287016126d4565b9250506040612867868287016126fe565b9150509250925092565b60006020828403121561288357600080fd5b60006128918482850161273d565b91505092915050565b6128a3816132ce565b82525050565b6128b28161324e565b82525050565b6128c18161323c565b82525050565b6128d081613260565b82525050565b6128df816132e0565b82525050565b6128ee81613304565b82525050565b6128fd81613316565b82525050565b600061290e826131ca565b61291881856131d5565b935061292881856020860161335b565b612931816134f6565b840191505092915050565b600081546129498161338e565b61295381866131d5565b9450600182166000811461296e5760018114612980576129b3565b60ff19831686526020860193506129b3565b612989856131b5565b60005b838110156129ab5781548189015260018201915060208101905061298c565b808801955050505b50505092915050565b60006129c96022836131d5565b91506129d482613507565b604082019050919050565b60006129ec6016836131d5565b91506129f782613556565b602082019050919050565b6000612a0f601c836131d5565b9150612a1a8261357f565b602082019050919050565b6000612a326028836131d5565b9150612a3d826135a8565b604082019050919050565b6000612a556017836131d5565b9150612a60826135f7565b602082019050919050565b6000612a786017836131d5565b9150612a8382613620565b602082019050919050565b6000612a9b6013836131d5565b9150612aa682613649565b602082019050919050565b6000612abe6026836131d5565b9150612ac982613672565b604082019050919050565b6000612ae16026836131d5565b9150612aec826136c1565b604082019050919050565b6000612b046025836131d5565b9150612b0f82613710565b604082019050919050565b6000612b27602c836131d5565b9150612b328261375f565b604082019050919050565b6000612b4a6026836131d5565b9150612b55826137ae565b604082019050919050565b6000612b6d6017836131d5565b9150612b78826137fd565b602082019050919050565b6000612b906034836131d5565b9150612b9b82613826565b604082019050919050565b6000612bb36016836131d5565b9150612bbe82613875565b602082019050919050565b6000612bd66016836131d5565b9150612be18261389e565b602082019050919050565b6000612bf96016836131d5565b9150612c04826138c7565b602082019050919050565b6000612c1c6023836131d5565b9150612c27826138f0565b604082019050919050565b6000612c3f601f836131d5565b9150612c4a8261393f565b602082019050919050565b612c5e816132c4565b82525050565b6000602082019050612c7960008301846128b8565b92915050565b6000606082019050612c9460008301866128b8565b612ca1602083018561289a565b612cae6040830184612c55565b949350505050565b6000606082019050612ccb60008301866128b8565b612cd860208301856128b8565b612ce56040830184612c55565b949350505050565b6000602082019050612d0260008301846128c7565b92915050565b6000602082019050612d1d60008301846128f4565b92915050565b60006020820190508181036000830152612d3d8184612903565b905092915050565b60006020820190508181036000830152612d5e816129bc565b9050919050565b60006020820190508181036000830152612d7e816129df565b9050919050565b60006020820190508181036000830152612d9e81612a02565b9050919050565b60006020820190508181036000830152612dbe81612a25565b9050919050565b60006020820190508181036000830152612dde81612a48565b9050919050565b60006020820190508181036000830152612dfe81612a6b565b9050919050565b60006020820190508181036000830152612e1e81612a8e565b9050919050565b60006020820190508181036000830152612e3e81612ab1565b9050919050565b60006020820190508181036000830152612e5e81612ad4565b9050919050565b60006020820190508181036000830152612e7e81612af7565b9050919050565b60006020820190508181036000830152612e9e81612b1a565b9050919050565b60006020820190508181036000830152612ebe81612b3d565b9050919050565b60006020820190508181036000830152612ede81612b60565b9050919050565b60006020820190508181036000830152612efe81612b83565b9050919050565b60006020820190508181036000830152612f1e81612ba6565b9050919050565b60006020820190508181036000830152612f3e81612bc9565b9050919050565b60006020820190508181036000830152612f5e81612bec565b9050919050565b60006020820190508181036000830152612f7e81612c0f565b9050919050565b60006020820190508181036000830152612f9e81612c32565b9050919050565b6000602082019050612fba6000830184612c55565b92915050565b600061018082019050612fd6600083018f612c55565b612fe3602083018e6128d6565b612ff0604083018d612c55565b612ffd606083018c612c55565b818103608083015261300f818b612903565b905061301e60a083018a612c55565b61302b60c08301896128a9565b61303860e08301886128a9565b6130466101008301876128e5565b6130546101208301866128c7565b6130626101408301856128c7565b613070610160830184612c55565b9d9c50505050505050505050505050565b600060c0820190506130966000830189612c55565b6130a36020830188612c55565b6130b06040830187612c55565b81810360608301526130c28186612903565b90506130d16080830185612c55565b6130de60a08301846128e5565b979650505050505050565b600060e0820190506130fe600083018a612c55565b61310b6020830189612c55565b6131186040830188612c55565b818103606083015261312a818761293c565b90506131396080830186612c55565b61314660a08301856128c7565b61315360c08301846128c7565b98975050505050505050565b600061316961317a565b905061317582826133c0565b919050565b6000604051905090565b600067ffffffffffffffff82111561319f5761319e6134c7565b5b6131a8826134f6565b9050602081019050919050565b60008190508160005260206000209050919050565b600081519050919050565b600082825260208201905092915050565b60006131f1826132c4565b91506131fc836132c4565b9250827fffffffffffffffffffffffffffffffffffffffffffffffffffffffffffffffff038211156132315761323061343a565b5b828201905092915050565b6000613247826132a4565b9050919050565b6000613259826132a4565b9050919050565b60008115159050919050565b60006132778261323c565b9050919050565b600081905061328c82613968565b919050565b600081905061329f8261397c565b919050565b600073ffffffffffffffffffffffffffffffffffffffff82169050919050565b6000819050919050565b60006132d982613328565b9050919050565b60006132eb826132f2565b9050919050565b60006132fd826132a4565b9050919050565b600061330f8261327e565b9050919050565b600061332182613291565b9050919050565b60006133338261333a565b9050919050565b6000613345826132a4565b9050919050565b82818337600083830152505050565b60005b8381101561337957808201518184015260208101905061335e565b83811115613388576000848401525b50505050565b600060028204905060018216806133a657607f821691505b602082108114156133ba576133b9613498565b5b50919050565b6133c9826134f6565b810181811067ffffffffffffffff821117156133e8576133e76134c7565b5b80604052505050565b60006133fc826132c4565b91507fffffffffffffffffffffffffffffffffffffffffffffffffffffffffffffffff82141561342f5761342e61343a565b5b600182019050919050565b7f4e487b7100000000000000000000000000000000000000000000000000000000600052601160045260246000fd5b7f4e487b7100000000000000000000000000000000000000000000000000000000600052602160045260246000fd5b7f4e487b7100000000000000000000000000000000000000000000000000000000600052602260045260246000fd5b7f4e487b7100000000000000000000000000000000000000000000000000000000600052604160045260246000fd5b6000601f19601f8301169050919050565b7f796f7520617265206e6f742070726f6475636572206f6620746869732069746560008201527f6d2e000000000000000000000000000000000000000000000000000000000000602082015250565b7f54686973206974656d206973206e6f7420796f75727300000000000000000000600082015250565b7f506c656173652046696c6c2074686520416d6f756e7420547970652e00000000600082015250565b7f5468657265206973206e6f2073756368206974656d2e20284c697374696e674960008201527f442077726f6e6729000000000000000000000000000000000000000000000000602082015250565b7f50726f64756374206973206e6f7420706173736976652e000000000000000000600082015250565b7f596f752063616e277420627579206f776e206974656d73000000000000000000600082015250565b7f42757965722061646472657373206572726f7200000000000000000000000000600082015250565b7f596f7520617265206e6f7420617574686f72697a6564206f6e2074686973207060008201527f726f647563740000000000000000000000000000000000000000000000000000602082015250565b7f54686973206f726465722068617320616c7265616479206265656e20636f6d7060008201527f6c657465642e0000000000000000000000000000000000000000000000000000602082015250565b7f50726f64756374206973206e6f742061637469766520666f722073656c6c696e60008201527f67206e6f77000000000000000000000000000000000000000000000000000000602082015250565b7f596f7520646f6e2774206861766520656e6f756768206d6f6e657920666f722060008201527f746865736520627579696e670000000000000000000000000000000000000000602082015250565b7f507269636520616e6420616d6f756e74206d757374206265206269676765722060008201527f7468616e20300000000000000000000000000000000000000000000000000000602082015250565b7f596f7520617265206e6f7420617574686f72697a656420000000000000000000600082015250565b7f596f7520617265206e6f7420617574686f72697a656420746f2075736520637260008201527f656174654c697374696e672066756e6374696f6e000000000000000000000000602082015250565b7f50726f64756374206973206e6f74206163746976652e00000000000000000000600082015250565b7f596f7520617265206e6f7420417574686f72697a656400000000000000000000600082015250565b7f54686973206974656d20616c726561647920736f6c6400000000000000000000600082015250565b7f54686973206974656d206861732074696d6520746f2062652064656c6976657260008201527f65642e0000000000000000000000000000000000000000000000000000000000602082015250565b7f796f7520617265206e6f74206275796572206f662074686973206974656d2e00600082015250565b6005811061397957613978613469565b5b50565b6004811061398d5761398c613469565b5b50565b6139998161323c565b81146139a457600080fd5b50565b6139b08161326c565b81146139bb57600080fd5b50565b600481106139cb57600080fd5b50565b6139d7816132c4565b81146139e257600080fd5b5056fea2646970667358221220c0f9d5c4916e16794fd8f356de73e976c64eb4977e11a52c8b7b595efb806e7d64736f6c63430008040033",
  "linkReferences": {},
  "deployedLinkReferences": {}
}