{
  "_format": "hh-sol-artifact-1",
  "contractName": "Bazaar",
  "sourceName": "src/backend/contracts/Bazaar.sol",
  "abi": [
    {
      "inputs": [],
      "stateMutability": "nonpayable",
      "type": "constructor"
    },
    {
      "anonymous": false,
      "inputs": [
        {
          "indexed": false,
          "internalType": "uint256",
          "name": "listingID",
          "type": "uint256"
        },
        {
          "indexed": true,
          "internalType": "address",
          "name": "product",
          "type": "address"
        },
        {
          "indexed": false,
          "internalType": "uint256",
          "name": "ProductID",
          "type": "uint256"
        },
        {
          "indexed": false,
          "internalType": "uint256",
          "name": "amount",
          "type": "uint256"
        },
        {
          "indexed": false,
          "internalType": "string",
          "name": "amountType",
          "type": "string"
        },
        {
          "indexed": false,
          "internalType": "uint256",
          "name": "price",
          "type": "uint256"
        },
        {
          "indexed": true,
          "internalType": "address",
          "name": "producer",
          "type": "address"
        },
        {
          "indexed": false,
          "internalType": "bool",
          "name": "active",
          "type": "bool"
        }
      ],
      "name": "Listing",
      "type": "event"
    },
    {
      "anonymous": false,
      "inputs": [
        {
          "indexed": false,
          "internalType": "uint256",
          "name": "listingID",
          "type": "uint256"
        },
        {
          "indexed": true,
          "internalType": "address",
          "name": "product",
          "type": "address"
        },
        {
          "indexed": false,
          "internalType": "uint256",
          "name": "ProductID",
          "type": "uint256"
        },
        {
          "indexed": false,
          "internalType": "uint256",
          "name": "amount",
          "type": "uint256"
        },
        {
          "indexed": false,
          "internalType": "string",
          "name": "amountType",
          "type": "string"
        },
        {
          "indexed": false,
          "internalType": "uint256",
          "name": "price",
          "type": "uint256"
        },
        {
          "indexed": true,
          "internalType": "address",
          "name": "producer",
          "type": "address"
        },
        {
          "indexed": true,
          "internalType": "address",
          "name": "buyer",
          "type": "address"
        },
        {
          "indexed": false,
          "internalType": "bool",
          "name": "producerConf",
          "type": "bool"
        },
        {
          "indexed": false,
          "internalType": "bool",
          "name": "buyerConf",
          "type": "bool"
        }
      ],
      "name": "sold",
      "type": "event"
    },
    {
      "inputs": [
        {
          "internalType": "address",
          "name": "",
          "type": "address"
        }
      ],
      "name": "AuthList",
      "outputs": [
        {
          "internalType": "enum Bazaar.Auth",
          "name": "",
          "type": "uint8"
        }
      ],
      "stateMutability": "view",
      "type": "function"
    },
    {
      "inputs": [],
      "name": "BazaarCount",
      "outputs": [
        {
          "internalType": "uint256",
          "name": "",
          "type": "uint256"
        }
      ],
      "stateMutability": "view",
      "type": "function"
    },
    {
      "inputs": [
        {
          "internalType": "uint256",
          "name": "",
          "type": "uint256"
        }
      ],
      "name": "BazaarList",
      "outputs": [
        {
          "internalType": "uint256",
          "name": "listingID",
          "type": "uint256"
        },
        {
          "internalType": "contract IERC721",
          "name": "product",
          "type": "address"
        },
        {
          "internalType": "uint256",
          "name": "ProductID",
          "type": "uint256"
        },
        {
          "internalType": "uint256",
          "name": "amount",
          "type": "uint256"
        },
        {
          "internalType": "string",
          "name": "amountType",
          "type": "string"
        },
        {
          "internalType": "uint256",
          "name": "price",
          "type": "uint256"
        },
        {
          "internalType": "address payable",
          "name": "producer",
          "type": "address"
        },
        {
          "internalType": "address payable",
          "name": "buyer",
          "type": "address"
        },
        {
          "internalType": "bool",
          "name": "active",
          "type": "bool"
        },
        {
          "internalType": "bool",
          "name": "producerConf",
          "type": "bool"
        },
        {
          "internalType": "bool",
          "name": "buyerConf",
          "type": "bool"
        }
      ],
      "stateMutability": "view",
      "type": "function"
    },
    {
      "inputs": [
        {
          "internalType": "uint256",
          "name": "",
          "type": "uint256"
        }
      ],
      "name": "Locked",
      "outputs": [
        {
          "internalType": "bool",
          "name": "",
          "type": "bool"
        }
      ],
      "stateMutability": "view",
      "type": "function"
    },
    {
      "inputs": [
        {
          "internalType": "uint256",
          "name": "",
          "type": "uint256"
        }
      ],
      "name": "PaymentTrack",
      "outputs": [
        {
          "internalType": "bool",
          "name": "",
          "type": "bool"
        }
      ],
      "stateMutability": "view",
      "type": "function"
    },
    {
      "inputs": [],
      "name": "admin",
      "outputs": [
        {
          "internalType": "address",
          "name": "",
          "type": "address"
        }
      ],
      "stateMutability": "view",
      "type": "function"
    },
    {
      "inputs": [
        {
          "internalType": "uint256",
          "name": "_listingID",
          "type": "uint256"
        }
      ],
      "name": "confirmBuyer",
      "outputs": [
        {
          "internalType": "bool",
          "name": "",
          "type": "bool"
        }
      ],
      "stateMutability": "nonpayable",
      "type": "function"
    },
    {
      "inputs": [
        {
          "internalType": "uint256",
          "name": "_listingID",
          "type": "uint256"
        }
      ],
      "name": "confirmProducer",
      "outputs": [
        {
          "internalType": "bool",
          "name": "",
          "type": "bool"
        }
      ],
      "stateMutability": "nonpayable",
      "type": "function"
    },
    {
      "inputs": [
        {
          "internalType": "contract IERC721",
          "name": "_product",
          "type": "address"
        },
        {
          "internalType": "uint256",
          "name": "_productID",
          "type": "uint256"
        },
        {
          "internalType": "uint256",
          "name": "_price",
          "type": "uint256"
        },
        {
          "internalType": "uint256",
          "name": "_amount",
          "type": "uint256"
        },
        {
          "internalType": "string",
          "name": "_amountType",
          "type": "string"
        }
      ],
      "name": "createListing",
      "outputs": [],
      "stateMutability": "nonpayable",
      "type": "function"
    },
    {
      "inputs": [
        {
          "internalType": "address",
          "name": "ad",
          "type": "address"
        },
        {
          "internalType": "enum Bazaar.Auth",
          "name": "aut",
          "type": "uint8"
        }
      ],
      "name": "giveAuth",
      "outputs": [
        {
          "internalType": "enum Bazaar.Auth",
          "name": "",
          "type": "uint8"
        }
      ],
      "stateMutability": "nonpayable",
      "type": "function"
    },
    {
      "inputs": [
        {
          "internalType": "uint256",
          "name": "_listingID",
          "type": "uint256"
        }
      ],
      "name": "purchaseBazaarItem",
      "outputs": [],
      "stateMutability": "payable",
      "type": "function"
    }
  ],
  "bytecode": "0x60a060405234801561001057600080fd5b503373ffffffffffffffffffffffffffffffffffffffff1660808173ffffffffffffffffffffffffffffffffffffffff1660601b8152505060036000803373ffffffffffffffffffffffffffffffffffffffff1673ffffffffffffffffffffffffffffffffffffffff16815260200190815260200160002060006101000a81548160ff021916908360038111156100d0577f4e487b7100000000000000000000000000000000000000000000000000000000600052602160045260246000fd5b021790555060036000807370997970c51812dc3a010c7d01b50e0d17dc79c873ffffffffffffffffffffffffffffffffffffffff1673ffffffffffffffffffffffffffffffffffffffff16815260200190815260200160002060006101000a81548160ff02191690836003811115610171577f4e487b7100000000000000000000000000000000000000000000000000000000600052602160045260246000fd5b021790555060805160601c6124b161019b60003960008181610315015261122401526124b16000f3fe60806040526004361061009c5760003560e01c80638a5fbf1e116100645780638a5fbf1e146101be5780638da4e818146101e957806391d61a0214610226578063a25c44f814610242578063a5c4ba1114610289578063f851a440146102c65761009c565b8063032bc66b146100a15780634be51e32146100de5780634d38bb391461011b5780636f78d9e31461014457806376e66aee14610181575b600080fd5b3480156100ad57600080fd5b506100c860048036038101906100c39190611716565b6102f1565b6040516100d59190611a8e565b60405180910390f35b3480156100ea57600080fd5b506101056004803603810190610100919061164b565b610311565b6040516101129190611aa9565b60405180910390f35b34801561012757600080fd5b50610142600480360381019061013d9190611687565b610481565b005b34801561015057600080fd5b5061016b60048036038101906101669190611716565b610a39565b6040516101789190611a8e565b60405180910390f35b34801561018d57600080fd5b506101a860048036038101906101a39190611622565b610a59565b6040516101b59190611aa9565b60405180910390f35b3480156101ca57600080fd5b506101d3610a79565b6040516101e09190611c44565b60405180910390f35b3480156101f557600080fd5b50610210600480360381019061020b9190611716565b610a7f565b60405161021d9190611a8e565b60405180910390f35b610240600480360381019061023b9190611716565b610bab565b005b34801561024e57600080fd5b5061026960048036038101906102649190611716565b610ef9565b6040516102809b9a99989796959493929190611c5f565b60405180910390f35b34801561029557600080fd5b506102b060048036038101906102ab9190611716565b611062565b6040516102bd9190611a8e565b60405180910390f35b3480156102d257600080fd5b506102db611222565b6040516102e89190611a05565b60405180910390f35b60026020528060005260406000206000915054906101000a900460ff1681565b60007f000000000000000000000000000000000000000000000000000000000000000073ffffffffffffffffffffffffffffffffffffffff163373ffffffffffffffffffffffffffffffffffffffff16146103a1576040517f08c379a000000000000000000000000000000000000000000000000000000000815260040161039890611bc4565b60405180910390fd5b816000808573ffffffffffffffffffffffffffffffffffffffff1673ffffffffffffffffffffffffffffffffffffffff16815260200190815260200160002060006101000a81548160ff02191690836003811115610428577f4e487b7100000000000000000000000000000000000000000000000000000000600052602160045260246000fd5b02179055506000808473ffffffffffffffffffffffffffffffffffffffff1673ffffffffffffffffffffffffffffffffffffffff16815260200190815260200160002060009054906101000a900460ff16905092915050565b83600015156002600083815260200190815260200160002060009054906101000a900460ff161515146104b357600080fd5b600160038111156104ed577f4e487b7100000000000000000000000000000000000000000000000000000000600052602160045260246000fd5b6000803373ffffffffffffffffffffffffffffffffffffffff1673ffffffffffffffffffffffffffffffffffffffff16815260200190815260200160002060009054906101000a900460ff166003811115610571577f4e487b7100000000000000000000000000000000000000000000000000000000600052602160045260246000fd5b148061063757506003808111156105b1577f4e487b7100000000000000000000000000000000000000000000000000000000600052602160045260246000fd5b6000803373ffffffffffffffffffffffffffffffffffffffff1673ffffffffffffffffffffffffffffffffffffffff16815260200190815260200160002060009054906101000a900460ff166003811115610635577f4e487b7100000000000000000000000000000000000000000000000000000000600052602160045260246000fd5b145b610676576040517f08c379a000000000000000000000000000000000000000000000000000000000815260040161066d90611be4565b60405180910390fd5b6000841180156106865750600083115b6106c5576040517f08c379a00000000000000000000000000000000000000000000000000000000081526004016106bc90611ba4565b60405180910390fd5b6000825111610709576040517f08c379a000000000000000000000000000000000000000000000000000000000815260040161070090611ae4565b60405180910390fd5b6004600081548092919061071c90612006565b91905055508573ffffffffffffffffffffffffffffffffffffffff166323b872dd3330886040518463ffffffff1660e01b815260040161075e93929190611a57565b600060405180830381600087803b15801561077857600080fd5b505af115801561078c573d6000803e3d6000fd5b5050505060405180610160016040528060045481526020018773ffffffffffffffffffffffffffffffffffffffff1681526020018681526020018481526020018381526020018581526020013373ffffffffffffffffffffffffffffffffffffffff168152602001600073ffffffffffffffffffffffffffffffffffffffff168152602001600115158152602001600015158152602001600015158152506001600060045481526020019081526020016000206000820151816000015560208201518160010160006101000a81548173ffffffffffffffffffffffffffffffffffffffff021916908373ffffffffffffffffffffffffffffffffffffffff160217905550604082015181600201556060820151816003015560808201518160040190805190602001906108c09291906114c3565b5060a0820151816005015560c08201518160060160006101000a81548173ffffffffffffffffffffffffffffffffffffffff021916908373ffffffffffffffffffffffffffffffffffffffff16021790555060e08201518160070160006101000a81548173ffffffffffffffffffffffffffffffffffffffff021916908373ffffffffffffffffffffffffffffffffffffffff1602179055506101008201518160070160146101000a81548160ff0219169083151502179055506101208201518160070160156101000a81548160ff0219169083151502179055506101408201518160070160166101000a81548160ff0219169083151502179055509050503373ffffffffffffffffffffffffffffffffffffffff168673ffffffffffffffffffffffffffffffffffffffff167f578d13a7a72bbe39bbb7c413e92f2cbb3cc4f088cda7c524ae5b50eebd690ce96004548887878a6001604051610a2996959493929190611d11565b60405180910390a3505050505050565b60036020528060005260406000206000915054906101000a900460ff1681565b60006020528060005260406000206000915054906101000a900460ff1681565b60045481565b600081600081118015610a9457506004548111155b610ad3576040517f08c379a0000000000000000000000000000000000000000000000000000000008152600401610aca90611b04565b60405180910390fd5b60006001600085815260200190815260200160002090508060060160009054906101000a900473ffffffffffffffffffffffffffffffffffffffff1673ffffffffffffffffffffffffffffffffffffffff163373ffffffffffffffffffffffffffffffffffffffff1614610b7c576040517f08c379a0000000000000000000000000000000000000000000000000000000008152600401610b7390611ac4565b60405180910390fd5b60018160070160156101000a81548160ff021916908315150217905550610ba284611246565b92505050919050565b80600081118015610bbe57506004548111155b610bfd576040517f08c379a0000000000000000000000000000000000000000000000000000000008152600401610bf490611b04565b60405180910390fd5b6000600160008481526020019081526020016000209050600073ffffffffffffffffffffffffffffffffffffffff168160070160009054906101000a900473ffffffffffffffffffffffffffffffffffffffff1673ffffffffffffffffffffffffffffffffffffffff1614610ca7576040517f08c379a0000000000000000000000000000000000000000000000000000000008152600401610c9e90611c04565b60405180910390fd5b8060050154341015610cee576040517f08c379a0000000000000000000000000000000000000000000000000000000008152600401610ce590611b84565b60405180910390fd5b8060070160149054906101000a900460ff16610d3f576040517f08c379a0000000000000000000000000000000000000000000000000000000008152600401610d3690611b64565b60405180910390fd5b6001600260008360020154815260200190815260200160002060006101000a81548160ff021916908315150217905550338160070160006101000a81548173ffffffffffffffffffffffffffffffffffffffff021916908373ffffffffffffffffffffffffffffffffffffffff16021790555060008160070160146101000a81548160ff0219169083151502179055508060070160009054906101000a900473ffffffffffffffffffffffffffffffffffffffff1673ffffffffffffffffffffffffffffffffffffffff168160060160009054906101000a900473ffffffffffffffffffffffffffffffffffffffff1673ffffffffffffffffffffffffffffffffffffffff168260010160009054906101000a900473ffffffffffffffffffffffffffffffffffffffff1673ffffffffffffffffffffffffffffffffffffffff167f0fee20f77df1f2d09fcc08980c11440ccbf8d15068ee60e3b26d84ada0aaa03986856002015486600301548760040188600501548960070160159054906101000a900460ff168a60070160169054906101000a900460ff16604051610eec9796959493929190611d79565b60405180910390a4505050565b60016020528060005260406000206000915090508060000154908060010160009054906101000a900473ffffffffffffffffffffffffffffffffffffffff1690806002015490806003015490806004018054610f5490611fa3565b80601f0160208091040260200160405190810160405280929190818152602001828054610f8090611fa3565b8015610fcd5780601f10610fa257610100808354040283529160200191610fcd565b820191906000526020600020905b815481529060010190602001808311610fb057829003601f168201915b5050505050908060050154908060060160009054906101000a900473ffffffffffffffffffffffffffffffffffffffff16908060070160009054906101000a900473ffffffffffffffffffffffffffffffffffffffff16908060070160149054906101000a900460ff16908060070160159054906101000a900460ff16908060070160169054906101000a900460ff1690508b565b60008160008111801561107757506004548111155b6110b6576040517f08c379a00000000000000000000000000000000000000000000000000000000081526004016110ad90611b04565b60405180910390fd5b6000600160008581526020019081526020016000209050600073ffffffffffffffffffffffffffffffffffffffff168160070160009054906101000a900473ffffffffffffffffffffffffffffffffffffffff1673ffffffffffffffffffffffffffffffffffffffff161415611161576040517f08c379a000000000000000000000000000000000000000000000000000000000815260040161115890611b24565b60405180910390fd5b8060070160009054906101000a900473ffffffffffffffffffffffffffffffffffffffff1673ffffffffffffffffffffffffffffffffffffffff163373ffffffffffffffffffffffffffffffffffffffff16146111f3576040517f08c379a00000000000000000000000000000000000000000000000000000000081526004016111ea90611c24565b60405180910390fd5b60018160070160166101000a81548160ff02191690831515021790555061121984611246565b92505050919050565b7f000000000000000000000000000000000000000000000000000000000000000081565b60008160008111801561125b57506004548111155b61129a576040517f08c379a000000000000000000000000000000000000000000000000000000000815260040161129190611b04565b60405180910390fd5b600015156003600085815260200190815260200160002060009054906101000a900460ff16151514611301576040517f08c379a00000000000000000000000000000000000000000000000000000000081526004016112f890611b44565b60405180910390fd5b6000600160008581526020019081526020016000209050600115158160070160159054906101000a900460ff1615151480156113525750600115158160070160169054906101000a900460ff161515145b156114b75760016003600086815260200190815260200160002060006101000a81548160ff0219169083151502179055508060060160009054906101000a900473ffffffffffffffffffffffffffffffffffffffff1673ffffffffffffffffffffffffffffffffffffffff166108fc82600501549081150290604051600060405180830381858888f193505050501580156113f1573d6000803e3d6000fd5b508060010160009054906101000a900473ffffffffffffffffffffffffffffffffffffffff1673ffffffffffffffffffffffffffffffffffffffff166323b872dd308360070160009054906101000a900473ffffffffffffffffffffffffffffffffffffffff1684600201546040518463ffffffff1660e01b815260040161147b93929190611a20565b600060405180830381600087803b15801561149557600080fd5b505af11580156114a9573d6000803e3d6000fd5b5050505060019250506114bd565b60009250505b50919050565b8280546114cf90611fa3565b90600052602060002090601f0160209004810192826114f15760008555611538565b82601f1061150a57805160ff1916838001178555611538565b82800160010185558215611538579182015b8281111561153757825182559160200191906001019061151c565b5b5090506115459190611549565b5090565b5b8082111561156257600081600090555060010161154a565b5090565b600061157961157484611e14565b611def565b90508281526020810184848401111561159157600080fd5b61159c848285611f61565b509392505050565b6000813590506115b381612426565b92915050565b6000813590506115c88161243d565b92915050565b6000813590506115dd81612454565b92915050565b600082601f8301126115f457600080fd5b8135611604848260208601611566565b91505092915050565b60008135905061161c81612464565b92915050565b60006020828403121561163457600080fd5b6000611642848285016115a4565b91505092915050565b6000806040838503121561165e57600080fd5b600061166c858286016115a4565b925050602061167d858286016115ce565b9150509250929050565b600080600080600060a0868803121561169f57600080fd5b60006116ad888289016115b9565b95505060206116be8882890161160d565b94505060406116cf8882890161160d565b93505060606116e08882890161160d565b925050608086013567ffffffffffffffff8111156116fd57600080fd5b611709888289016115e3565b9150509295509295909350565b60006020828403121561172857600080fd5b60006117368482850161160d565b91505092915050565b61174881611ef5565b82525050565b61175781611e88565b82525050565b61176681611e76565b82525050565b61177581611e9a565b82525050565b61178481611f07565b82525050565b61179381611f2b565b82525050565b60006117a482611e5a565b6117ae8185611e65565b93506117be818560208601611f70565b6117c78161210b565b840191505092915050565b600081546117df81611fa3565b6117e98186611e65565b94506001821660008114611804576001811461181657611849565b60ff1983168652602086019350611849565b61181f85611e45565b60005b8381101561184157815481890152600182019150602081019050611822565b808801955050505b50505092915050565b600061185f602283611e65565b915061186a8261211c565b604082019050919050565b6000611882601c83611e65565b915061188d8261216b565b602082019050919050565b60006118a5602883611e65565b91506118b082612194565b604082019050919050565b60006118c8601383611e65565b91506118d3826121e3565b602082019050919050565b60006118eb602683611e65565b91506118f68261220c565b604082019050919050565b600061190e602583611e65565b91506119198261225b565b604082019050919050565b6000611931602c83611e65565b915061193c826122aa565b604082019050919050565b6000611954602683611e65565b915061195f826122f9565b604082019050919050565b6000611977601783611e65565b915061198282612348565b602082019050919050565b600061199a603483611e65565b91506119a582612371565b604082019050919050565b60006119bd601683611e65565b91506119c8826123c0565b602082019050919050565b60006119e0601f83611e65565b91506119eb826123e9565b602082019050919050565b6119ff81611eeb565b82525050565b6000602082019050611a1a600083018461175d565b92915050565b6000606082019050611a35600083018661175d565b611a42602083018561173f565b611a4f60408301846119f6565b949350505050565b6000606082019050611a6c600083018661175d565b611a79602083018561175d565b611a8660408301846119f6565b949350505050565b6000602082019050611aa3600083018461176c565b92915050565b6000602082019050611abe600083018461178a565b92915050565b60006020820190508181036000830152611add81611852565b9050919050565b60006020820190508181036000830152611afd81611875565b9050919050565b60006020820190508181036000830152611b1d81611898565b9050919050565b60006020820190508181036000830152611b3d816118bb565b9050919050565b60006020820190508181036000830152611b5d816118de565b9050919050565b60006020820190508181036000830152611b7d81611901565b9050919050565b60006020820190508181036000830152611b9d81611924565b9050919050565b60006020820190508181036000830152611bbd81611947565b9050919050565b60006020820190508181036000830152611bdd8161196a565b9050919050565b60006020820190508181036000830152611bfd8161198d565b9050919050565b60006020820190508181036000830152611c1d816119b0565b9050919050565b60006020820190508181036000830152611c3d816119d3565b9050919050565b6000602082019050611c5960008301846119f6565b92915050565b600061016082019050611c75600083018e6119f6565b611c82602083018d61177b565b611c8f604083018c6119f6565b611c9c606083018b6119f6565b8181036080830152611cae818a611799565b9050611cbd60a08301896119f6565b611cca60c083018861174e565b611cd760e083018761174e565b611ce561010083018661176c565b611cf361012083018561176c565b611d0161014083018461176c565b9c9b505050505050505050505050565b600060c082019050611d2660008301896119f6565b611d3360208301886119f6565b611d4060408301876119f6565b8181036060830152611d528186611799565b9050611d6160808301856119f6565b611d6e60a083018461176c565b979650505050505050565b600060e082019050611d8e600083018a6119f6565b611d9b60208301896119f6565b611da860408301886119f6565b8181036060830152611dba81876117d2565b9050611dc960808301866119f6565b611dd660a083018561176c565b611de360c083018461176c565b98975050505050505050565b6000611df9611e0a565b9050611e058282611fd5565b919050565b6000604051905090565b600067ffffffffffffffff821115611e2f57611e2e6120dc565b5b611e388261210b565b9050602081019050919050565b60008190508160005260206000209050919050565b600081519050919050565b600082825260208201905092915050565b6000611e8182611ecb565b9050919050565b6000611e9382611ecb565b9050919050565b60008115159050919050565b6000611eb182611e76565b9050919050565b6000819050611ec682612412565b919050565b600073ffffffffffffffffffffffffffffffffffffffff82169050919050565b6000819050919050565b6000611f0082611f3d565b9050919050565b6000611f1282611f19565b9050919050565b6000611f2482611ecb565b9050919050565b6000611f3682611eb8565b9050919050565b6000611f4882611f4f565b9050919050565b6000611f5a82611ecb565b9050919050565b82818337600083830152505050565b60005b83811015611f8e578082015181840152602081019050611f73565b83811115611f9d576000848401525b50505050565b60006002820490506001821680611fbb57607f821691505b60208210811415611fcf57611fce6120ad565b5b50919050565b611fde8261210b565b810181811067ffffffffffffffff82111715611ffd57611ffc6120dc565b5b80604052505050565b600061201182611eeb565b91507fffffffffffffffffffffffffffffffffffffffffffffffffffffffffffffffff8214156120445761204361204f565b5b600182019050919050565b7f4e487b7100000000000000000000000000000000000000000000000000000000600052601160045260246000fd5b7f4e487b7100000000000000000000000000000000000000000000000000000000600052602160045260246000fd5b7f4e487b7100000000000000000000000000000000000000000000000000000000600052602260045260246000fd5b7f4e487b7100000000000000000000000000000000000000000000000000000000600052604160045260246000fd5b6000601f19601f8301169050919050565b7f796f7520617265206e6f742070726f6475636572206f6620746869732069746560008201527f6d2e000000000000000000000000000000000000000000000000000000000000602082015250565b7f506c656173652046696c6c2074686520416d6f756e7420547970652e00000000600082015250565b7f5468657265206973206e6f2073756368206974656d2e20284c697374696e674960008201527f442077726f6e6729000000000000000000000000000000000000000000000000602082015250565b7f42757965722061646472657373206572726f7200000000000000000000000000600082015250565b7f54686973206f726465722068617320616c7265616479206265656e20636f6d7060008201527f6c657465642e0000000000000000000000000000000000000000000000000000602082015250565b7f50726f64756374206973206e6f742061637469766520666f722073656c6c696e60008201527f67206e6f77000000000000000000000000000000000000000000000000000000602082015250565b7f596f7520646f6e2774206861766520656e6f756768206d6f6e657920666f722060008201527f746865736520627579696e670000000000000000000000000000000000000000602082015250565b7f507269636520616e6420616d6f756e74206d757374206265206269676765722060008201527f7468616e20300000000000000000000000000000000000000000000000000000602082015250565b7f596f7520617265206e6f7420617574686f72697a656420000000000000000000600082015250565b7f596f7520617265206e6f7420617574686f72697a656420746f2075736520637260008201527f656174654c697374696e672066756e6374696f6e000000000000000000000000602082015250565b7f54686973206974656d20616c726561647920736f6c6400000000000000000000600082015250565b7f796f7520617265206e6f74206275796572206f662074686973206974656d2e00600082015250565b600481106124235761242261207e565b5b50565b61242f81611e76565b811461243a57600080fd5b50565b61244681611ea6565b811461245157600080fd5b50565b6004811061246157600080fd5b50565b61246d81611eeb565b811461247857600080fd5b5056fea2646970667358221220a747193da62bdee19436d2880880bb5d0fd621b0b54a80e9b3f680f3ff116dd864736f6c63430008040033",
  "linkReferences": {},
  "deployedLinkReferences": {}
}