{
  "_format": "hh-sol-artifact-1",
  "contractName": "Product",
  "sourceName": "src/backend/contracts/Product.sol",
  "abi": [
    {
      "inputs": [],
      "stateMutability": "nonpayable",
      "type": "constructor"
    },
    {
      "anonymous": false,
      "inputs": [
        {
          "indexed": true,
          "internalType": "address",
          "name": "owner",
          "type": "address"
        },
        {
          "indexed": true,
          "internalType": "address",
          "name": "approved",
          "type": "address"
        },
        {
          "indexed": true,
          "internalType": "uint256",
          "name": "tokenId",
          "type": "uint256"
        }
      ],
      "name": "Approval",
      "type": "event"
    },
    {
      "anonymous": false,
      "inputs": [
        {
          "indexed": true,
          "internalType": "address",
          "name": "owner",
          "type": "address"
        },
        {
          "indexed": true,
          "internalType": "address",
          "name": "operator",
          "type": "address"
        },
        {
          "indexed": false,
          "internalType": "bool",
          "name": "approved",
          "type": "bool"
        }
      ],
      "name": "ApprovalForAll",
      "type": "event"
    },
    {
      "anonymous": false,
      "inputs": [
        {
          "indexed": true,
          "internalType": "address",
          "name": "from",
          "type": "address"
        },
        {
          "indexed": true,
          "internalType": "address",
          "name": "to",
          "type": "address"
        },
        {
          "indexed": true,
          "internalType": "uint256",
          "name": "tokenId",
          "type": "uint256"
        }
      ],
      "name": "Transfer",
      "type": "event"
    },
    {
      "inputs": [
        {
          "internalType": "uint256",
          "name": "",
          "type": "uint256"
        }
      ],
      "name": "BurnedItems",
      "outputs": [
        {
          "internalType": "bool",
          "name": "",
          "type": "bool"
        }
      ],
      "stateMutability": "view",
      "type": "function"
    },
    {
      "inputs": [],
      "name": "ProductID",
      "outputs": [
        {
          "internalType": "uint256",
          "name": "",
          "type": "uint256"
        }
      ],
      "stateMutability": "view",
      "type": "function"
    },
    {
      "inputs": [
        {
          "internalType": "address",
          "name": "to",
          "type": "address"
        },
        {
          "internalType": "uint256",
          "name": "tokenId",
          "type": "uint256"
        }
      ],
      "name": "approve",
      "outputs": [],
      "stateMutability": "nonpayable",
      "type": "function"
    },
    {
      "inputs": [
        {
          "internalType": "address",
          "name": "owner",
          "type": "address"
        }
      ],
      "name": "balanceOf",
      "outputs": [
        {
          "internalType": "uint256",
          "name": "",
          "type": "uint256"
        }
      ],
      "stateMutability": "view",
      "type": "function"
    },
    {
      "inputs": [
        {
          "internalType": "uint256",
          "name": "_ProductID",
          "type": "uint256"
        }
      ],
      "name": "burn",
      "outputs": [
        {
          "internalType": "bool",
          "name": "",
          "type": "bool"
        }
      ],
      "stateMutability": "nonpayable",
      "type": "function"
    },
    {
      "inputs": [
        {
          "internalType": "uint256",
          "name": "tokenId",
          "type": "uint256"
        }
      ],
      "name": "getApproved",
      "outputs": [
        {
          "internalType": "address",
          "name": "",
          "type": "address"
        }
      ],
      "stateMutability": "view",
      "type": "function"
    },
    {
      "inputs": [
        {
          "internalType": "address",
          "name": "owner",
          "type": "address"
        },
        {
          "internalType": "address",
          "name": "operator",
          "type": "address"
        }
      ],
      "name": "isApprovedForAll",
      "outputs": [
        {
          "internalType": "bool",
          "name": "",
          "type": "bool"
        }
      ],
      "stateMutability": "view",
      "type": "function"
    },
    {
      "inputs": [
        {
          "internalType": "string",
          "name": "_dataURI",
          "type": "string"
        }
      ],
      "name": "mint",
      "outputs": [
        {
          "internalType": "uint256",
          "name": "",
          "type": "uint256"
        }
      ],
      "stateMutability": "nonpayable",
      "type": "function"
    },
    {
      "inputs": [],
      "name": "name",
      "outputs": [
        {
          "internalType": "string",
          "name": "",
          "type": "string"
        }
      ],
      "stateMutability": "view",
      "type": "function"
    },
    {
      "inputs": [
        {
          "internalType": "uint256",
          "name": "tokenId",
          "type": "uint256"
        }
      ],
      "name": "ownerOf",
      "outputs": [
        {
          "internalType": "address",
          "name": "",
          "type": "address"
        }
      ],
      "stateMutability": "view",
      "type": "function"
    },
    {
      "inputs": [
        {
          "internalType": "address",
          "name": "from",
          "type": "address"
        },
        {
          "internalType": "address",
          "name": "to",
          "type": "address"
        },
        {
          "internalType": "uint256",
          "name": "tokenId",
          "type": "uint256"
        }
      ],
      "name": "safeTransferFrom",
      "outputs": [],
      "stateMutability": "nonpayable",
      "type": "function"
    },
    {
      "inputs": [
        {
          "internalType": "address",
          "name": "from",
          "type": "address"
        },
        {
          "internalType": "address",
          "name": "to",
          "type": "address"
        },
        {
          "internalType": "uint256",
          "name": "tokenId",
          "type": "uint256"
        },
        {
          "internalType": "bytes",
          "name": "_data",
          "type": "bytes"
        }
      ],
      "name": "safeTransferFrom",
      "outputs": [],
      "stateMutability": "nonpayable",
      "type": "function"
    },
    {
      "inputs": [
        {
          "internalType": "address",
          "name": "operator",
          "type": "address"
        },
        {
          "internalType": "bool",
          "name": "approved",
          "type": "bool"
        }
      ],
      "name": "setApprovalForAll",
      "outputs": [],
      "stateMutability": "nonpayable",
      "type": "function"
    },
    {
      "inputs": [
        {
          "internalType": "bytes4",
          "name": "interfaceId",
          "type": "bytes4"
        }
      ],
      "name": "supportsInterface",
      "outputs": [
        {
          "internalType": "bool",
          "name": "",
          "type": "bool"
        }
      ],
      "stateMutability": "view",
      "type": "function"
    },
    {
      "inputs": [],
      "name": "symbol",
      "outputs": [
        {
          "internalType": "string",
          "name": "",
          "type": "string"
        }
      ],
      "stateMutability": "view",
      "type": "function"
    },
    {
      "inputs": [
        {
          "internalType": "uint256",
          "name": "tokenId",
          "type": "uint256"
        }
      ],
      "name": "tokenURI",
      "outputs": [
        {
          "internalType": "string",
          "name": "",
          "type": "string"
        }
      ],
      "stateMutability": "view",
      "type": "function"
    },
    {
      "inputs": [
        {
          "internalType": "address",
          "name": "from",
          "type": "address"
        },
        {
          "internalType": "address",
          "name": "to",
          "type": "address"
        },
        {
          "internalType": "uint256",
          "name": "tokenId",
          "type": "uint256"
        }
      ],
      "name": "transferFrom",
      "outputs": [],
      "stateMutability": "nonpayable",
      "type": "function"
    }
  ],
  "bytecode": "0x60806040523480156200001157600080fd5b506040518060400160405280600a81526020017f3142617a6161722d5452000000000000000000000000000000000000000000008152506040518060400160405280600481526020017f3142545200000000000000000000000000000000000000000000000000000000815250816000908051906020019062000096929190620000b8565b508060019080519060200190620000af929190620000b8565b505050620001cd565b828054620000c69062000168565b90600052602060002090601f016020900481019282620000ea576000855562000136565b82601f106200010557805160ff191683800117855562000136565b8280016001018555821562000136579182015b828111156200013557825182559160200191906001019062000118565b5b50905062000145919062000149565b5090565b5b80821115620001645760008160009055506001016200014a565b5090565b600060028204905060018216806200018157607f821691505b602082108114156200019857620001976200019e565b5b50919050565b7f4e487b7100000000000000000000000000000000000000000000000000000000600052602260045260246000fd5b612e9580620001dd6000396000f3fe608060405234801561001057600080fd5b506004361061010b5760003560e01c806370a08231116100a2578063b88d4fde11610071578063b88d4fde146102ca578063c87b56dd146102e6578063d85d3d2714610316578063db20d87914610346578063e985e9c5146103765761010b565b806370a08231146102425780639203765b1461027257806395d89b4114610290578063a22cb465146102ae5761010b565b806323b872dd116100de57806323b872dd146101aa57806342842e0e146101c657806342966c68146101e25780636352211e146102125761010b565b806301ffc9a71461011057806306fdde0314610140578063081812fc1461015e578063095ea7b31461018e575b600080fd5b61012a60048036038101906101259190611f01565b6103a6565b6040516101379190612348565b60405180910390f35b610148610488565b6040516101559190612363565b60405180910390f35b61017860048036038101906101739190611f94565b61051a565b60405161018591906122e1565b60405180910390f35b6101a860048036038101906101a39190611ec5565b61059f565b005b6101c460048036038101906101bf9190611dbf565b6106b7565b005b6101e060048036038101906101db9190611dbf565b610717565b005b6101fc60048036038101906101f79190611f94565b610737565b6040516102099190612348565b60405180910390f35b61022c60048036038101906102279190611f94565b610777565b60405161023991906122e1565b60405180910390f35b61025c60048036038101906102579190611d5a565b610829565b6040516102699190612585565b60405180910390f35b61027a6108e1565b6040516102879190612585565b60405180910390f35b6102986108e7565b6040516102a59190612363565b60405180910390f35b6102c860048036038101906102c39190611e89565b610979565b005b6102e460048036038101906102df9190611e0e565b61098f565b005b61030060048036038101906102fb9190611f94565b6109f1565b60405161030d9190612363565b60405180910390f35b610330600480360381019061032b9190611f53565b610b43565b60405161033d9190612585565b60405180910390f35b610360600480360381019061035b9190611f94565b610b7f565b60405161036d9190612348565b60405180910390f35b610390600480360381019061038b9190611d83565b610b9f565b60405161039d9190612348565b60405180910390f35b60007f80ac58cd000000000000000000000000000000000000000000000000000000007bffffffffffffffffffffffffffffffffffffffffffffffffffffffff1916827bffffffffffffffffffffffffffffffffffffffffffffffffffffffff1916148061047157507f5b5e139f000000000000000000000000000000000000000000000000000000007bffffffffffffffffffffffffffffffffffffffffffffffffffffffff1916827bffffffffffffffffffffffffffffffffffffffffffffffffffffffff1916145b80610481575061048082610c33565b5b9050919050565b606060008054610497906127db565b80601f01602080910402602001604051908101604052809291908181526020018280546104c3906127db565b80156105105780601f106104e557610100808354040283529160200191610510565b820191906000526020600020905b8154815290600101906020018083116104f357829003601f168201915b5050505050905090565b600061052582610c9d565b610564576040517f08c379a000000000000000000000000000000000000000000000000000000000815260040161055b90612505565b60405180910390fd5b6004600083815260200190815260200160002060009054906101000a900473ffffffffffffffffffffffffffffffffffffffff169050919050565b60006105aa82610777565b90508073ffffffffffffffffffffffffffffffffffffffff168373ffffffffffffffffffffffffffffffffffffffff16141561061b576040517f08c379a000000000000000000000000000000000000000000000000000000000815260040161061290612545565b60405180910390fd5b8073ffffffffffffffffffffffffffffffffffffffff1661063a610d09565b73ffffffffffffffffffffffffffffffffffffffff161480610669575061066881610663610d09565b610b9f565b5b6106a8576040517f08c379a000000000000000000000000000000000000000000000000000000000815260040161069f90612445565b60405180910390fd5b6106b28383610d11565b505050565b6106c86106c2610d09565b82610dca565b610707576040517f08c379a00000000000000000000000000000000000000000000000000000000081526004016106fe90612565565b60405180910390fd5b610712838383610ea8565b505050565b6107328383836040518060200160405280600081525061098f565b505050565b60006107428261110f565b60016007600084815260200190815260200160002060006101000a81548160ff02191690831515021790555060019050919050565b6000806002600084815260200190815260200160002060009054906101000a900473ffffffffffffffffffffffffffffffffffffffff169050600073ffffffffffffffffffffffffffffffffffffffff168173ffffffffffffffffffffffffffffffffffffffff161415610820576040517f08c379a000000000000000000000000000000000000000000000000000000000815260040161081790612485565b60405180910390fd5b80915050919050565b60008073ffffffffffffffffffffffffffffffffffffffff168273ffffffffffffffffffffffffffffffffffffffff16141561089a576040517f08c379a000000000000000000000000000000000000000000000000000000000815260040161089190612465565b60405180910390fd5b600360008373ffffffffffffffffffffffffffffffffffffffff1673ffffffffffffffffffffffffffffffffffffffff168152602001908152602001600020549050919050565b60085481565b6060600180546108f6906127db565b80601f0160208091040260200160405190810160405280929190818152602001828054610922906127db565b801561096f5780601f106109445761010080835404028352916020019161096f565b820191906000526020600020905b81548152906001019060200180831161095257829003601f168201915b5050505050905090565b61098b610984610d09565b8383611162565b5050565b6109a061099a610d09565b83610dca565b6109df576040517f08c379a00000000000000000000000000000000000000000000000000000000081526004016109d690612565565b60405180910390fd5b6109eb848484846112cf565b50505050565b60606109fc82610c9d565b610a3b576040517f08c379a0000000000000000000000000000000000000000000000000000000008152600401610a32906124e5565b60405180910390fd5b6000600660008481526020019081526020016000208054610a5b906127db565b80601f0160208091040260200160405190810160405280929190818152602001828054610a87906127db565b8015610ad45780601f10610aa957610100808354040283529160200191610ad4565b820191906000526020600020905b815481529060010190602001808311610ab757829003601f168201915b505050505090506000610ae561132b565b9050600081511415610afb578192505050610b3e565b600082511115610b30578082604051602001610b189291906122bd565b60405160208183030381529060405292505050610b3e565b610b3984611342565b925050505b919050565b600060086000815480929190610b589061283e565b9190505550610b69336008546113e9565b610b7560085483611407565b6008549050919050565b60076020528060005260406000206000915054906101000a900460ff1681565b6000600560008473ffffffffffffffffffffffffffffffffffffffff1673ffffffffffffffffffffffffffffffffffffffff16815260200190815260200160002060008373ffffffffffffffffffffffffffffffffffffffff1673ffffffffffffffffffffffffffffffffffffffff16815260200190815260200160002060009054906101000a900460ff16905092915050565b60007f01ffc9a7000000000000000000000000000000000000000000000000000000007bffffffffffffffffffffffffffffffffffffffffffffffffffffffff1916827bffffffffffffffffffffffffffffffffffffffffffffffffffffffff1916149050919050565b60008073ffffffffffffffffffffffffffffffffffffffff166002600084815260200190815260200160002060009054906101000a900473ffffffffffffffffffffffffffffffffffffffff1673ffffffffffffffffffffffffffffffffffffffff1614159050919050565b600033905090565b816004600083815260200190815260200160002060006101000a81548173ffffffffffffffffffffffffffffffffffffffff021916908373ffffffffffffffffffffffffffffffffffffffff160217905550808273ffffffffffffffffffffffffffffffffffffffff16610d8483610777565b73ffffffffffffffffffffffffffffffffffffffff167f8c5be1e5ebec7d5bd14f71427d1e84f3dd0314c0f7b2291e5b200ac8c7c3b92560405160405180910390a45050565b6000610dd582610c9d565b610e14576040517f08c379a0000000000000000000000000000000000000000000000000000000008152600401610e0b90612425565b60405180910390fd5b6000610e1f83610777565b90508073ffffffffffffffffffffffffffffffffffffffff168473ffffffffffffffffffffffffffffffffffffffff161480610e8e57508373ffffffffffffffffffffffffffffffffffffffff16610e768461051a565b73ffffffffffffffffffffffffffffffffffffffff16145b80610e9f5750610e9e8185610b9f565b5b91505092915050565b8273ffffffffffffffffffffffffffffffffffffffff16610ec882610777565b73ffffffffffffffffffffffffffffffffffffffff1614610f1e576040517f08c379a0000000000000000000000000000000000000000000000000000000008152600401610f15906123a5565b60405180910390fd5b600073ffffffffffffffffffffffffffffffffffffffff168273ffffffffffffffffffffffffffffffffffffffff161415610f8e576040517f08c379a0000000000000000000000000000000000000000000000000000000008152600401610f85906123e5565b60405180910390fd5b610f9983838361147b565b610fa4600082610d11565b6001600360008573ffffffffffffffffffffffffffffffffffffffff1673ffffffffffffffffffffffffffffffffffffffff1681526020019081526020016000206000828254610ff491906126f1565b925050819055506001600360008473ffffffffffffffffffffffffffffffffffffffff1673ffffffffffffffffffffffffffffffffffffffff168152602001908152602001600020600082825461104b919061266a565b92505081905550816002600083815260200190815260200160002060006101000a81548173ffffffffffffffffffffffffffffffffffffffff021916908373ffffffffffffffffffffffffffffffffffffffff160217905550808273ffffffffffffffffffffffffffffffffffffffff168473ffffffffffffffffffffffffffffffffffffffff167fddf252ad1be2c89b69c2b068fc378daa952ba7f163c4a11628f55a4df523b3ef60405160405180910390a461110a838383611480565b505050565b61111881611485565b6000600660008381526020019081526020016000208054611138906127db565b90501461115f5760066000828152602001908152602001600020600061115e9190611b3e565b5b50565b8173ffffffffffffffffffffffffffffffffffffffff168373ffffffffffffffffffffffffffffffffffffffff1614156111d1576040517f08c379a00000000000000000000000000000000000000000000000000000000081526004016111c890612405565b60405180910390fd5b80600560008573ffffffffffffffffffffffffffffffffffffffff1673ffffffffffffffffffffffffffffffffffffffff16815260200190815260200160002060008473ffffffffffffffffffffffffffffffffffffffff1673ffffffffffffffffffffffffffffffffffffffff16815260200190815260200160002060006101000a81548160ff0219169083151502179055508173ffffffffffffffffffffffffffffffffffffffff168373ffffffffffffffffffffffffffffffffffffffff167f17307eab39ab6107e8899845ad3d59bd9653f200f220920489ca2b5937696c31836040516112c29190612348565b60405180910390a3505050565b6112da848484610ea8565b6112e6848484846115a2565b611325576040517f08c379a000000000000000000000000000000000000000000000000000000000815260040161131c90612385565b60405180910390fd5b50505050565b606060405180602001604052806000815250905090565b606061134d82610c9d565b61138c576040517f08c379a000000000000000000000000000000000000000000000000000000000815260040161138390612525565b60405180910390fd5b600061139661132b565b905060008151116113b657604051806020016040528060008152506113e1565b806113c084611739565b6040516020016113d19291906122bd565b6040516020818303038152906040525b915050919050565b6114038282604051806020016040528060008152506118e6565b5050565b61141082610c9d565b61144f576040517f08c379a0000000000000000000000000000000000000000000000000000000008152600401611446906124a5565b60405180910390fd5b80600660008481526020019081526020016000209080519060200190611476929190611b7e565b505050565b505050565b505050565b600061149082610777565b905061149e8160008461147b565b6114a9600083610d11565b6001600360008373ffffffffffffffffffffffffffffffffffffffff1673ffffffffffffffffffffffffffffffffffffffff16815260200190815260200160002060008282546114f991906126f1565b925050819055506002600083815260200190815260200160002060006101000a81549073ffffffffffffffffffffffffffffffffffffffff021916905581600073ffffffffffffffffffffffffffffffffffffffff168273ffffffffffffffffffffffffffffffffffffffff167fddf252ad1be2c89b69c2b068fc378daa952ba7f163c4a11628f55a4df523b3ef60405160405180910390a461159e81600084611480565b5050565b60006115c38473ffffffffffffffffffffffffffffffffffffffff16611941565b1561172c578373ffffffffffffffffffffffffffffffffffffffff1663150b7a026115ec610d09565b8786866040518563ffffffff1660e01b815260040161160e94939291906122fc565b602060405180830381600087803b15801561162857600080fd5b505af192505050801561165957506040513d601f19601f820116820180604052508101906116569190611f2a565b60015b6116dc573d8060008114611689576040519150601f19603f3d011682016040523d82523d6000602084013e61168e565b606091505b506000815114156116d4576040517f08c379a00000000000000000000000000000000000000000000000000000000081526004016116cb90612385565b60405180910390fd5b805181602001fd5b63150b7a0260e01b7bffffffffffffffffffffffffffffffffffffffffffffffffffffffff1916817bffffffffffffffffffffffffffffffffffffffffffffffffffffffff191614915050611731565b600190505b949350505050565b60606000821415611781576040518060400160405280600181526020017f300000000000000000000000000000000000000000000000000000000000000081525090506118e1565b600082905060005b600082146117b357808061179c9061283e565b915050600a826117ac91906126c0565b9150611789565b60008167ffffffffffffffff8111156117f5577f4e487b7100000000000000000000000000000000000000000000000000000000600052604160045260246000fd5b6040519080825280601f01601f1916602001820160405280156118275781602001600182028036833780820191505090505b5090505b600085146118da5760018261184091906126f1565b9150600a8561184f9190612887565b603061185b919061266a565b60f81b818381518110611897577f4e487b7100000000000000000000000000000000000000000000000000000000600052603260045260246000fd5b60200101907effffffffffffffffffffffffffffffffffffffffffffffffffffffffffffff1916908160001a905350600a856118d391906126c0565b945061182b565b8093505050505b919050565b6118f08383611964565b6118fd60008484846115a2565b61193c576040517f08c379a000000000000000000000000000000000000000000000000000000000815260040161193390612385565b60405180910390fd5b505050565b6000808273ffffffffffffffffffffffffffffffffffffffff163b119050919050565b600073ffffffffffffffffffffffffffffffffffffffff168273ffffffffffffffffffffffffffffffffffffffff1614156119d4576040517f08c379a00000000000000000000000000000000000000000000000000000000081526004016119cb906124c5565b60405180910390fd5b6119dd81610c9d565b15611a1d576040517f08c379a0000000000000000000000000000000000000000000000000000000008152600401611a14906123c5565b60405180910390fd5b611a296000838361147b565b6001600360008473ffffffffffffffffffffffffffffffffffffffff1673ffffffffffffffffffffffffffffffffffffffff1681526020019081526020016000206000828254611a79919061266a565b92505081905550816002600083815260200190815260200160002060006101000a81548173ffffffffffffffffffffffffffffffffffffffff021916908373ffffffffffffffffffffffffffffffffffffffff160217905550808273ffffffffffffffffffffffffffffffffffffffff16600073ffffffffffffffffffffffffffffffffffffffff167fddf252ad1be2c89b69c2b068fc378daa952ba7f163c4a11628f55a4df523b3ef60405160405180910390a4611b3a60008383611480565b5050565b508054611b4a906127db565b6000825580601f10611b5c5750611b7b565b601f016020900490600052602060002090810190611b7a9190611c04565b5b50565b828054611b8a906127db565b90600052602060002090601f016020900481019282611bac5760008555611bf3565b82601f10611bc557805160ff1916838001178555611bf3565b82800160010185558215611bf3579182015b82811115611bf2578251825591602001919060010190611bd7565b5b509050611c009190611c04565b5090565b5b80821115611c1d576000816000905550600101611c05565b5090565b6000611c34611c2f846125c5565b6125a0565b905082815260208101848484011115611c4c57600080fd5b611c57848285612799565b509392505050565b6000611c72611c6d846125f6565b6125a0565b905082815260208101848484011115611c8a57600080fd5b611c95848285612799565b509392505050565b600081359050611cac81612e03565b92915050565b600081359050611cc181612e1a565b92915050565b600081359050611cd681612e31565b92915050565b600081519050611ceb81612e31565b92915050565b600082601f830112611d0257600080fd5b8135611d12848260208601611c21565b91505092915050565b600082601f830112611d2c57600080fd5b8135611d3c848260208601611c5f565b91505092915050565b600081359050611d5481612e48565b92915050565b600060208284031215611d6c57600080fd5b6000611d7a84828501611c9d565b91505092915050565b60008060408385031215611d9657600080fd5b6000611da485828601611c9d565b9250506020611db585828601611c9d565b9150509250929050565b600080600060608486031215611dd457600080fd5b6000611de286828701611c9d565b9350506020611df386828701611c9d565b9250506040611e0486828701611d45565b9150509250925092565b60008060008060808587031215611e2457600080fd5b6000611e3287828801611c9d565b9450506020611e4387828801611c9d565b9350506040611e5487828801611d45565b925050606085013567ffffffffffffffff811115611e7157600080fd5b611e7d87828801611cf1565b91505092959194509250565b60008060408385031215611e9c57600080fd5b6000611eaa85828601611c9d565b9250506020611ebb85828601611cb2565b9150509250929050565b60008060408385031215611ed857600080fd5b6000611ee685828601611c9d565b9250506020611ef785828601611d45565b9150509250929050565b600060208284031215611f1357600080fd5b6000611f2184828501611cc7565b91505092915050565b600060208284031215611f3c57600080fd5b6000611f4a84828501611cdc565b91505092915050565b600060208284031215611f6557600080fd5b600082013567ffffffffffffffff811115611f7f57600080fd5b611f8b84828501611d1b565b91505092915050565b600060208284031215611fa657600080fd5b6000611fb484828501611d45565b91505092915050565b611fc681612725565b82525050565b611fd581612737565b82525050565b6000611fe682612627565b611ff0818561263d565b93506120008185602086016127a8565b61200981612974565b840191505092915050565b600061201f82612632565b612029818561264e565b93506120398185602086016127a8565b61204281612974565b840191505092915050565b600061205882612632565b612062818561265f565b93506120728185602086016127a8565b80840191505092915050565b600061208b60328361264e565b915061209682612985565b604082019050919050565b60006120ae60258361264e565b91506120b9826129d4565b604082019050919050565b60006120d1601c8361264e565b91506120dc82612a23565b602082019050919050565b60006120f460248361264e565b91506120ff82612a4c565b604082019050919050565b600061211760198361264e565b915061212282612a9b565b602082019050919050565b600061213a602c8361264e565b915061214582612ac4565b604082019050919050565b600061215d60388361264e565b915061216882612b13565b604082019050919050565b6000612180602a8361264e565b915061218b82612b62565b604082019050919050565b60006121a360298361264e565b91506121ae82612bb1565b604082019050919050565b60006121c6602e8361264e565b91506121d182612c00565b604082019050919050565b60006121e960208361264e565b91506121f482612c4f565b602082019050919050565b600061220c60318361264e565b915061221782612c78565b604082019050919050565b600061222f602c8361264e565b915061223a82612cc7565b604082019050919050565b6000612252602f8361264e565b915061225d82612d16565b604082019050919050565b600061227560218361264e565b915061228082612d65565b604082019050919050565b600061229860318361264e565b91506122a382612db4565b604082019050919050565b6122b78161278f565b82525050565b60006122c9828561204d565b91506122d5828461204d565b91508190509392505050565b60006020820190506122f66000830184611fbd565b92915050565b60006080820190506123116000830187611fbd565b61231e6020830186611fbd565b61232b60408301856122ae565b818103606083015261233d8184611fdb565b905095945050505050565b600060208201905061235d6000830184611fcc565b92915050565b6000602082019050818103600083015261237d8184612014565b905092915050565b6000602082019050818103600083015261239e8161207e565b9050919050565b600060208201905081810360008301526123be816120a1565b9050919050565b600060208201905081810360008301526123de816120c4565b9050919050565b600060208201905081810360008301526123fe816120e7565b9050919050565b6000602082019050818103600083015261241e8161210a565b9050919050565b6000602082019050818103600083015261243e8161212d565b9050919050565b6000602082019050818103600083015261245e81612150565b9050919050565b6000602082019050818103600083015261247e81612173565b9050919050565b6000602082019050818103600083015261249e81612196565b9050919050565b600060208201905081810360008301526124be816121b9565b9050919050565b600060208201905081810360008301526124de816121dc565b9050919050565b600060208201905081810360008301526124fe816121ff565b9050919050565b6000602082019050818103600083015261251e81612222565b9050919050565b6000602082019050818103600083015261253e81612245565b9050919050565b6000602082019050818103600083015261255e81612268565b9050919050565b6000602082019050818103600083015261257e8161228b565b9050919050565b600060208201905061259a60008301846122ae565b92915050565b60006125aa6125bb565b90506125b6828261280d565b919050565b6000604051905090565b600067ffffffffffffffff8211156125e0576125df612945565b5b6125e982612974565b9050602081019050919050565b600067ffffffffffffffff82111561261157612610612945565b5b61261a82612974565b9050602081019050919050565b600081519050919050565b600081519050919050565b600082825260208201905092915050565b600082825260208201905092915050565b600081905092915050565b60006126758261278f565b91506126808361278f565b9250827fffffffffffffffffffffffffffffffffffffffffffffffffffffffffffffffff038211156126b5576126b46128b8565b5b828201905092915050565b60006126cb8261278f565b91506126d68361278f565b9250826126e6576126e56128e7565b5b828204905092915050565b60006126fc8261278f565b91506127078361278f565b92508282101561271a576127196128b8565b5b828203905092915050565b60006127308261276f565b9050919050565b60008115159050919050565b60007fffffffff0000000000000000000000000000000000000000000000000000000082169050919050565b600073ffffffffffffffffffffffffffffffffffffffff82169050919050565b6000819050919050565b82818337600083830152505050565b60005b838110156127c65780820151818401526020810190506127ab565b838111156127d5576000848401525b50505050565b600060028204905060018216806127f357607f821691505b6020821081141561280757612806612916565b5b50919050565b61281682612974565b810181811067ffffffffffffffff8211171561283557612834612945565b5b80604052505050565b60006128498261278f565b91507fffffffffffffffffffffffffffffffffffffffffffffffffffffffffffffffff82141561287c5761287b6128b8565b5b600182019050919050565b60006128928261278f565b915061289d8361278f565b9250826128ad576128ac6128e7565b5b828206905092915050565b7f4e487b7100000000000000000000000000000000000000000000000000000000600052601160045260246000fd5b7f4e487b7100000000000000000000000000000000000000000000000000000000600052601260045260246000fd5b7f4e487b7100000000000000000000000000000000000000000000000000000000600052602260045260246000fd5b7f4e487b7100000000000000000000000000000000000000000000000000000000600052604160045260246000fd5b6000601f19601f8301169050919050565b7f4552433732313a207472616e7366657220746f206e6f6e20455243373231526560008201527f63656976657220696d706c656d656e7465720000000000000000000000000000602082015250565b7f4552433732313a207472616e736665722066726f6d20696e636f72726563742060008201527f6f776e6572000000000000000000000000000000000000000000000000000000602082015250565b7f4552433732313a20746f6b656e20616c7265616479206d696e74656400000000600082015250565b7f4552433732313a207472616e7366657220746f20746865207a65726f2061646460008201527f7265737300000000000000000000000000000000000000000000000000000000602082015250565b7f4552433732313a20617070726f766520746f2063616c6c657200000000000000600082015250565b7f4552433732313a206f70657261746f7220717565727920666f72206e6f6e657860008201527f697374656e7420746f6b656e0000000000000000000000000000000000000000602082015250565b7f4552433732313a20617070726f76652063616c6c6572206973206e6f74206f7760008201527f6e6572206e6f7220617070726f76656420666f7220616c6c0000000000000000602082015250565b7f4552433732313a2062616c616e636520717565727920666f7220746865207a6560008201527f726f206164647265737300000000000000000000000000000000000000000000602082015250565b7f4552433732313a206f776e657220717565727920666f72206e6f6e657869737460008201527f656e7420746f6b656e0000000000000000000000000000000000000000000000602082015250565b7f45524337323155524953746f726167653a2055524920736574206f66206e6f6e60008201527f6578697374656e7420746f6b656e000000000000000000000000000000000000602082015250565b7f4552433732313a206d696e7420746f20746865207a65726f2061646472657373600082015250565b7f45524337323155524953746f726167653a2055524920717565727920666f722060008201527f6e6f6e6578697374656e7420746f6b656e000000000000000000000000000000602082015250565b7f4552433732313a20617070726f76656420717565727920666f72206e6f6e657860008201527f697374656e7420746f6b656e0000000000000000000000000000000000000000602082015250565b7f4552433732314d657461646174613a2055524920717565727920666f72206e6f60008201527f6e6578697374656e7420746f6b656e0000000000000000000000000000000000602082015250565b7f4552433732313a20617070726f76616c20746f2063757272656e74206f776e6560008201527f7200000000000000000000000000000000000000000000000000000000000000602082015250565b7f4552433732313a207472616e736665722063616c6c6572206973206e6f74206f60008201527f776e6572206e6f7220617070726f766564000000000000000000000000000000602082015250565b612e0c81612725565b8114612e1757600080fd5b50565b612e2381612737565b8114612e2e57600080fd5b50565b612e3a81612743565b8114612e4557600080fd5b50565b612e518161278f565b8114612e5c57600080fd5b5056fea2646970667358221220a212b4860600561fdcb7e0e9bc3d6048b36a2df36742b2893ba60a25cd0a58a764736f6c63430008040033",
  "linkReferences": {},
  "deployedLinkReferences": {}
}